:020000040800F2
:1000000000060020F50500087131000829310008BC
:10001000513100082931000849310008F70500086E
:10002000F7050008F7050008F70500085941000822
:10003000F7050008F7050008F7050008F7050008B0
:10004000F7050008F7050008F7050008F7050008A0
:10005000F7050008F7050008596C0008856C0008D2
:10006000B16C0008DD6C0008096D0008F705000898
:10007000F7050008F7050008F7050008F705000870
:10008000F7050008F7050008F7050008013100082A
:10009000F705000811310008F7050008356D000864
:1000A000F7050008F7050008F7050008F705000840
:1000B000F7050008F7050008F7050008F705000830
:1000C000F7050008F7050008F7050008F705000820
:1000D000F7050008F7050008F7050008F705000810
:1000E000996D0008F7050008F7050008F7050008F6
:1000F000F7050008F7050008F7050008F7050008F0
:10010000F7050008F70500080D6E0008F705000860
:10011000F7050008F7050008F7050008F7050008CF
:10012000F7050008F7050008F7050008F7050008BF
:10013000F7050008F7050008F7050008F7050008AF
:10014000F7050008F7050008F7050008F70500089F
:10015000F7050008F7050008F7050008F70500088F
:10016000F7050008F7050008F7050008F70500087F
:10017000F7050008C55F0008F7050008F705000847
:10018000F7050008F7050008F7050008F70500085F
:10019000F7050008F7050008F7050008F70500084F
:1001A000F7050008F7050008F7050008F70500083F
:1001B000F7050008F7050008F7050008F70500082F
:1001C000F7050008F7050008F7050008F70500081F
:1001D000F7050008F7050008F7050008F70500080F
:1001E000F7050008F7050008F7050008F7050008FF
:1001F000F7050008F7050008F7050008F7050008EF
:10020000F7050008F7050008F7050008F7050008DE
:10021000F7050008F7050008F7050008F7050008CE
:10022000F7050008F7050008F7050008F7050008BE
:10023000F7050008F7050008F7050008F7050008AE
:10024000F7050008F7050008F7050008F70500089E
:10025000F7050008F7050008F7050008F70500088E
:10026000F7050008F7050008F7050008F70500087E
:10027000F7050008F7050008F7050008F70500086E
:10028000F7050008F7050008F7050008F70500085E
:10029000F7050008F7050008F7050008F70500084E
:1002A000F7050008F7050008F7050008F70500083E
:1002B000F7050008F7050008F7050008F70500082E
:1002C000F7050008F7050008F7050008F70500081E
:1002D000F7050008F7050008F7050008F70500080E
:1002E000C918000800000000000000000000000025
:1002F00053B94AB9002908BF00281CBF4FF0FF318D
:100300004FF0FF3000F074B9ADF1080C6DE904CE88
:1003100000F006F8DDF804E0DDE9022304B07047E0
:100320002DE9F047089D04468E46002B4DD18A42A8
:10033000944669D9B2FA82F252B101FA02F3C2F1DB
:10034000200120FA01F10CFA02FC41EA030E94406C
:100350004FEA1C48210CBEFBF8F61FFA8CF708FB8D
:1003600016E341EA034306FB07F199420AD91CEB65
:10037000030306F1FF3080F01F81994240F21C8197
:10038000023E63445B1AA4B2B3FBF8F008FB1033DF
:1003900044EA034400FB07F7A7420AD91CEB040414
:1003A00000F1FF3380F00A81A74240F207816444E4
:1003B000023840EA0640E41B00261DB1D440002369
:1003C000C5E900433146BDE8F0878B4209D9002DCD
:1003D00000F0EF800026C5E9000130463146BDE857
:1003E000F087B3FA83F6002E4AD18B4202D38242C1
:1003F00000F2F980841A61EB030301209E46002D70
:10040000E0D0C5E9004EDDE702B9FFDEB2FA82F2C4
:10041000002A40F09280A1EB0C014FEA1C471FFA22
:100420008CFE0126200CB1FBF7F307FB131140EA09
:1004300001410EFB03F0884208D91CEB010103F1D6
:10044000FF3802D2884200F2CB804346091AA4B298
:10045000B1FBF7F007FB101144EA01440EFB00FE6C
:10046000A64508D91CEB040400F1FF3102D2A645D1
:1004700000F2BB800846A4EB0E0440EA03409CE770
:10048000C6F12007B34022FA07FC4CEA030C20FA1D
:1004900007F401FA06F31C43F9404FEA1C4900FA3D
:1004A00006F3B1FBF9F8200C1FFA8CFE09FB1811BA
:1004B00040EA014108FB0EF0884202FA06F20BD92D
:1004C0001CEB010108F1FF3A80F08880884240F27D
:1004D0008580A8F102086144091AA4B2B1FBF9F0C1
:1004E00009FB101144EA014100FB0EFE8E4508D9BC
:1004F0001CEB010100F1FF346CD28E456AD9023841
:10050000614440EA0840A0FB0294A1EB0E01A14225
:10051000C846A64656D353D05DB1B3EB080261EB93
:100520000E0101FA07F722FA06F3F1401F43C5E96D
:10053000007100263146BDE8F087C2F12003D840A3
:100540000CFA02FC21FA03F3914001434FEA1C47E5
:100550001FFA8CFEB3FBF7F007FB10360B0C43EAD7
:10056000064300FB0EF69E4204FA02F408D91CEB87
:10057000030300F1FF382FD29E422DD90238634485
:100580009B1B89B2B3FBF7F607FB163341EA034125
:1005900006FB0EF38B4208D91CEB010106F1FF3874
:1005A00016D28B4214D9023E6144C91A46EA00466B
:1005B00038E72E46284605E70646E3E61846F8E6FD
:1005C0004B45A9D2B9EB020864EB0C0E0138A3E746
:1005D0004646EAE7204694E74046D1E7D0467BE727
:1005E000023B614432E7304609E76444023842E79F
:1005F000704700BF02E000F000F8FEE772B637482F
:1006000080F30888364880F3098836483649086000
:1006100040F20000CCF200004EF63471CEF2000140
:100620000860BFF34F8FBFF36F8F40F20000C0F23E
:10063000F0004EF68851CEF200010860BFF34F8FF4
:10064000BFF36F8F4FF00000E1EE100A4EF63C71E1
:10065000CEF200010860062080F31488BFF36F8F8C
:1006600005F0D4F806F0CEF84FF055301F491B4A7C
:1006700091423CBF41F8040BFAE71D49184A9142E8
:100680003CBF41F8040BFAE71A491B4A1B4B9A423C
:100690003EBF51F8040B42F8040BF8E7002018495C
:1006A000184A91423CBF41F8040BFAE705F0ECF818
:1006B00006F02AF9144C154DAC4203DA54F8041B29
:1006C0008847F9E700F042F8114C124DAC4203DACA
:1006D00054F8041B8847F9E705F0D4B80006002059
:1006E000002200200000000808ED00E000000020CB
:1006F00000060020C873000800220020C822002045
:10070000C822002010690020E0020008E40200086E
:10071000E4020008E40200082DE9F04F2DED108AF4
:10072000C1F80CD0D0F80CD0BDEC108ABDE8F08F29
:10073000002383F311882846A047002004F034FBEF
:10074000FEE704F08DFA00DFFEE70000F8B504F0E4
:10075000E1FF074605F050F80546A0BB1F4B9F423E
:1007600031D001339F4231D027F0FF021C4B9A4217
:100770002FD12E4642F21074F8B200F077FE00F04E
:10078000FBFE08B10024264600F076FE08B90646B6
:10079000044635B1134B9F4203D0002405F024F8E2
:1007A0002646002004F0C0FF0EB100F063F801F00F
:1007B00039FA00F005FF01F0EDF8204600F004F9E9
:1007C00000F058F8F9E72E460024D8E70446012641
:1007D000D5E7064641F28834D1E700BF010007B0F3
:1007E000000008B0263A09B008B501F0A5F8A0F15C
:1007F00020035842584108BD07B541F212030221B7
:1008000001A8ADF8043001F0B5F803B05DF804FBC1
:10081000302310B583F31188124803680BB104F03C
:1008200099FB0023104A4FF47A710E4804F088FBBC
:10083000002383F311880D4C236813B12368013B17
:100840002360636813B16368013B6360084B1B78E6
:1008500033B9636823B9022001F066F9322363607B
:1008600010BD00BFC822002011080008E8230020A6
:10087000E0220020F8B54C4B4C4A1C461968013167
:1008800000F0908004339342F8D16268484B9A425A
:1008900040F28880474B9B6803F1006303F5802397
:1008A0009A427FD204F074FF04F086FF002001F02A
:1008B00097F80220404B187001F034F93F4B0021AB
:1008C0009A6C99641A6F19671A6FDA6CD9645A6F47
:1008D00059675A6F1A6D19659A6F99679B6F384BF4
:1008E000D3F8802042F00062C3F88020D3F8802043
:1008F00022F00062C3F88020D3F88020D3F8802053
:1009000042F00072C3F88020D3F8802022F00072F9
:10091000C3F88020D3F8803072B64FF0E023C3F8DC
:10092000084DD4E90004BFF34F8FBFF36F8F254A02
:10093000C2F88410BFF34F8F536923F4803353619F
:10094000BFF34F8FD2F8803043F6E076C3F3C9058A
:10095000C3F34E335B0103EA060C29464CEA817768
:100960000139C2F87472F9D2203B13F1200FF2D191
:10097000BFF34F8FBFF36F8FBFF34F8FBFF36F8FF7
:10098000536923F4003353610023C2F85032BFF39C
:100990004F8FBFF36F8F302383F31188854680F329
:1009A00008882047F8BD00BF0000040820000408A4
:1009B000FFFF030800220020E0220020004502582B
:1009C0000044025800ED00E02DE9F04F93B0AC4B2D
:1009D0002022FF2100900AA89D6801F0CDF8A94AC5
:1009E0001378A3B90121A84811700360302383F361
:1009F000118803680BB104F0ADFA0023A34A4FF449
:100A00007A71A14804F09CFA002383F31188009BBB
:100A10009F4A03B1136000239E49009C98469B4661
:100A20001E469A460B705360012001F07BF824B1FA
:100A3000974B1B68002B00F01C82002000F07CFF0D
:100A40000390039B002B01DA00F000FE039B002BB8
:100A5000EDDB012001F064F8039B213B162BE3D86A
:100A600001A252F823F000BFC50A0008ED0A0008F1
:100A7000810B0008290A0008290A0008290A000831
:100A8000150C0008E70D0008010D0008630D0008B3
:100A90008B0D0008B10D0008290A0008C30D0008DD
:100AA000290A0008350E0008650B0008290A00080D
:100AB000790E0008D10A0008650B0008290A000811
:100AC000630D00080220FFF78FFE002840F0FB8135
:100AD000009B022105A8B8F1000F08BF1C4641F297
:100AE0001233ADF8143000F045FF9DE74FF47A70F3
:100AF00000F022FF071EEBDB0220FFF775FE002847
:100B0000E6D0013F052F00F2E081DFE807F0030A9D
:100B10000D1013360523042105A8059300F02AFFC4
:100B200017E004215648F9E704215B48F6E7042161
:100B30005A48F3E74FF01C09484609F1040900F050
:100B400051FF0421059005A800F014FFB9F12C0F06
:100B5000F2D101204FF0000A00FA07F747EA0B0B29
:100B60005FFA8BFB01F054F826B10BF00B030B2B53
:100B700008BF0024FFF740FE56E704214848CDE7B0
:100B8000002EA5D00BF00B030B2BA1D10220FFF7F9
:100B90002BFE074600289BD001203E4E00F020FF90
:100BA0004FF000080220307000F0BCFF5FFA88F9B7
:100BB000484600F025FF044690B1484608F1010878
:100BC00000F02EFF0028F1D1B846044641F212137E
:100BD000022105A83E46ADF8143000F0CBFE23E715
:100BE000012325460220337000F09AFF244B9B68B6
:100BF000AB4207D9284600F0F5FE013040F068818D
:100C00000435F3E70025234BB8463E461D70204BC4
:100C10005D60A7E7002E3FF45BAF0BF00B030B2BDF
:100C20007FF456AF02201B4B187000F07BFF322080
:100C300000F082FEB0F10009FFF64AAF19F0030799
:100C40007FF446AF0E4A09EB0503926893423FF6E4
:100C50003FAFB9F5807F3FF73BAF124BB9450193EA
:100C600022DD4FF47A7000F067FE0390039A002AA9
:100C7000FFF62EAF039A0137019B03F8012BEDE736
:100C800000220020E4230020C822002011080008D0
:100C9000E8230020E0220020042200200822002077
:100CA0000C220020E4220020C820FFF79DFD07460B
:100CB00000283FF40DAF1F2D11D8C5F120020AAB5B
:100CC00025F0030084494A45184428BF4A4601924A
:100CD00000F02CFF019AFF217F4800F04DFF4FEA02
:100CE000A903C9F387027C492846019300F04CFF11
:100CF000064600283FF46AAF019B05EB830531E708
:100D00000220FFF771FD00283FF4E2AE00F0A4FEE0
:100D100000283FF4DDAE0027B946704B9B68BB420C
:100D200018D91F2F11D80A9B01330ED027F00303C7
:100D300012AA134453F8203C05934846042205A9FF
:100D4000043701F093F88146E7E7384600F04AFEA1
:100D50000590F2E7CDF81490042105A800F00AFEF2
:100D600000E70023642104A8049300F0F9FD0028A3
:100D70007FF4AEAE0220FFF737FD00283FF4A8AEA7
:100D8000049800F05FFE0590E6E70023642104A8C4
:100D9000049300F0E5FD00287FF49AAE0220FFF7EF
:100DA00023FD00283FF494AE049800F04DFEEAE7DE
:100DB0000220FFF719FD00283FF48AAE00F05CFE28
:100DC000E1E70220FFF710FD00283FF481AE05A9FE
:100DD000142000F057FE07460421049004A800F0F8
:100DE000C9FD3946B9E7322000F0A6FD071EFFF61F
:100DF0006FAEBB077FF46CAE384A07EB0A0392680C
:100E000093423FF665AE0220FFF7EEFC00283FF468
:100E10005FAE27F003075744BA453FF4A3AE5046F0
:100E20000AF1040A00F0DEFD0421059005A800F097
:100E3000A1FDF1E74FF47A70FFF7D6FC00283FF4EC
:100E400047AE00F009FE002844D00A9B01330BD0C6
:100E500008220AA9002000F097FE00283AD020229C
:100E6000FF210AA800F088FEFFF7C6FC1C4803F02B
:100E7000A1FF13B0BDE8F08F002E3FF429AE0BF0B8
:100E80000B030B2B7FF424AE0023642105A80593EC
:100E900000F066FD074600287FF41AAE0220FFF737
:100EA000A3FC814600283FF413AEFFF7A5FC41F2F6
:100EB000883003F07FFF059800F0DEFE4E463C468A
:100EC00000F0A6FEB0E506464CE64FF0000AFFE54E
:100ED000B8467BE6374679E6E4220020002200206F
:100EE000A0860100094A49F26900136899B21B0CF7
:100EF00000FB013344F250611360054B186882B265
:100F0000000C01FB0200186080B270471422002020
:100F1000102200200021102210B5044600F02CFE03
:100F2000034B03CB206061601868A06010BD00BF58
:100F300000E8F11F2DE9F041ADF54E7D0D46002191
:100F400040F275126CAC07460EA80D9100F014FE2D
:100F50004FF4C4720021204600F00EFE0DF134085B
:100F600002F00EF94FF47A72264BB0FBF2F01860E3
:100F700093E80700012384E807000DF5E970238258
:100F8000FFF7C8FF40F604531F4907A8238405F064
:100F9000DBFF15230DF2E3220DF12C0C84F8323126
:100FA00007AB1E46083203CE664542F8080C42F8ED
:100FB000041C3346F5D13068414610602046337931
:100FC0001371012200F05AFE002380B2E97E0393E0
:100FD000AB7E029305F1190301930123009307A34C
:100FE000D3E90023CDE90480384602F089FC0DF5F1
:100FF0004E7DBDE8F08100BFAFF300809E6AC42142
:10100000818A46EEF0230020586F00082DE9F04356
:10101000224DBBB002F0B4F840F2ED22AB68C31A27
:10102000934232D906AF2B4628220021A8603846C9
:1010300002F016FE05F10E0000F096FD00260446B3
:101040005FFA80F905F10E08F3B2F100994501F15C
:10105000280107D908EB060308223846013602F0BA
:10106000FFFDF1E7082301220534297B0C48A4B2D7
:10107000CDE902320B4B01933023CDE90474009388
:1010800004A3D3E9002302F03BFC3BB0BDE8F083AE
:10109000AFF3008078F6339F93CACD8DE8480020E7
:1010A00008340020F5480020F0B58B8AC9B0064608
:1010B0000C46013B9BB2C92B47D8274D2F7B27BB42
:1010C00005F10C030822394600933B46204602F006
:1010D0008BFC7B1CFAB2D9001F46A38A013B9A42C3
:1010E00005DA0E3200232A4400920822EEE700239C
:1010F0000022C5E900230023AB6085F8D730C5F88E
:10110000D8302B7B0BB9E37E2B7306AD81220021F7
:1011100027A800F031FD0122294627A800F07AFE19
:10112000002380B2E17E0393A37E029304F11903AE
:1011300001932823CDE904500093304604A3D3E95A
:10114000002302F0DDFBFFF761FF49B0F0BD00BFF7
:1011500026417272DF25D7B7E848002070B50D46EA
:1011600014461E4602F028FB50B9022E10D1012C65
:101170000ED112A3D3E900230120C5E9002307E023
:10118000282C10D005D8012C09D0052C0FD0002018
:1011900070BD302CFBD10BA3D3E90023ECE70BA3EC
:1011A000D3E90023E8E70BA3D3E90023E4E70BA38B
:1011B000D3E90023E0E700BFAFF30080401DA1208A
:1011C00026812A0B78F6339F93CACD8D9E6AC4215F
:1011D000818A46EE26417272DF25D7B7F017304A72
:1011E00039059E562DE9F04F8DB080460D4602AF71
:1011F00002F0E2FA044600285BD12B7E022B1BD1C1
:10120000EB8A012B18D101F0BBFF0646FFF76AFEFF
:1012100003464FF4C87006F51676DFF81492B3FB58
:10122000F0F202FB103316FA83F3C9F80030EB7EBC
:1012300033B97A4B00221A702C37BD46BDE8F08FC7
:10124000AB8AE6B20134013BB3420CD907F1080383
:10125000E100082228461E4401F0F8010023009610
:1012600002F0C2FBECE707F11800FFF753FE32462D
:1012700007F1180107F1080005F034FE0028D8D165
:101280000F2E08D8654B1E70D9F80030A3F51673E1
:10129000C9F80030D0E7FB1DF87101460722009322
:1012A0000346284602F0A0FBF979404602F07CFA9A
:1012B000C2E7EB8A282B26D010D8012B1ED0052B95
:1012C000BAD1BFF34F8F5649564BCA6802F4E06259
:1012D0001343CB60BFF34F8F00BFFDE7302BABD183
:1012E0006B7EE946504C0133627BDBB2934203D103
:1012F000EA7E237B9A420BD0CD469DE729464046A5
:10130000FFF718FE98E729464046FFF7CDFE93E722
:101310004FF0000807F1180310222846A7F818809C
:1013200041460093012302F05FFBAE8A023EB6B253
:10133000F31C9B109B000733DB08A9EBC3039D46FE
:101340000DF1080A1FFA88F34FEAC8019E4201F125
:1013500010010AD90AEB08030822284608F10108FF
:101360000093002302F040FBECE794F8D70000F074
:1013700047FBD4F8D83005461BB994F8D70000F0E5
:101380004FFBD4F8D83033449D4204D294F8D700B0
:10139000013000F045FB4FEA960B4FF000081FFAB2
:1013A00088F18B45D4E9003209D90AEB8801012282
:1013B00003EB880008F1010800F0E6FBEFE7F31803
:1013C00094F8D70042F10002C4E90032D4F8D830D2
:1013D00006EB0308C4F8D88000F012FB804509D35F
:1013E00094F8D730D4F8D8000133401B84F8D730B4
:1013F000C4F8D800FF2E0D4D09D80023237300F048
:101400002BFB00F049FD288108B9FFF733FA236868
:101410009B0A01332B810023A3606DE70134002078
:1014200000ED00E00400FA05E8480020F023002069
:10143000043400200A4B0B4A10B51A6003F58053A0
:1014400093F848203AB95C6C2CB1204600F0A2FD1C
:10145000204605F02FFD0448BDE8104000F09ABD7D
:10146000383400207470000868440020014B187064
:10147000704700BFFC230020334BF0B51C7B85B0C8
:1014800034B1324B0E221A810024204605B0F0BD43
:101490002F4A02AB1068516803C308232D492E4818
:1014A0000DEB030205F02EFD054630B9274B0A224D
:1014B0002A481A8101F034FEE6E70169B1F5E01F20
:1014C00006D9224B0B2226481A8101F029FEDCE7BF
:1014D000438B40F20D42934207D01C490C200881F7
:1014E0001946204801F01CFECFE71F4A024402F1D2
:1014F0001003994204D2154B10221C481A81E4E7CC
:10150000103920468E1A144900F0B0FC05F118017C
:1015100007463246204600F0A9FCAB68BB4202D128
:10152000EB6883420AD0094B0D221A813B4600909A
:101530000F48D5E9021201F0F3FDA5E70D4801249B
:1015400001F0EEFDA1E700BFE8480020F0230020F5
:1015500001700008DCFF1B0000000408706F000829
:101560007C6F00088E6F00080800FCF7AC6F000865
:10157000C96F0008F26F000810B54FF040540C4BD3
:1015800022689A4212D1627D0A4B0B481A70C92216
:10159000237D0E30094900F8023C00F0C7FAE02232
:1015A0000021204600F0E8FA012010BD0020FCE7F1
:1015B0009AAD44C5FC230020E84800201600003006
:1015C00037B50223184D002218496B7101231848C2
:1015D00001F0BEF9002317494FF480520193164BD6
:1015E00016480093164B02F0B7F8164B197811B154
:1015F000124802F0D9F801F0C3FD0446FFF772FC6F
:101600004FF4C873B0FBF3F202FB130304F516703A
:1016100010FA83F00C4B186004F0EEF808B10F23B9
:101620002B8103B030BD00BFF023002040420F00EB
:1016300038340020002400205D1100080834002008
:10164000E5110008FC230020043400202DE9F04FB0
:10165000924C2DED028B8BA7D7E9006795B00FF266
:101660002C29D9E90089DFF84CA2DFF84CB22046DA
:1016700002F072F9034650B300251095ADF84C50B6
:10168000CDE91155027B8DF84C2011AA996840686C
:1016900003C21B6843F00043109301F073FD10EB8D
:1016A0000A020095584641F1000310A900F0F6FD2A
:1016B000A8427B4A05DD204602F052F9784A1570AF
:1016C000D5E71378072B00F2B9800133137000239C
:1016D0000DADDFF8E4B10C93ADF83C300D936B60C9
:1016E0009FED6C8B00234FF0010A0DF1250209A933
:1016F00058468DF825308DF824A08DED008B01F033
:10170000A3FC9DF824200023002A40F09B80204663
:1017100002F052F80546002847D1DFF8A0B101F0E9
:101720002FFDDBF8003098423FD301F029FD0790F0
:10173000FFF7D8FB4FF4C873079AB0FBF3F102F53B
:10174000167201FB130310A812FA83F3CBF80030D2
:10175000DFF86CB19BF80010002914BF2B465346EC
:1017600007918DF83030FFF7D5FB079910AB0DF1DD
:101770003100C1F110021944D2B2062A28BF062254
:10178000079200F0D3F9079A0CAB2046039301327D
:101790001823D2B20293434B04923246CDE900A300
:1017A0003B4602F04FF88BF8005001F0E9FC3E4A4E
:1017B0003E4D1368C31AB3F57A7F32D3106001F03F
:1017C000E1FC02460B46204602F0D4F8204601F028
:1017D000F3FF30B32B7B0DF1400BDFF8E8A0002BBB
:1017E00014BF032302238AF8053001F0C9FC4FF42B
:1017F0007A7301225946B0FBF3F0CAF80000504654
:1018000000F0E0FA182380B242460293284B01937D
:1018100040F25513CDE903B0009320464B4602F049
:1018200011F82B7B2BB1FFF7F1FB2B7B002B7FF407
:101830001AAF15B0BDEC028BBDE8F08F204602F068
:101840008FF844E71946102210A800F095F90DF121
:1018500026030AAA0CA9584600F028FF11AB95E808
:10186000030083E803009DF83C3010A920468DF862
:101870004C300C9B1093DDE90A2302F04FFA31E75C
:10188000AFF30080401DA12026812A0BF1C6A7C11D
:10189000D068080F0000000000000000083400209D
:1018A000CD49002000340020C8490020E84800202D
:1018B000CC49002040420F0038340020043400207E
:1018C00001340020F023002008B5054800F094FF03
:1018D000044A05490020BDE8084005F0E5BA00BF0C
:1018E000383400200C4A0020351400080F4B70B526
:1018F0001B780C460133DBB2012B11D80C4D4FF491
:101900007A732968A2FB033222460E6A01462846F2
:10191000B047844204D1074B002201201A7070BDE9
:101920004FF4FA7003F046FA0020F8E7182200207E
:10193000804C0020FC490020002307B5024601210D
:101940000DF107008DF80730FFF7D0FF20B19DF8AB
:10195000070003B05DF804FB4FF0FF30F9E700002B
:101960000A46042108B5FFF7C1FF80F00100C0B2AC
:10197000404208BD30B4054C0A4601462368204663
:10198000DD69034BAC4630BC604700BF804C002093
:10199000A086010070B5104C0025104E03F030FDFC
:1019A00020803068238883420CD8002520880138A5
:1019B00003F022FD23880544013BB5F5802F2380E9
:1019C000F4D370BD03F018FD336805440133B5F559
:1019D000802F3360E5D3E8E7FE490020D04900209E
:1019E00003F0ECBD00F1006000F580200068704756
:1019F00000F10060920000F5802003F063BD00005C
:101A0000054B1A68054B1B889B1A834202D9104468
:101A100003F0F2BC00207047D0490020FE490020AE
:101A200038B5074D04462868204403F0EBFC28B97C
:101A300028682044BDE8384003F0F6BC38BD00BF3C
:101A4000D04900200020704700F1FF5000F58F10B2
:101A5000D0F8000870470000064991F8243033B1EF
:101A600000230822086A81F82430FFF7C1BF012053
:101A7000704700BFD4490020014B1868704700BF71
:101A80000010005C244BF0B51A680446234BC2F3E7
:101A90000B06120C1F885868BE4293F9085028D0D4
:101AA0009F89BE4206D101200C2505FB00335868F2
:101AB00093F9085041F201039A421CD041F203030A
:101AC0009A421AD042F201039A4218D042F203031A
:101AD0009A4208BF5625621E0B46441E0A44934292
:101AE0000FD214F9016F581C6EB1034600F8016C57
:101AF000F5E70020D8E75A25EDE75925EBE758250B
:101B0000E9E7184605E02C2482421C7001D9981C94
:101B10005D70401AF0BD00BF0010005C1C22002068
:101B2000704700007047000070470000002310B5A8
:101B3000934203D0CC5CC4540133F9E710BD0000DC
:101B4000013810B510F9013F3BB191F900409C42BA
:101B500003D11AB10131013AF4E71AB191F9002029
:101B6000981A10BD1046FCE703460246D01A12F937
:101B7000011B0029FAD1704702440346934202D068
:101B800003F8011BFAE770472DE9F8431F4D14468F
:101B90000746884695F8242052BBDFF870909CB326
:101BA00095F824302BB92022FF2148462F62FFF7F9
:101BB000E3FF95F824004146C0F1080205EB8000E0
:101BC000A24228BF2246D6B29200FFF7AFFF95F897
:101BD0002430A41B17441E449044E4B2F6B2082EED
:101BE00085F82460DBD1FFF737FF0028D7D108E064
:101BF0002B6A03EB82038342CFD0FFF72DFF00282F
:101C0000CBD10020BDE8F8830120FBE7D4490020B8
:101C1000024B1A78024B1A70704700BFFC49002033
:101C20001822002010B5104C104802F089FB214604
:101C30000E4802F0B1FB24680D48D4F89020D2F889
:101C4000043843F00203C2F8043803F0B3F809493A
:101C5000204602F0AFFCD4F89020D2F8043823F0EC
:101C60000203C2F8043810BD60710008804C0020E7
:101C700040420F0068710008704700002DE9F047EE
:101C80000D46044600219046284640F27912FFF79F
:101C900073FF234620220021284604F1220701F089
:101CA000DFFF231D022220212846C02601F0D8FF95
:101CB000631D03222221284601F0D2FFA31D032227
:101CC0002521284601F0CCFF04F108031022282129
:101CD000284601F0C5FF04F11003082238212846E8
:101CE00001F0BEFF04F1110308224021284601F053
:101CF000B7FF04F1120308224821284601F0B0FF83
:101D000004F1140320225021284601F0A9FF04F118
:101D1000180340227021284601F0A2FF04F120039D
:101D20000822B021284601F09BFF04F1210308227C
:101D3000B821284601F094FF314608363B46082278
:101D40002846013701F08CFFB6F5A07FF4D10027BB
:101D500004F1330A04F1320308223146284601F027
:101D60007FFF94F832304FEAC7099F4209F5A47605
:101D700015D3B8F1000F08D1314609F24F1604F51A
:101D800099730722284601F06BFF27463B1B94F806
:101D9000322193420CD3F01DC008BDE8F0870AEB56
:101DA0000703082231462846013701F059FFD8E7DA
:101DB00007F233133146082228460836013701F06E
:101DC0004FFFE3E713B504460846002120222346CF
:101DD00001900160C0F8031001F042FF231D01983B
:101DE0000222202101F03CFF631D019803222221E1
:101DF00001F036FFA31D01980322252101F030FFD9
:101E0000019804F108031022282101F029FF07207E
:101E100002B010BDF8B50E460546144600218122D9
:101E20003046FFF7A9FE2B4608220021304601F07C
:101E300017FF7CB90F246B1C07220821304601F0E4
:101E40000FFF01235F1C6A78013B934204D3E01D1E
:101E5000C008F8BD0824F4E7EB19214608223046F3
:101E600001F0FEFE08343B46ECE7000030B50A44C2
:101E7000084D91420DD011F8013B5840082340F322
:101E80000004013B2C4013F0FF0384EA5000F6D11C
:101E9000EFE730BD2083B8EDF7B5384A6B461068E0
:101EA00051686A4603C308233549364805F02AF8C5
:101EB0000446002833D10A25334A6B46106851681E
:101EC0006A4603C3082331492E4805F01BF804462F
:101ED000002849D00369B3F5E01F45D8B0F8661073
:101EE00040F20D4291423FD1294A024402F15C0185
:101EF0008B4239D35C3B234900209E1AFFF7B6FF83
:101F000004F16401074632460020FFF7AFFFA368E3
:101F10009F4229D1E368984208BF002524E0036965
:101F2000B3F5E01F27D8418B40F20D42914220D1FA
:101F3000174A024402F110018B4218D3103B114999
:101F400000209D1AFFF792FF04F1180106462A4669
:101F50000020FFF78BFFA3689E4202D1E3689842FE
:101F600001D00D25A8E70025284603B0F0BD1025B7
:101F7000A2E70C25A0E70B259EE700BF0170000833
:101F8000DCFF1B00000004082870000890FF1B0005
:101F90000800FCF710B5037C044613B9006804F090
:101FA00099FF204610BD00000023BFF35B8FC36084
:101FB000BFF35B8FBFF35B8F8360BFF35B8F7047B3
:101FC000BFF35B8F0068BFF35B8F704770B505464A
:101FD0000C30FFF7F5FF044605F108063046FFF721
:101FE000EFFFA04206D96D683046FFF7E9FF2544B0
:101FF000281A70BD3046FFF7E3FF201AF9E700000A
:1020000070B505464068A0B105F10C0605F1080061
:10201000FFF7D6FF04463046FFF7D2FF844204F1B3
:10202000FF34304694BF6D680025FFF7C9FF2C448C
:10203000201A70BD38B50C460546FFF7C7FFA04211
:1020400010D305F10800FFF7BBFF04446868BFF335
:102050005B8FB4FBF0F100FB11440120AC60BFF3D7
:102060005B8F38BD0020FCE72DE9F04114460746A0
:102070000D46FFF7C5FF844228BF0446D4B1B846D9
:1020800058F80C6B4046FFF79BFF304428604046F1
:102090007E68FFF795FF331A9C4203D801206C60DD
:1020A000BDE8F081A41B6B603B682044AB60E86036
:1020B0000220F5E72046F3E738B50C460546FFF762
:1020C0009FFFA04210D305F10C00FFF779FF0444F5
:1020D0006868BFF35B8FB4FBF0F100FB1144012093
:1020E000EC60BFF35B8F38BD0020FCE72DE9FF41BA
:1020F0008846694607466C46FFF7B6FF002506B2DC
:1021000004EBC606B4420AD0626808EB05012068F9
:102110000834FFF70BFD54F8043C1D44F2E7294650
:102120003846FFF7C9FF284604B0BDE8F08100003B
:10213000F8B505460C300F46FFF742FF05F10806DB
:1021400004463046FFF73CFFA042304688BF6C682B
:10215000FFF736FF201A386020B12C683046FFF7B1
:102160002FFF2044F8BD000073B5144606460D4607
:10217000FFF72CFF8442019028BF0446DCB101A97F
:102180003046FFF7D5FF019B33B93268C5E902330A
:10219000C5E9002401200CE09C42286038BF01946E
:1021A000019884426860F5D93368241A0220AB6034
:1021B000EC6002B070BD2046FBE700002DE9FF4156
:1021C0000F4669466C46FFF7CFFF00B2002604EBCE
:1021D000C005AC4209D0D4F80480B81954F8081BE3
:1021E00042464644FFF7A2FCF3E7304604B0BDE8A0
:1021F000F081000038B50546FFF7E0FF04460146D0
:102200002846FFF717FF204638BD0000302383F330
:10221000118862B670470000002383F3118862B60C
:1022200070470000012070477047000010B413464B
:10223000026814680022A4465DF8044B6047000061
:1022400000F5805090F859047047000000F5805068
:1022500090F852047047000000F5805090F958043F
:10226000704700004E20704700F5805208B5FFF718
:10227000CDFFD2F89834D2F894041844D2F89034B0
:102280001844D2F878341844D2F888341844D2F874
:1022900084341844FFF7C0FF08BD00002DE9F04F5B
:1022A0000C4600F5805185B01F4691F85234054622
:1022B0009046BDF838909BB1D1F874340133C1F821
:1022C000743423689A0006D4237B082B0BD9627BD5
:1022D0000AB10F2B07D9D1F878340133C1F878341B
:1022E0004FF0FF300FE0FFF791FFEB6AD3F8C42007
:1022F00012F4001A0AD0D1F87C3400200133C1F85E
:102300007C34FFF789FF05B0BDE8F08F22684FF0FD
:10231000480BD3F8C460002A6B6AC6F30446B4BF06
:1023200042F0804292041BFB063BCBF8002023685E
:102330005B004FEA066344BF42F00052CBF8002036
:10234000227B43EA02437201CBF80430607B18B36E
:1023500043F44013CBF80430D1F8A4340133C1F86E
:10236000A434AB1803F58353197B41F02001197392
:10237000207B039200F062FF0330039A80105FFA23
:102380008AF30AF1010A83420DDA04EB83010BEBB5
:10239000830349689960F2E7AB1803F58353197B0F
:1023A00060F34511E3E70121EB6A04F10C00B14051
:1023B000C3F8D010AB18214603F58253C3E9048754
:1023C00005EB461303F58253183351F804CB8142D1
:1023D00043F804CBF9D109882A442846198041F2F0
:1023E0006803D65002F5805209F0030392F86C108E
:1023F00043F0100321F01F010B43214682F86C309B
:102400004246FFF709FF3B46CDF8009000F0DCFEA6
:10241000012078E72DE9F04700F58056044696F84C
:102420005254002D40F00181037C032B40F0928038
:102430002B4628462F465FFA83FC944510DA01EBC1
:10244000CC0E51F83CC0BCF1000F04DBDEF804C038
:10245000BCF1000F02DB01370133ECE70130FBE791
:10246000FFF7D4FEE36AF0B9D3F8800040F0020031
:10247000C3F880004E23E06A002F6ED1D0F8803080
:1024800043F00103C0F88030694B6A4A1B6803F1CE
:10249000805303F52C539B009342A36240F2AF801C
:1024A000654800F067FE4D2842D8DFF884814FEA86
:1024B000004EDFF88891D8F800C04EEA8C0EC3F8C1
:1024C00084E00CF1805303F52C539B00636100EB17
:1024D0000C03D4F82CC0C8F80030C0F14E03DCF86F
:1024E000800040F03000CCF880004FF0000CD4F8B1
:1024F0001480E6465FFA8CF08242BCDD01EBC00A34
:1025000051F83000002810DBDAF804A0BAF1000F0F
:102510000BDA09EA00400AF07F0A40EA0A0040F0BC
:10252000084048F82E000EF1010E0CF1010CE1E715
:102530009A6922F001029A6100F022FE0646E36ADF
:102540009B69D90704D500F01BFE831BFA2BF6D933
:10255000FFF762FE2846BDE8F087B7EB530F3DD288
:10256000DFF8CCE04FEA074CDEF800304CEA830C91
:10257000C0F888C003F1805003EB4703002700F543
:102580002C50CEF80030BC468000A061E06AD0F844
:10259000803043F00C03C0F88030D4F818E0FBB270
:1025A0009A427FF771AF51F8330001EBC30800285E
:1025B000D8F8043001DB002B0EDB20F0604023F064
:1025C000604340F0005043F000434EF83C000EEBF7
:1025D000CC000CF1010C43600137E0E7836923F084
:1025E0000103836100F0CCFD0646E36A9B69DA07CC
:1025F000AED500F0C5FD831BFA2BF6D9A8E7E26A39
:10260000936923F00103936100F0BAFD0746E36A82
:102610009B69DB0705D500F0B3FDC31BFA2BF6D988
:1026200096E7012586F8525492E7002592E700BF0D
:10263000084A0020FCB50040347000080000FF0785
:1026400013B500F580540191606CFFF7D9FC1F2889
:102650000AD920220199606CFFF748FDA0F1200300
:102660005842584102B010BD0020FBE700F58050F1
:1026700008B5FFF7CBFD406CFFF796FCBDE80840BE
:10268000FFF7CABD0022026082814260826070470B
:102690000022002310B5C0E90023002304460C30BB
:1026A00020F8043CFFF7EEFF204610BD2DE9F0476F
:1026B000074688B09A46884607F580546846914692
:1026C000FFF7A4FDFFF7E4FF606CFFF77FFC1F2816
:1026D0002DD920226946606CFFF78CFD202826D179
:1026E00094F852341BB303AD444605AB2E46083470
:1026F00003CE9E4244F8080C44F8041C3546F5D13C
:102700003068414620603846B388A380DDE9002365
:10271000C9E90023BDF808304A46AAF80030FFF79F
:102720007BFD534608B0BDE8F04700F03BBD0020FC
:10273000FFF772FD08B0BDE8F08700002DE9F84F03
:102740000023064600F58154054688461034C0E94A
:102750000133264B46F8303B374638462037FFF7E3
:1027600097FFA742F9D105F580544FF4805305F542
:10277000A3594FF0000A26630026676405F58357C6
:1027800009F110094FF0000B1037E663C4E90D366C
:10279000012384F8403084F84830A7F1180020372E
:1027A00047E910ABFFF76EFF47F8286C4F45F4D1AF
:1027B00084F85884A4F85A64A4F85C64A4F85E64AD
:1027C00084F86064A4F86264A4F86464A4F866649D
:1027D00084F86864B8F1000F02D0054800F0CAFC24
:1027E000044B2846EB62BDE8F88F00BF7470000808
:1027F0005870000800A00040044B10B5197804463A
:102800004A1C1A70FFF79AFF204610BD054A0020A7
:102810002DE9F04700295FD0304F3148B7FBF1F583
:1028200081428CBF0A201120431EB5FBF0FC00FB47
:102830001C50DCB220B1022B1846F5D8002037E03E
:102840000CF1FF35B5F5806F32D2C4EBC4094FF4FB
:102850007A7009F103034FEAE308C3F3C70308F1F1
:10286000010AA4EB030E08FB00085FFA8EF65AFA81
:102870008EFEB8FBFEFEBEF5617F1BDC1FFA8EF4F8
:10288000581C56FA80F00CFB00FCB7FBFCFC6145C1
:10289000D4D1013BDBB20F2BD0D8711E0020C9B2BE
:1028A000072905D81071012014805580537191714A
:1028B000BDE8F08709F1FF334FEAE30EC3F3C70326
:1028C0000EF10108E41A0EFB0000E6B258FA84F497
:1028D000B0FBF4F4A4B2D3E70846E9E700B4C404BB
:1028E0003F420F0038B540F27772C36A154CC3F807
:1028F000BC200722C36AC3F8C8202268C16A9300BB
:1029000043F4C023C1F8A03002F1805302F16C01FE
:10291000C56A03F52C53EA3289009B00226041F01E
:10292000E061094AC361C5F8C01003F5D87103F529
:102930006A7341629342836202D9044800F01AFC30
:1029400038BD00BF084A0020FCB5004034700008C4
:102950002DE9F04F00F58055994689B0044695F869
:1029600058348A469046012B04D90027384609B0CE
:10297000BDE8F08F934A52F8231009B942F82300BA
:102980009149C4F80CA00B7884F81090C3B9FFF7F4
:102990003DFC8E4BD3F8EC2042F48072C3F8EC205F
:1029A000D3F8942042F48072C3F89420D3F8942092
:1029B00022F48072C3F8942001230B70FFF72CFCE3
:1029C00095F8513473B903211320FFF71FFC01F070
:1029D00025FC0321152001F021FC012385F8513449
:1029E000FFF71AFCFFF712FCE26A936923F0100369
:1029F000936100F0C5FB0746E36A9E6916F008067E
:102A000007D000F0BDFBC31BFA2BF5D9FFF704FC80
:102A1000ABE79A6942F001029A6100F0B1FB074608
:102A2000E36A9A69D00705D400F0AAFBC31BFA2B0E
:102A3000F6D9EBE79A69002704F5825B42F00202BF
:102A40000BF1100B9A61E36A5F65FFF7E5FB686CB9
:102A5000FFF7AAFA202200216846FFF78DF802A8A6
:102A6000FFF710FE6A460BEB06030DF1180E0697F2
:102A700094460833BCE80300F44543F8080C43F8D7
:102A8000041C6246F4D1DCF8000020361860B6F56C
:102A9000806F9CF804201A71DCD1002304F5A25247
:102AA000514620461A3285F8503485F85334FFF7E2
:102AB000AFFE074690B9E26A936923F00103936180
:102AC00000F05EFB0546E36A9B69D9077FF54DAFD1
:102AD00000F056FB431BFA2BF5D946E795F85F64E7
:102AE00095F85E243602C5F86CA4E36A46EA4266AD
:102AF00095F860241643B5F85C2446EA0246DE6188
:102B0000B8F1000F29D004F5A35241462046023205
:102B1000FFF77EFE90B9E26A936923F001039361A7
:102B200000F02EFB0546E36A9B69DA077FF51DAFCF
:102B300000F026FB431BFA2BF5D916E795F868340D
:102B400095F867141B01C5F87084E26A43EA012313
:102B5000B5F8641443EA0143D360E36A00262046D3
:102B6000C3F8BC60FFF7BEFE85F859646FF04042C1
:102B7000E36A1A65164AE36A5A654FF00222E36A6D
:102B80009A654FF0FF32E36AC3F8E0200322E36A5C
:102B90009145DA653FF4EAAEE26A936923F00103F6
:102BA000936100F0EDFA0646E36A9B69DB0705D501
:102BB00000F0E6FA831BFA2BF6D9D6E6012385F856
:102BC0005234D3E6004A0020044A00200044025850
:102BD000550200022DE9F04F054689B0904699460E
:102BE000002741F2680A00F58056EB6AD3F8D83026
:102BF000FB40D8074AD505EB47124FEA471B524422
:102C00001379190742D4D6F880340133C6F88034DA
:102C100013799A0605EB0B0248BFD6F8A834524444
:102C200044BF0133C6F8A834137943F00803137185
:102C3000DB0723D596F8533403B305F58254684671
:102C4000FFF726FD03AB18345C4404F1080C206840
:102C5000083454F8041C1A46644503C21346F6D1DE
:102C60002068694610602846A2889A800123ADF842
:102C700008302B68CDE90089DB6B9847D6F85434CF
:102C800023B1D6F89C340133C6F89C340137202F89
:102C9000ABD109B0BDE8F08F2DE9F04F0F468DB0F4
:102CA000044600F06FFA82468946002F5BD1E36A42
:102CB000D3F8A02012F4FE0F03D100200DB0BDE820
:102CC000F08FD3F8A420920141BF04F58051D1F8D0
:102CD00094240132C1F89424D3F8A4205606ECD0F1
:102CE000D3F8A450E669C5F305254823E8464FF01C
:102CF000000B03FB05664046FFF7C4FC3268510039
:102D00004ABF22F06043C2F38A4343F0004392007B
:102D100048BF43F080430093736813F400131BBF54
:102D2000012304F580528DF80D308DF80D301EBF53
:102D3000D2F8AC340133C2F8AC34F38803F00F039B
:102D40008DF80C309DF80C0000F078FA5FFA8BF3E8
:102D5000984225D9F2180CA90BF1010B127A0B44F9
:102D600003F82C2CEEE7012FA7D1E36AD3F8B020AB
:102D700012F4FE0FA1D0D3F8B420950141BF04F5A1
:102D80008051D1F894240132C1F89424D3F8B420AE
:102D9000500692D0D3F8B450266AC5F30525A4E7AF
:102DA000EFB9E36AC3F8A85004A807ADFFF770FCB9
:102DB00098E80F0007C52B800023204604A9ADF832
:102DC0001830236804F58054DB6BCDE904A99847DB
:102DD00058B1D4F88C340133C4F88C346EE7012F29
:102DE000E2D1E36AC3F8B850DEE7D4F890340120AA
:102DF0000133C4F8903461E7F8B505460F4600F595
:102E00008054012639462846FFF746FF10B184F862
:102E10005364F7E7D4F8543423B1D4F89C34013325
:102E2000C4F89C34F8BD0000C36AF0B51A6C12F403
:102E30007F0F2BD01B6C00F5805441F268054FF0DA
:102E4000010CC4F8A0340023471900EB43125E01C3
:102E50002A44117911F0020F15D0490713D4B9593A
:102E6000C66A0CFA01F1D6F8CCE011EA0E0F0AD0CE
:102E7000C6F8D410117941F004011171D4F88824F6
:102E80000132C4F888240133202BDED1F0BD0000CC
:102E900010B5264C264B22680AB340B31A6D920532
:102EA0000FD54FF400721A6500F06CF950EA010278
:102EB0000B4602D0013861F1000302462068FFF79B
:102EC00089FE1B4A136D9B012AD523684FF00071C0
:102ED00003F580531165012283F8592420E0012273
:102EE0001A6510221A654FF480521A6510BD196DCB
:102EF000C80702D4196D490705D505211046196583
:102F00000021FFF779FF0A4B1A6DD00602D41A6D23
:102F1000510605D5502201211A652068FFF76CFF84
:102F20002068BDE81040FFF77FBF00BF004A0020C7
:102F300000A0004008B5FFF769F9FFF775FFBDE88D
:102F40000840FFF769B90000C36AD3F8C00010F069
:102F50007C5005D0D3F8C40080F40010C0F340507A
:102F60007047000000F5805008B5FFF74FF9406C3E
:102F7000FFF72CF8FFF750F943090CBF01200020A0
:102F800008BD000000F5805393F8592462B1C16A6E
:102F90008A6922F001028A61D3F898240132C3F8C9
:102FA0009824002283F85924704700002DE9F74344
:102FB00000F5825198460025FFF728F9103141F2BB
:102FC000680E4FF0010900F5805C00EB4514744475
:102FD00023795E071CD4DB061AD58E69C36A09FA09
:102FE00006F6D3F8CC703E4212D04F6801970F68B6
:102FF0009742019F77EB08070AD2C3F8D460237980
:1030000043F004032371DCF884340133CCF88434B6
:1030100001352031202DD8D103B0BDE8F043FFF7B2
:10302000FBB80000F8B51E4600230F460546137096
:103030001446FFF797FF80F0010038701EB1284654
:10304000FFF782FF2070F8BD2DE9F04F85B099465B
:103050000D468046164691F800B0DDE90EA30293B6
:103060001378019300F08EF82B7804460F4613B9BD
:103070003378002B42D022463B464046FFF796FF6E
:10308000FFF758FFFFF77EFF4B4632462946FFF712
:10309000C9FF2B7833B1BBF1000F03D0012005B07D
:1030A000BDE8F08F337813B1019B002BF6D108F502
:1030B000805303935445029B77EB03031ED2039B7B
:1030C000D3F85404D0B10368AAEB0401DB6889B2D9
:1030D00098474B46324629464046FFF7A3FF2B78D8
:1030E00013B1BBF1000FD9D1337813B1019B002B81
:1030F000D4D100F047F804460F46DBE70020CEE7C6
:1031000008B50020FFF7C4FEBDE8084001F05CB838
:1031100008B50120FFF7BCFEBDE8084001F054B837
:103120000FB4002004B0704700B59BB0EFF30981E5
:1031300068226846FEF7FAFCEFF30583014B9B6BB0
:10314000FEE700BF00ED00E008B5FFF7EDFF00006F
:1031500000B59BB0EFF3098168226846FEF7E6FCF4
:10316000EFF30583014B5B6BFEE700BF00ED00E072
:10317000FEE700000FB408B5029801F0A7FDFEE7D6
:1031800002F068BA02F040BA02F03EBA13B56C46DB
:10319000031D84E8060094E8030083E8050001208D
:1031A00002B010BD73B58568019155B11B885B07EE
:1031B00007D4D0E900369B6B9847019AC1B23046DC
:1031C000A847012002B070BDF0B5866889B00546F9
:1031D0000C465EB1BDF838305B070AD4D0E9003741
:1031E0009B6B98472246C1B23846B047012009B0D0
:1031F000F0BD0022002301F10806CDE900230023E1
:103200000A46ADF8083003AB1068083252F8041CC7
:103210001C46B24203C42346F6D11068206092884F
:10322000A280FFF7B1FF0423ADF808302B68CDE989
:103230000001DB6B694628469847D7E7082817D96D
:1032400009280CD00A280CD00B280CD00C280CD044
:103250000D280CD00E2814BF4020302070470C20C1
:1032600070471020704714207047182070472020A6
:10327000704700002DE9F041456A15B94162BDE88B
:10328000F0814B68AC4623F06047C3F38A464FEAAF
:10329000D37EC3F3807816EA230638BF3E462B461A
:1032A0005A68BEEBD27F22F060440AD0002A18DAB6
:1032B000A40CB44217D19D420FD10D60DEE7134636
:1032C000EEE7A74207D102F08044C2F38072424584
:1032D0000BD054B1EFE708D2EDE7CCF800100B604B
:1032E000CDE7B44201D0B442E5D81A689C46002A22
:1032F000E5D11960C3E700002DE9F047089D01F012
:10330000070400EBD1004FF47F494FEAD50822446F
:1033100005F00705944201D1BDE8F08704F00707E6
:1033200005F0070A111B08EBD50E57453E4613F86A
:103330000EC038BF5646C6F108068E4228BF0E465C
:10334000E108415C34443544B94029FA06F721FAD2
:103350000AF1FFB28CEA010147FA0AF739408CEA18
:10336000010C03F80EC0D5E780EA0120082341F2E2
:10337000210201B2013B4000002980B2B8BF504099
:1033800013F0FF03F5D1704738B50C468D18A542F0
:1033900000D138BD14F8011BFFF7E6FFF7E7000086
:1033A00042684AB1136881894360438901339BB203
:1033B0009942438138BF83811046704770B588B009
:1033C000044620220D4668460021FEF7D5FB204624
:1033D0000495FFF7E5FF024660B16B46054608AE6F
:1033E0001C46083503CCB44245F8080C45F8041CCB
:1033F0002346F5D1104608B070BD0000082817D943
:1034000009280CD00A280CD00B280CD00C280CD082
:103410000D280CD00E2814BF4020302070470C20FF
:1034200070471020704714207047182070472020E4
:1034300070470000082817D90C280CD910280CD97F
:1034400014280CD918280CD920280CD930288CBF66
:103450000F200E207047092070470A2070470B206C
:1034600070470C2070470D20704700002DE9F8438D
:10347000078C0446072F1ED900254FF6FF73D0E9AD
:103480000298C5F12006A5F1200029FA05F10835BA
:1034900008FA06F628FA00F0314301431846C9B28B
:1034A000FFF762FF402D0346EBD13A46E169BDE8E4
:1034B000F843FFF769BF4FF6FF70BDE8F8830000DF
:1034C00010B54B6823B9CA8A63F30902CA8210BDDA
:1034D00004691A681C600361C38A013BC3824A60A5
:1034E000EFE700002DE9F84F1D46CB8A0F468146D5
:1034F000C3F30901924605290B4630D00020AAB239
:1035000007F11A049EB21FFA80F8042E0FD89045D6
:1035100003F1010306D30A44FB8A62F30903012085
:10352000FB821AE01AF800600130E654EAE79045A1
:10353000F1D2A1F1050B1C237C68BBFBF3F203FB6A
:1035400012BB1FFA8BF6002C45D14846FFF728FF27
:10355000044638B978606FF00200BDE8F88F4FF08C
:103560000008E6E7002606607860ADB24FF0000B79
:10357000454510D90AEB0803221D13F8011B08F179
:1035800001089155B1B21FFA88F81B292BD0454587
:1035900006F10106F1D8FB8AC3F30902154465F36D
:1035A0000903BCE701321C4692B22368002BF9D113
:1035B0006B1F0B441C21B3FBF1F301339BB29A4206
:1035C000D3D2BBF1000FD0D14846FFF7E9FE20B9B6
:1035D000C4F800B0BFE70122E7E7C0F800B05E46DC
:1035E00020600446C1E74545D5D94846FFF7D8FED7
:1035F00008B92060AFE7C0F800B00026206004469C
:10360000B6E700002DE9F04F1C46074688462DED31
:10361000028B83B05B690192002B00F09A80238CAF
:103620002BB1E269002A00F09480072B35D807F10E
:103630000C00FFF7B5FE054638B96FF002052846C5
:1036400003B0BDEC028BBDE8F08F14220021FEF721
:1036500093FA228CE16905F10800FEF767FA208CE5
:1036600048F00041013080B2FFF7E4FEFFF7C6FEEC
:10367000013880B220840130287438466369228C76
:103680001B782A4403F01F0363F03F031372696041
:103690002946FFF7EFFD0125D1E74FF0000900F1C2
:1036A0000C034FF0800A4E464D4608EE103A18EED5
:1036B000100AFFF775FE83460028BED014220021B1
:1036C000FEF75AFA002E3AD1019B0222ABF80830DD
:1036D0000BF1080E1FFA82FC218C0CF10100BCF1E9
:1036E000060F80B201D88E422BD3FFF7A3FE8E4285
:1036F00008BF4FF0400AFFF781FE626901380135CB
:1037000012781BFA80F1013002F01F022DB242EA5A
:10371000491289F001094AEA020A48F0004281F898
:1037200008A059468BF810003846CBF804204FF01B
:10373000000AFFF79FFD238CB342B8D17FE7002238
:10374000C6E7E169895D01360EF80210B6B20132B2
:10375000C0E76FF0010572E7F8B515460E46302256
:10376000002104461F46FEF707FA069BB5F5001F29
:10377000A760636004F11000079B34BF6A094FF62D
:10378000FF72E661A362002397B29A4206D8002333
:103790000360A782E3822383E360F8BD0660013300
:1037A00030462036F1E7000003781BB94BB2002BFE
:1037B000C8BF01707047000000787047F8B50C462C
:1037C000C969074611B9238C002B37D1257E1F2DDF
:1037D00034D8387828BB228C072A2CD8268A36F091
:1037E00003032BD14FF6FF70FFF7CEFD20F0010051
:1037F00031024FF6FF72400441EA0561400C41EA94
:103800004025234629463846FFF7FCFE002807DD01
:10381000626913780133DBB21F2B88BF002313705A
:10382000F8BD218A2D0645EA012505432046FFF70C
:103830001DFE0246E5E76FF00300F1E76FF00100BF
:10384000EEE7000070B58AB0044616460021282233
:1038500068461D46FEF790F9BDF8383069462046A7
:10386000ADF810300F9B05939DF840308DF818305F
:10387000119B0793BDF84830CDE90265ADF82030C3
:10388000FFF79CFF0AB070BD2DE9F041D3690546F2
:103890000C4616460BB9138C5BBB377E1F2F28D8FE
:1038A00095F80080B8F1000F26D03046FFF7DEFD16
:1038B000337821020246284641EAC331338A41EA7D
:1038C000080141EA076141EA0341334641F08001C2
:1038D000FFF798FE00280ADD3378012B07D17269C3
:1038E00013780133DBB21F2B88BF00231370BDE8B0
:1038F000F0816FF00100FAE76FF00300F7E70000D6
:10390000F0B58BB004460D461746002128226846C4
:103910001E46FEF731F99DF84C30294620465A1EC6
:10392000534253416A468DF800309DF84030ADF85F
:103930001030119B05939DF848308DF81830149B7A
:103940000793BDF85430CDE90276ADF82030FFF78B
:103950009BFF0BB0F0BD0000406A00B1043070471F
:10396000436A1A68426202691A600361C38A013BB2
:10397000C38270472DE9F041D0F8208014461D46DF
:10398000184E4146002709B9BDE8F081D1E902236C
:10399000A21A65EB0303964277EB03031ED2036A78
:1039A0008B420DD1FFF78CFD036A1B68036203692C
:1039B0000B60C38A0161013B016AC3828846E2E76A
:1039C000FFF77EFD0B68C8F8003003690B60C38AFF
:1039D0000161013BC382D8F80010D4E7884609682A
:1039E000D1E700BF80841E002DE9F04F8BB00D465B
:1039F00014469B46DDF850908046002800F0188160
:103A0000B9F1000F00F01481531E3F2B00F210811A
:103A1000012A03D1BBF1000F40F00A810023CDE958
:103A20000833B8F81430B5EBC30F4FEAC30703D31C
:103A300000200BB0BDE8F08F2B199F42D8F80C3056
:103A400036BF7F1B2746FFB21BB9D8F81030002BBA
:103A50007AD0272D4DD8C5F1280600232946B74234
:103A6000009308ABD8F808002CBFF6B23E46A7EB8F
:103A7000060A354432465FFA8AFAFFF73DFCB8F889
:103A80001430282103F10053053BDB000493D8F8E0
:103A90000C300393039B13B1BAF1000F2CD1D8F86B
:103AA000100040B1BAF1000F05D008AB5246691AB8
:103AB0000096FFF721FC38B2002FB9D066070AD074
:103AC0000AAB624203EBD40102F0070211F8083C92
:103AD000134101F8083C082C3DD9102C40F2B58068
:103AE000202C40F2B780BBF1000F00F09C8008232F
:103AF00035E0BA460026C2E7049BE02B28BFE0234E
:103B000006930B44AB42059315D95A1B0398691AC7
:103B10000096924508AB00F1040034BF5246D2B281
:103B20000792FFF7E9FB079A1644AAEB020A15442D
:103B3000F6B25FFA8AFA049B069A05999B1A0493D7
:103B4000039B1B680393A5E700933A4608AB2946FD
:103B5000D8F80800ADE7BBF1000F13D00123B4EB98
:103B6000C30F6BD0082C12D89DF82030621E23FAA8
:103B700002F2D50706D54FF0FF3202FA04F42343D0
:103B80008DF820309DF8203089F8003051E7102C56
:103B900012D8BDF82030621E23FA02F2D10706D5F2
:103BA0004FF0FF3202FA04F42343ADF82030BDF8A1
:103BB0002030A9F800303CE7202C0FD80899631E6C
:103BC00021FA03F3DA0705D54FF0FF3202FA04F4C5
:103BD0000C430894089BC9F800302AE7402C2AD0EF
:103BE000611EC4F12102A4F12103DDE9086526FA72
:103BF00001F105FA02F225FA03F311431943CB0749
:103C000011D50122A4F12003C4F1200102FA03F32B
:103C100022FA01F1A2400B43524263EB43033243C9
:103C20002B43CDE90823DDE90823C9E9002300E798
:103C30006FF00100FDE66FF00800FAE6082CA1D94C
:103C4000102CB4D9202CEED8C4E7BBF1000FAED0B5
:103C5000022384E7BBF1000FBCD004237FE7000000
:103C6000012A30B5144638BF012485B00025402C08
:103C700028BF4024012ACDE9025518D81B788DF8B9
:103C8000083063070AD004AB624203EBD40502F0AC
:103C9000070215F8083C934005F8083C03460091DC
:103CA0002246002102A8FFF727FB05B030BD082AF5
:103CB000E4D9102A03D81B88ADF80830E1E7202AA0
:103CC00095BF1B68D3E900230293CDE90223D8E70F
:103CD00010B5CB681BB98B600B618B8210BD04697A
:103CE0001A681C600361C38A013BC382CA60F0E7A3
:103CF00003064CBFC0F3C0300220704708B502462F
:103D0000FFF7F6FF022806D15306C2F30F2001D1B8
:103D100000F0030008BDC2F30740FBE72DE9F04FB8
:103D200093B004460D46CDE903230A681046FFF719
:103D3000DFFF0228824614BFC2F306260026002AAF
:103D400080F2F38112F0C04940F0EF81097B002935
:103D500000F0EB81022803D02378B34240F0E881E1
:103D6000C2F3046310462944069302F07F030593CF
:103D7000FFF7C4FF059B002283464FEA83480023D8
:103D800048EA0A4848EA4668CE78CDE90823F309AC
:103D900048EA0008029368D0059B024608A920461D
:103DA000009353466768B847002800F0C481276A2B
:103DB0004FB9414604F10C00FFF700FB074690B9EC
:103DC0006FF0020055E03B6998450DD03F68002F29
:103DD000F9D1414604F10C00FFF7F0FA074600283C
:103DE000EED0236A3B60276297F817C006F01F08E1
:103DF000CCF3840CACEB0800A8EB0C031FFA80FE9C
:103E00000028B8BF0EF120001FFA83FEB8BF00B231
:103E1000002B0793B8BF0EF12003D7E90221BCBFE6
:103E20001BB2079352EA010338D0039B4FF0000CFA
:103E3000DFF820E39A1A049B63EB010196457CEBC3
:103E400001032BD36B7B97F81AE0734519D1029BC2
:103E5000002B78D0012821DC7868F8B9DFF8F0C2AF
:103E6000944570EB010316D337E0276A27B96FF04A
:103E70000C0013B0BDE8F08F3B699845B4D03F68A3
:103E8000F4E7B34890427CEB010301D30020F0E754
:103E9000029B002BFAD0079B0F2B17DCFA7DB30097
:103EA0003946204602F0030203F07C031343FB75FE
:103EB000FFF706FB6B7BBB76029B3BB9FB7DC3F335
:103EC0008402013262F38603FB75D0E76A7BBB7E16
:103ED0009A42DBD1029B002B35D0B309022B32D0A2
:103EE000039B142200210DA8BB60049BFB60FDF71F
:103EF00043FE039B0AA920460A93049BADF83EB0FB
:103F00000B932B1D8DF840A00C932B7B8DF84180DB
:103F1000013BDBB2ADF83C30069B8DF84230059B8F
:103F20008DF8433094F82C3083F001038DF8443041
:103F3000A3689847FB7DC3F38403013303F01F0399
:103F40009B02FB82A2E7FB7DC6F34012B2EBD31FBC
:103F500040F0F480C3F38403434540F0F280029ABA
:103F6000B6092B7B002A4DD0F2075DD4032B40F21B
:103F7000EB80039BAE1D394604F10C00BB6032465A
:103F8000049BFB602B7B033BDBB2FFF7ABFA002803
:103F90000CDA39462046FFF793FAFB7DC3F384031E
:103FA000013303F01F039B02FB8209E7AB88DDE9C5
:103FB00008843B834FF6FF73C9F12000A9F120026A
:103FC00028FA09F109F1080904FA00F024FA02F2CA
:103FD000014318461143C9B2FFF7C6F9B9F1400FC2
:103FE0000346E9D1B88231462A7B033AD2B2FFF7C1
:103FF000CBF9FB7DB882DA43C2F3C01262F3C71378
:10400000FB7543E786B92E1D013B394604F10C00D0
:10401000DBB23246FFF766FA0028BADB2A7B31466C
:10402000B88A013AD2B2E2E7F98A013BC1F3090149
:10403000DAB204295BD8281D002307F11B069A4237
:1040400008D910F801CB013306F801C00131DBB209
:104050000529F4D1039993420A9138BF0433049996
:104060002CBF002355FA83F30B9107F11B010C9130
:1040700079680E930D91291DFB8AADF83EB0C3F30C
:1040800009038DF840A08DF841801A44069B8DF8F5
:104090004230059BADF83C208DF8433094F82C302D
:1040A00083F001038DF844300023B88A7B602A7BBB
:1040B000013AFFF769F93B8BB882834203D1A368C9
:1040C0000AA92046984720460AA9FFF701FEFB7D72
:1040D000BA8AC3F38403013303F01F039B02FB82FC
:1040E0003B8B9A420CBF00206FF01000C1E67B684A
:1040F000002BAFD0052001E01C3033461E68002E97
:10410000FAD1091A2E1D081D184401EB090C5FFA9B
:1041100089F3BCF11B0F9DD89A429BD916F8013B3D
:1041200009F1010900F8013BEFE76FF00900A0E693
:104130006FF00A009DE66FF00B009AE66FF00D003D
:1041400097E66FF00E0094E66FF00F0091E600BF67
:1041500040420F0080841E00EFF309830549683355
:104160004A6B22F001024A6383F30988002383F338
:104170001188704700EF00E0302080F3118862B6AC
:104180000D4B0E4AD96821F4E0610904090C0A4379
:104190000B49DA60D3F8FC2042F08072C3F8FC20AF
:1041A000084AC2F8B01F116841F0010111602022D5
:1041B000DA7783F82200704700ED00E00003FA058B
:1041C00055CEACC5001000E0302310B583F3118844
:1041D0000E4B5B6813F4006314D0F1EE103AEFF36A
:1041E00009844FF08073683CE361094BDB6B236605
:1041F00084F3098800F028FD10B1064BA36110BDBF
:10420000054BFBE783F31188F9E700BF00ED00E001
:1042100000EF00E04307000846070008090100F12D
:104220006043012203F56143C9B283F8001300F033
:104230001F039A4043099B0003F1604303F5614368
:10424000C3F880211A607047026843681143016017
:1042500003B118477047000013B5406B00F5805458
:10426000D4F8A4381A681178042914D1017C0229E1
:1042700011D11979012312898B4013420BD101A965
:104280004C3002F075F9D4F8A4480246019B21791C
:10429000206800F0F7F902B010BD0000143002F001
:1042A000F7B800004FF0FF33143002F0F1B800000F
:1042B0004C3002F0C9B900004FF0FF334C3002F02F
:1042C000C3B90000143002F0C5B800004FF0FF3150
:1042D000143002F0BFB800004C3002F095B9000075
:1042E0004FF0FF324C3002F08FB9000000207047D1
:1042F00010B500F58054D4F8A4381A681178042950
:1043000017D1017C022914D15979012352898B409C
:1043100013420ED1143002F057F8024648B1D4F8D7
:10432000A4484FF4407361792068BDE8104000F064
:1043300097B910BD406BFFF7DBBF0000704700006E
:104340007FB5124B01250426044603600023057443
:1043500000F1840243602946C0E902330C4B02900D
:10436000143001934FF44073009602F009F8094BA2
:1043700004F69442294604F14C000294CDE900630E
:104380004FF4407302F0D0F804B070BDB470000870
:1043900035430008594200080A68302383F3118826
:1043A0000B790B3342F823004B79133342F8230087
:1043B0008B7913B10B3342F8230000F58053C3F817
:1043C000A41802230374002080F3118870470000B2
:1043D00038B5037F044613B190F85430ABB90125CA
:1043E000201D0221FFF730FF04F114006FF00101DE
:1043F000257700F011FD04F14C0084F854506FF063
:104400000101BDE8384000F007BD38BD10B50121FD
:1044100004460430FFF718FF0023237784F8543054
:1044200010BD000038B504460025143001F0C0FF6F
:1044300004F14C00257702F08FF8201D84F85450C9
:104440000121FFF701FF2046BDE83840FFF750BFCC
:1044500090F8803003F06003202B06D190F8812083
:104460000023212A03D81F2A06D800207047222AB9
:10447000FBD1C0E91D3303E0034A4267072282678C
:10448000C3670120704700BF3422002037B500F514
:104490008055D5F8A4381A68117804291AD1017CFE
:1044A000022917D11979012312898B40134211D1A6
:1044B00000F14C04204602F00FF958B101A9204642
:1044C00002F056F8D5F8A4480246019B21792068ED
:1044D00000F0D8F803B030BD01F10B03F0B550F88F
:1044E000236085B004460D46FEB1302383F3118866
:1044F00004EB8507301D0821FFF7A6FEFB6806F1D7
:104500004C005B691B681BB1019002F03FF80198F9
:1045100003A902F02DF8024648B1039B2946204624
:1045200000F0B0F8002383F3118805B0F0BDFB68FC
:104530005A691268002AF5D01B8A013B1340F1D159
:1045400004F18002EAE70000133138B550F8214049
:10455000ECB1302383F3118804F58053D3F8A428F9
:104560001368527903EB8203DB689B695D6845B190
:1045700004216018FFF768FE294604F1140001F0D9
:104580002DFF2046FFF7B4FE002383F3118838BDCA
:104590007047000001F0FCB901234022002110B552
:1045A000044600F8303BFDF7E7FA0023C4E9013385
:1045B00010BD000010B53023044683F31188242277
:1045C000416000210C30FDF7D7FA204601F0F2F9E6
:1045D00002230020237080F3118810BD70B500EB1A
:1045E0008103054650690E461446DA6018B114225C
:1045F0000021FDF7C1FAA06918B114220021FDF7CE
:10460000BBFA31462846BDE8704001F0B7BA000059
:10461000F8B58368044600F1100500F1300603F098
:1046200001130027836055F8043B7BB1586920B122
:104630006FF001010C3000F0C9FB55F8043C98699B
:1046400020B16FF001010C3000F0C0FBB54245F81D
:10465000047CE8D12046BDE8F84001F01BBB000017
:10466000F0B4012500EB81044789E4688D40A4691A
:104670003D43458123600023A2606360E360F0BC9A
:1046800001F036BBF0B4012500EB81040789E46832
:104690008D4064693D43058123600023A26063600F
:1046A000E360F0BC01F0BCBB2DE9F0410223002621
:1046B000044600F10C0500F130074FF0300803709C
:1046C000C0F88860866055F8043BABB188F3118868
:1046D00055F8043C586920B16FF001010C3000F02E
:1046E00075FB55F8043C986920B16FF001010C305E
:1046F00000F06CFB86F31188BD4245F8046CE2D1F2
:10470000204684F8706001F0CDF963681B6823B11E
:1047100020460021BDE8F0411847BDE8F0810000C7
:10472000F8B503780446052B2AD080F88C30052391
:10473000037043681B680BB104219847002604F1FD
:104740000C053027303444F8286C55F8043BABB1E5
:1047500087F3118855F8043C586920B16FF00101C6
:104760000C3000F033FB55F8043C986920B16FF031
:1047700001010C3000F02AFB86F31188A542E4D138
:10478000F8BD00000178052906D190F88C20436817
:1047900002701B6803B118477047000070B590F8AD
:1047A0007030044613B1002380F8703004F18002A9
:1047B000204601F093FA63689B68B3B994F880309F
:1047C00013F0600535D00021204601F0B5FD002131
:1047D000204601F0A5FD63681B6813B10621204641
:1047E0009847062384F8703070BD2046984700280B
:1047F000E4D0B4F88630A26F9A4288BFA36794F9D8
:104800008030A56F002B4FF0300380F20381002D24
:1048100000F0F280092284F8702083F311880021CF
:104820002046D4E91D23FFF72DFF002383F31188D1
:10483000DAE794F8812003F07F0343EA022340F291
:104840000232934200F0C58021D8B3F5807F48D072
:104850000DD8012B3FD0022B00F09380002BB2D15A
:1048600004F1880262670222A267E367C1E7B3F539
:10487000817F00F09B80B3F5407FA4D194F8823013
:10488000012BA0D1B4F8883043F0020332E0B3F535
:10489000006F4DD017D8B3F5A06F31D0A3F5C0632A
:1048A000012B90D86368204694F882205E6894F8C3
:1048B0008310B4F88430B047002884D0436863671D
:1048C0000368A3671AE0B3F5106F36D040F60242D2
:1048D00093427FF478AF5C4B63670223A3670023A6
:1048E000C3E794F88230012B7FF46DAFB4F88830C1
:1048F00023F00203A4F88830C4E91D55E56778E782
:10490000B4F88030B3F5A06F0ED194F88230204611
:1049100084F88A3001F024F963681B6813B101211F
:1049200020469847032323700023C4E91D339CE7E6
:1049300004F18B0363670123C3E72378042B10D1B1
:10494000302383F311882046FFF762FE85F3118838
:104950000321636884F88B5021701B680BB12046DB
:10496000984794F88230002BDED084F88B300423F3
:10497000237063681B68002BD6D00221204698471D
:10498000D2E794F8843020461D0603F00F010AD5C3
:1049900001F096F9012804D002287FF414AF2B4BC4
:1049A0009AE72B4B98E701F07DF9F3E794F8823012
:1049B000002B7FF408AF94F8843013F00F01B3D0CC
:1049C0001A06204602D501F0CFFCADE701F0C0FC8D
:1049D000AAE794F88230002B7FF4F5AE94F8843087
:1049E00013F00F01A0D01B06204602D501F0A4FC55
:1049F0009AE701F095FC97E7142284F8702083F37E
:104A000011882B462A4629462046FFF729FE85F3C2
:104A10001188E9E65DB1152284F8702083F31188CE
:104A200000212046D4E91D23FFF71AFEFDE60B22E4
:104A300084F8702083F311882B462A4629462046A5
:104A4000FFF720FEE3E700BFE4700008DC70000819
:104A5000E070000838B590F870300446002B3ED066
:104A6000063BDAB20F2A34D80F2B32D8DFE803F036
:104A7000373131082232313131313131313137374B
:104A8000856FB0F886309D4214D2C3681B8AB5FB8F
:104A9000F3F203FB12556DB9302383F311882B46D3
:104AA0002A462946FFF7EEFD85F311880A2384F88C
:104AB00070300EE0142384F87030302383F31188B3
:104AC000002320461A461946FFF7CAFD002383F348
:104AD000118838BDC36F03B198470023E7E7002171
:104AE000204601F029FC0021204601F019FC6368F2
:104AF0001B6813B10621204698470623D7E700001C
:104B000010B590F870300446142B29D017D8062B16
:104B100005D001D81BB110BD093B022BFBD80021E9
:104B2000204601F009FC0021204601F0F9FB6368F2
:104B30001B6813B1062120469847062319E0152B60
:104B4000E9D10B2380F87030302383F311880023E0
:104B50001A461946FFF796FD002383F31188DAE71A
:104B6000C3689B695B68002BD5D1C36F03B19847BD
:104B7000002384F87030CEE7002382680375036950
:104B80001B6899689142FBD25A68036042601060CA
:104B90005860704700238268037503691B68996831
:104BA0009142FBD85A6803604260106058607047B9
:104BB00008B50846302383F311880B7D032B05D0FD
:104BC000042B0DD02BB983F3118808BD8B6900220B
:104BD0001A604FF0FF338361FFF7CEFF0023F2E747
:104BE000D1E9003213605A60F3E70000FFF7C4BF59
:104BF000054BD96808751868026853601A6001226D
:104C0000D8600275FBF788BD104A00200C4B30B508
:104C1000DD684B1C87B004460FD02B46094A684616
:104C200000F08EF92046FFF7E3FF009B13B16846C2
:104C300000F090F9A86907B030BDFFF7D9FFF9E798
:104C4000104A0020B14B0008044B1A68DB689068DA
:104C50009B68984294BF002001207047104A0020B2
:104C6000084B10B51C68D868226853601A6001228E
:104C7000DC602275FFF78EFF01462046BDE810403C
:104C8000FBF74ABD104A0020044B1A68DB689268A3
:104C90009B689A4201D9FFF7E3BF7047104A002092
:104CA00038B5074C01230025064907482370656085
:104CB00001F050FD0223237085F3118838BD00BF39
:104CC000784C0020EC700008104A002008B572B63D
:104CD000044B186500F086FC00F058FD024B0322DF
:104CE0001A70FEE7104A0020784C002000F068B9E6
:104CF000EFF3118020B9EFF30583302282F311889E
:104D00007047000010B530B9EFF30584C4F3080410
:104D100014B180F3118810BDFFF7B6FF84F311883A
:104D2000F9E70000034A516853685B1A9842FBD8C0
:104D3000704700BF001000E08B6002230861084646
:104D40008B8270478368A3F1840243F8142C0269B4
:104D500043F8442C426943F8402C094A43F8242C78
:104D6000C268A3F1200043F8182C022203F80C2C8F
:104D7000002203F80B2C034A43F8102C704700BFA5
:104D800031070008104A002008B5FFF7DBFFBDE837
:104D90000840FFF72BBF0000024BDB6898610F2033
:104DA000FFF726BF104A0020302383F31188FFF756
:104DB000F3BF000008B50146302383F311880820B3
:104DC000FFF724FF002383F3118808BD03682BB18C
:104DD0000022026018469961FFF708BF7047000083
:104DE000064BDB6839B1426818605A601360436053
:104DF0000420FFF70BBF4FF0FF307047104A002030
:104E00000368984206D01A6802605060184699619B
:104E1000FFF7ECBE7047000038B504460D46206829
:104E2000844200D138BD036823605C608561FFF770
:104E3000DDFEF4E7036810B59C68A2420CD85C68FC
:104E40008A600B604C602160596099688A1A9A6088
:104E50004FF0FF33836010BD121B1B68ECE70000AE
:104E60000A2938BF0A2170B504460D460A26601982
:104E700001F068FC01F050FC041BA54203D8751C2E
:104E800004462E46F3E70A2E04D90120BDE87040FF
:104E900001F0A0BC70BD0000F8B5144B0D460A2A05
:104EA0004FF00A07D96103F11001826038BF0A226E
:104EB000416019691446016048601861A81801F042
:104EC00031FC01F029FC431B0646A34206D37C1C9F
:104ED00028192746354601F035FCF2E70A2F04D998
:104EE0000120BDE8F84001F075BCF8BD104A002073
:104EF000F8B506460D4601F00FFC0F4A134653F86D
:104F0000107F9F4206D12A4601463046BDE8F84050
:104F1000FFF7C2BFD169BB68441A2C1928BF2C46C1
:104F2000A34202D92946FFF79BFF22463146034898
:104F3000BDE8F840FFF77EBF104A0020204A00205D
:104F4000C0E90323002310B45DF8044B4361FFF76D
:104F5000CFBF000010B5194C236998420DD081686D
:104F6000D0E9003213605A609A680A449A600023BC
:104F700003604FF0FF33A36110BD0268234643F87E
:104F8000102F53600022026022699A4203D1BDE8CB
:104F9000104001F0D1BB936881680B44936001F02D
:104FA000BBFB2269E1699268441AA242E4D9114428
:104FB000BDE81040091AFFF753BF00BF104A002098
:104FC0002DE9F047DFF8BC8008F110072C4ED8F827
:104FD000105001F0A1FBD8F81C40AA68031B9A42AC
:104FE0003ED814444FF00009D5E90032C8F81C40FF
:104FF00013605A60C5F80090D8F81030B34201D160
:1050000001F09AFB89F31188D5E9033128469847C6
:10501000302383F311886B69002BD8D001F07CFB1F
:105020006A69A0EB040982464A450DD2022001F0CC
:10503000D1FB0022D8F81030B34208D1514628469F
:10504000BDE8F047FFF728BF121A2244F2E712EB3F
:1050500009092946384638BF4A46FFF7EBFEB5E74F
:10506000D8F81030B34208D01444C8F81C00211AF4
:10507000A960BDE8F047FFF7F3BEBDE8F08700BFC9
:10508000204A0020104A002000207047FEE7000060
:10509000704700004FF0FF307047000002290CD02D
:1050A000032904D00129074818BF00207047032AAC
:1050B00005D8054800EBC20070470448704700203F
:1050C000704700BFC47100084422002078710008B6
:1050D00070B59AB005460846144601A900F0C2F81A
:1050E00001A8FCF741FD431C0022C6B25B0010463C
:1050F000C5E9003423700323023404F8013C01ABFA
:10510000D1B202348E4201D81AB070BD13F8011B1F
:10511000013204F8010C04F8021CF1E708B5302351
:1051200083F311880348FFF7B1F9002383F3118853
:1051300008BD00BF804C002090F8803003F01F02B3
:10514000012A07D190F881200B2A03D10023C0E95E
:105150001D3315E003F06003202B08D1B0F8843034
:105160002BB990F88120212A03D81F2A04D8FFF7F1
:105170006FB9222AEBD0FAE7034A42670722826717
:10518000C3670120704700BF3B22002007B50529F7
:1051900017D8DFE801F0191603191920302383F31B
:1051A0001188104A01210190FFF718FA0198022195
:1051B0000D4AFFF713FA0D48FFF734F9002383F384
:1051C000118803B05DF804FB302383F3118807488E
:1051D000FFF7FEF8F2E7302383F311880348FFF767
:1051E00015F9EBE7187100083C710008804C0020AD
:1051F00038B50C4D0C4C2A460C4904F10800FFF759
:1052000067FF05F1CA0204F110000949FFF760FFCA
:1052100005F5CA7204F118000649BDE83840FFF7E9
:1052200057BF00BF6465002044220020F8700008CA
:10523000027100080D71000870B5044608460D465D
:10524000FCF792FCC6B22046013403780BB918462D
:1052500070BD32462946FCF773FC0028F3D10120CB
:10526000F6E700002DE9F84F05460C46FCF77CFCFC
:105270002B49C6B22846FFF7DFFF2A492846FFF729
:10528000DBFF08B11036F6B2632E0DD8DFF8908040
:10529000DFF89090244FDFF898A0DFF898B02E78D0
:1052A00046B92670BDE8F88F29462046BDE8F84F7C
:1052B00001F04ABE252E2ED1072241462846FCF792
:1052C0003FFC70B9DBF800300735073444F8073C81
:1052D000BBF8043024F8033C9BF8063004F8013C8A
:1052E000DDE7082249462846FCF72AFC98B9A21CAB
:1052F0000E4B197802320909C95D02F8041C13F833
:10530000011B01F00F015345C95D02F8031CF0D1E8
:1053100018340835C3E7013504F8016BBFE700BF57
:10532000E47100080D710008F471000800E8F11F35
:105330000CE8F11FEC710008BFF34F8F044B1A69A2
:105340005107FCD1D3F810215207F8D1704700BFA4
:105350000020005208B50D4B1B78ABB9FFF7ECFFEE
:105360000B4BDA68D10704D50A4A5A6002F1883239
:105370005A60D3F80C21D20706D5064AC3F8042197
:1053800002F18832C3F8042108BD00BFC2670020C3
:10539000002000522301674508B5114B1B78F3B973
:1053A000104B1A69510703D5DA6842F04002DA60FF
:1053B000D3F81021520705D5D3F80C2142F0400252
:1053C000C3F80C21FFF7B8FF064BDA6842F0010280
:1053D000DA60D3F80C2142F00102C3F80C2108BDB9
:1053E000C2670020002000520F289ABF00F580609D
:1053F00040040020704700004FF400307047000068
:10540000102070470F2808B50BD8FFF7EDFF00F507
:1054100000330268013204D104308342F9D1012003
:1054200008BD0020FCE700000F2870B5054645D8F0
:10543000FFF75EFC224CFFF77FFF0646FFF78AFF6F
:105440004FF0FF33072D6361C4F8143120D8236176
:10545000FFF772FF2B0243F02403E360E36843F09D
:105460008003E36023695A07FCD42846FFF764FFF2
:105470004FF40031FFF7B8FF00F064F93046FFF752
:105480008BFFFFF73FFC2846BDE87040FFF7BABF2F
:10549000C4F81031FFF750FFA5F108031B0243F0D9
:1054A0002403C4F80C31D4F80C3143F08003C4F861
:1054B0000C31D4F810315B07FBD4D6E7002070BD67
:1054C000002000522DE9F84F40EA020305460C4641
:1054D0001746D80602D00020BDE8F88F27F01F0736
:1054E000DFF8D4B0FFF736FF2744BC4203D10120D8
:1054F000FFF752FFF0E720222946204601F0F2FC98
:1055000010B920352034F0E72B4605F120021E6843
:10551000711CE0D104339A42F9D1FFF7E9FB05F1A0
:105520007843234AB3F5801F224B28BF9A4603F1E4
:10553000040338BF9046A2F1080228BF9846A3F1A1
:1055400008033ABF9146DA469946FFF7F5FEC8F8D8
:105550000060A5EB040CD9F8002004F11C0142F016
:105560000202C9F80020221FDAF8006016F00506D2
:10557000FAD152F8043F8A424CF80230F4D1BFF31A
:105580004F8FFFF7D9FE4FF0FF32C8F80020D9F84F
:10559000002022F00202C9F80020FFF7B3FB20220E
:1055A0002146284601F09EFC0028AAD030469FE7FD
:1055B00014200052102100521020005210B5084C47
:1055C000237828B11BB9FFF7C5FE0123237010BD56
:1055D000002BFCD02070BDE81040FFF7DDBE00BFFF
:1055E000C267002038B5054D00240334696855F8BA
:1055F0000C0B00F0B9F8122CF7D138BD0872000876
:10560000084601F067BC000070B5104E82B0FFF78D
:105610006FFB054601F080F8326803469042336024
:1056200037BF0B4A0A495168146836BF0131D1E9C6
:10563000004151600419284641F100010191FFF732
:1056400061FB2046019902B070BD00BFC467002015
:10565000C867002070B5124E82B0FFF749FB0546BF
:1056600001F05AF8326803469042336037BF0D4A62
:105670000C495168146836BF0131D1E900415160CD
:105680000419284641F100010191FFF73BFB4FF45B
:105690007A72002320460199FAF72AFE02B070BD03
:1056A000C4670020C86700200244074BD2B210B57F
:1056B000904200D110BD441C00B253F8200041F8C4
:1056C000040BE0B2F4E700BF504000580E4B30B579
:1056D0001C6F240405D41C6F1C671C6F44F4004429
:1056E0001C670A4C02442368D2B243F480732360DF
:1056F000074B904200D130BD441C51F8045B00B20E
:1057000043F82050E0B2F4E7004402580048025841
:105710005040005807B5012201A90020FFF7C4FF3F
:10572000019803B05DF804FB13B50446FFF7F2FFE0
:10573000A04205D0012201A900200194FFF7C6FF75
:1057400002B010BD0144BFF34F8F064B884204D313
:10575000BFF34F8FBFF36F8F7047C3F85C022030E9
:10576000F4E700BF00ED00E00144BFF34F8F064BAC
:10577000884204D3BFF34F8FBFF36F8F7047C3F8D6
:1057800070022030F4E700BF00ED00E07047000039
:10579000074B45F255521A6002225A6040F6FF72DA
:1057A0009A604CF6CC421A600122024B1A70704784
:1057B00000480058D4670020034B1B781BB1034BF3
:1057C0004AF6AA221A607047D467002000480058A1
:1057D000034B1A681AB9034AD2F8D0241A607047EA
:1057E000D067002000400258024B4FF48032C3F8CB
:1057F000D02470470040025808B5FFF7E9FF024B7C
:105800001868C0F3806008BDD067002070B5BFF392
:105810004F8FBFF36F8F1A4A0021C2F85012BFF3A7
:105820004F8FBFF36F8F536943F400335361BFF35E
:105830004F8FBFF36F8FC2F88410BFF34F8FD2F832
:10584000803043F6E074C3F3C900C3F34E335B0109
:1058500003EA0406014646EA81750139C2F860523E
:10586000F9D2203B13F1200FF2D1BFF34F8F5369D0
:1058700043F480335361BFF34F8FBFF36F8F70BD1D
:1058800000ED00E0FEE70000214B2248224A70B5FF
:10589000904237D3214BC11EDA1C121A22F00302A8
:1058A0008B4238BF00220021FCF766F91C4A002316
:1058B000C2F88430BFF34F8FD2F8803043F6E074E3
:1058C000C3F3C900C3F34E335B0103EA0406014688
:1058D00046EA81750139C2F86C52F9D2203B13F1C6
:1058E000200FF2D1BFF34F8FBFF36F8FBFF34F8FF6
:1058F000BFF36F8F0023C2F85032BFF34F8FBFF357
:105900006F8F70BD53F8041B40F8041BC0E700BF45
:1059100090740008106900201069002010690020B0
:1059200000ED00E070B5D0E9244300224FF0FF35D0
:105930009E6804EB42135101D3F80009002805DAF0
:10594000D3F8000940F08040C3F80009D3F8000BF9
:10595000002805DAD3F8000B40F08040C3F8000BB4
:10596000013263189642C3F80859C3F8085BE0D2C5
:105970004FF00113C4F81C3870BD0000890141F0DC
:105980002001016103699B06FCD41220FFF7CAB90C
:1059900010B5054C2046FEF7FFFD044BC4F89030CF
:1059A000034BC4F8943010BDD867002000000440B9
:1059B0007472000870B503780546012B61D1324E30
:1059C000D0F89040B0422AD1304B4D209A6B42F033
:1059D00000729A631A6E42F000721A661A6E2C4AAE
:1059E000D2F8801041F00071C2F88010D2F8801017
:1059F00021F00071C2F880100E21D2F880209A6B3D
:105A000042F080629A631A6E42F080621A661B6EE0
:105A1000FEF704FC1F4BE3601F4BC4F80038002363
:105A2000C022B542C4F8003E226000D1A363D5F87D
:105A300090603369002BFCDA01230C203361FFF7FF
:105A400071F93369DB07FCD41220FFF76BF9336976
:105A5000002BFCDA00262846A660FFF763FF6B6880
:105A6000C4F81068DB68C4F81468C4F81C684BB943
:105A70000A4BA3614FF0FF336361A36843F0010356
:105A8000A36070BD064BF4E7D867002000450258BC
:105A9000004402580027004001002002003C30C0B2
:105AA000083C30C0F8B5D0F89040054600214FF0D2
:105AB00000662046FFF762FFD5F8941000234FF0F0
:105AC00001128F684FF0FF30C4F83438C4F81C2836
:105AD00004EB431201339F42C2F80069C2F8006B25
