:020000040800F2
:1000000000060020B50500085D2900081529000834
:100010003D2900081529000835290008B705000802
:10002000B7050008B7050008B70500085D3B0008E4
:10003000B7050008B7050008B7050008B7050008B0
:10004000B7050008B7050008B7050008B7050008A0
:10005000B7050008B7050008B94A0008E54A0008D6
:10006000114B00083D4B0008694B0008B70500081C
:10007000B7050008B7050008B7050008B705000870
:10008000B7050008B7050008B70500085D2500089A
:10009000852500087125000899250008954B000862
:1000A000B7050008B7050008B7050008B705000840
:1000B000B7050008B7050008B7050008B705000830
:1000C000B7050008B7050008B7050008B705000820
:1000D000B7050008B7050008B7050008B705000810
:1000E000F94B0008B7050008B7050008B705000878
:1000F000B7050008B7050008B7050008B7050008F0
:10010000B7050008B70500086D4C0008B7050008E2
:10011000B7050008B7050008B7050008B7050008CF
:10012000B7050008B7050008B7050008B7050008BF
:10013000B7050008B7050008B7050008B7050008AF
:10014000B7050008B7050008B7050008B70500089F
:10015000B7050008B7050008B7050008B70500088F
:10016000B7050008B7050008B7050008B70500087F
:10017000B7050008B7050008B7050008B70500086F
:10018000B7050008B7050008B7050008B70500085F
:10019000B7050008B7050008B7050008B70500084F
:1001A000B7050008B7050008B7050008B70500083F
:1001B000B7050008B7050008B7050008B70500082F
:1001C000B7050008B7050008B7050008B70500081F
:1001D000B7050008B7050008B7050008B70500080F
:1001E000B7050008B7050008B7050008B7050008FF
:1001F000B7050008B7050008B7050008B7050008EF
:10020000B7050008B7050008B7050008B7050008DE
:10021000B7050008B7050008B7050008B7050008CE
:10022000B7050008B7050008B7050008B7050008BE
:10023000B7050008B7050008B7050008B7050008AE
:10024000B7050008B7050008B7050008B70500089E
:10025000B7050008B7050008B7050008B70500088E
:10026000B7050008B7050008B7050008B70500087E
:10027000B7050008B7050008B7050008B70500086E
:10028000B7050008B7050008B7050008B70500085E
:10029000B7050008B7050008B7050008B70500084E
:1002A00071140008000000000000000000000000C1
:1002B00053B94AB9002908BF00281CBF4FF0FF31CD
:1002C0004FF0FF3000F074B9ADF1080C6DE904CEC9
:1002D00000F006F8DDF804E0DDE9022304B0704721
:1002E0002DE9F047089D04468E46002B4DD18A42E9
:1002F000944669D9B2FA82F252B101FA02F3C2F11C
:10030000200120FA01F10CFA02FC41EA030E9440AC
:100310004FEA1C48210CBEFBF8F61FFA8CF708FBCD
:1003200016E341EA034306FB07F199420AD91CEBA5
:10033000030306F1FF3080F01F81994240F21C81D7
:10034000023E63445B1AA4B2B3FBF8F008FB10331F
:1003500044EA034400FB07F7A7420AD91CEB040454
:1003600000F1FF3380F00A81A74240F20781644424
:10037000023840EA0640E41B00261DB1D4400023A9
:10038000C5E900433146BDE8F0878B4209D9002D0D
:1003900000F0EF800026C5E9000130463146BDE897
:1003A000F087B3FA83F6002E4AD18B4202D3824201
:1003B00000F2F980841A61EB030301209E46002DB0
:1003C000E0D0C5E9004EDDE702B9FFDEB2FA82F205
:1003D000002A40F09280A1EB0C014FEA1C471FFA63
:1003E0008CFE0126200CB1FBF7F307FB131140EA4A
:1003F00001410EFB03F0884208D91CEB010103F117
:10040000FF3802D2884200F2CB804346091AA4B2D8
:10041000B1FBF7F007FB101144EA01440EFB00FEAC
:10042000A64508D91CEB040400F1FF3102D2A64511
:1004300000F2BB800846A4EB0E0440EA03409CE7B0
:10044000C6F12007B34022FA07FC4CEA030C20FA5D
:1004500007F401FA06F31C43F9404FEA1C4900FA7D
:1004600006F3B1FBF9F8200C1FFA8CFE09FB1811FA
:1004700040EA014108FB0EF0884202FA06F20BD96D
:100480001CEB010108F1FF3A80F08880884240F2BD
:100490008580A8F102086144091AA4B2B1FBF9F001
:1004A00009FB101144EA014100FB0EFE8E4508D9FC
:1004B0001CEB010100F1FF346CD28E456AD9023881
:1004C000614440EA0840A0FB0294A1EB0E01A14266
:1004D000C846A64656D353D05DB1B3EB080261EBD4
:1004E0000E0101FA07F722FA06F3F1401F43C5E9AE
:1004F000007100263146BDE8F087C2F12003D840E4
:100500000CFA02FC21FA03F3914001434FEA1C4725
:100510001FFA8CFEB3FBF7F007FB10360B0C43EA17
:10052000064300FB0EF69E4204FA02F408D91CEBC7
:10053000030300F1FF382FD29E422DD902386344C5
:100540009B1B89B2B3FBF7F607FB163341EA034165
:1005500006FB0EF38B4208D91CEB010106F1FF38B4
:1005600016D28B4214D9023E6144C91A46EA0046AB
:1005700038E72E46284605E70646E3E61846F8E63D
:100580004B45A9D2B9EB020864EB0C0E0138A3E786
:100590004646EAE7204694E74046D1E7D0467BE767
:1005A000023B614432E7304609E76444023842E7DF
:1005B000704700BF02E000F000F8FEE772B63A486C
:1005C00080F30888394880F3098839484EF6085185
:1005D000CEF20001086040F20000CCF200004EF6BE
:1005E0003471CEF200010860BFF34F8FBFF36F8FFD
:1005F00040F20000C0F2F0004EF68851CEF2000149
:100600000860BFF34F8FBFF36F8F4FF00000E1EE34
:10061000100A4EF63C71CEF200010860062080F30D
:100620001488BFF36F8F03F0CFFF03F071FF03F067
:10063000FBFF4FF055301F491B4A91423CBF41F828
:10064000040BFAE71C49194A91423CBF41F8040BDC
:10065000FAE71A491A4A1B4B9A423EBF51F8040B5B
:1006600042F8040BF8E700201749184A91423CBFB2
:1006700041F8040BFAE703F089FF04F059F8144C31
:10068000144DAC4203DA54F8041B8847F9E700F034
:1006900041F8114C114DAC4203DA54F8041B884761
:1006A000F9E703F071BF00000006002000220020DF
:1006B0000000000800000020000600206051000833
:1006C000002200208022002080220020B85F00202D
:1006D000A0020008A4020008A4020008A402000866
:1006E0002DE9F04F2DED108AC1F80CD0D0F80CD0C8
:1006F000BDEC108ABDE8F08F002383F311882846F3
:10070000A047002003F0DCFBFEE703F055FB00DF11
:10071000FEE700002DE9F04103F092FE074603F0EA
:10072000EDFE0546C0BB284B9F4235D001339F42AA
:1007300035D027F0FF02254B9A4234D1A84642F229
:100740001074F8B200F0E4FB00F068FC08B100247B
:10075000A04600F0E3FB064648B354BB464635B11D
:100760001B4B9F4203D0002403F0C0FE264600200E
:1007700003F070FE0EB100F02DF800F073FC00F0F5
:100780008DFE02F0F3F80546B4B900F0BBFC4FF45F
:100790007A7003F09BFBF7E7A8460024D4E70446F1
:1007A0004FF00108D0E7804641F28834CCE7044698
:1007B000D5E74FF47A74D2E702F0D8F8431BA3428E
:1007C000E3D900F007F8DCE7010007B0000008B04B
:1007D000263A09B0F8B5434B434A1C461968013123
:1007E0007ED004339342F9D16268404B9A4277D964
:1007F0003F4B9B6803F1006303F580239A426FD25D
:1008000003F05CFE002000F06FFE0220394B1870F0
:1008100000F0A6FE384B0021D3F8E820C3F8E8101A
:10082000D3F81021C3F81011D3F81021D3F8EC201D
:10083000C3F8EC10D3F81421C3F81411D3F8142121
:10084000D3F8F020C3F8F010D3F81821C3F818112A
:10085000D3F8183172B64FF0E023C3F8084DD4E94D
:100860000004BFF34F8FBFF36F8F244AC2F8841088
:10087000BFF34F8F536923F480335361BFF34F8F1E
:10088000D2F8803043F6E076C3F3C905C3F34E33A4
:100890005B0103EA060C29464CEA81770139C2F86C
:1008A0007472F9D2203B13F1200FF2D1BFF34F8FB6
:1008B000BFF36F8FBFF34F8FBFF36F8F536923F475
:1008C000003353610023C2F85032BFF34F8FBFF3A0
:1008D0006F8F202383F31188854680F30888204793
:1008E000F8BD00BF0000040820000408FFFF030853
:1008F00000220020802200200044025800ED00E089
:10090000094A49F26900136899B21B0C00FB0133D4
:1009100044F250611360054B186882B2000C01FB71
:100920000200186080B270471822002014220020B4
:100930000021102210B5044600F026FE034B03CB25
:10094000206061601868A06010BD00BF00E8F11F62
:100950002DE9F041ADF54C7D0D46002140F27512B8
:100960006AAC07460CA80B9100F00EFE4FF4C4725F
:100970000021204600F008FE0DF12C0801F0F6FFE2
:100980004FF47A72264BB0FBF2F0186093E8070040
:10099000012384E807000DF5E5702382FFF7C8FF07
:1009A00041F204331F4906A8238404F045FA1323B7
:1009B0000DF2DB220DF1280C84F8323106AB1E4615
:1009C000083203CE664542F8080C42F8041C334650
:1009D000F5D131882046B3781180414693700122C9
:1009E00001F0CAFF002380B2E97E0393AB7E02933D
:1009F00005F1190301930123009307A3D3E9002311
:100A0000CDE90480384602F089FC0DF54C7DBDE847
:100A1000F08100BFAFF300809E6AC421818A46EE58
:100A200084220020684E00082DE9F043224DBBB01F
:100A300001F09CFF40F2ED22AB68C31A934232D919
:100A400006AF2B4628220021A860384602F016FE89
:100A500005F10E0000F090FD002604465FFA80F9D3
:100A600005F10E08F3B2F100994501F1280107D90B
:100A700008EB060308223846013602F0FFFDF1E7D5
:100A8000082301220534297B0C48A4B2CDE90232A7
:100A90000B4B01933023CDE90474009304A3D3E9F5
:100AA000002302F03BFC3BB0BDE8F083AFF30080D5
:100AB00078F6339F93CACD8D285C00209C320020AD
:100AC000355C0020F0B58B8AC9B006460C46013B68
:100AD0009BB2C92B47D8274D2F7B27BB05F10C03B1
:100AE0000822394600933B46204602F08BFC7B1CD3
:100AF000FAB2D9001F46A38A013B9A4205DA0E32A8
:100B000000232A4400920822EEE700230022C5E9D0
:100B100000230023AB6085F8D730C5F8D8302B7B95
:100B20000BB9E37E2B7306AD8122002127A800F0CC
:100B30002BFD0122294627A801F0EAFF002380B2FD
:100B4000E17E0393A37E029304F11903019328230A
:100B5000CDE904500093304604A3D3E9002302F00A
:100B6000DDFBFFF761FF49B0F0BD00BF26417272A7
:100B7000DF25D7B7285C002070B50D4614461E4609
:100B800002F028FB50B9022E10D1012C0ED112A375
:100B9000D3E900230120C5E9002307E0282C10D069
:100BA00005D8012C09D0052C0FD0002070BD302CA9
:100BB000FBD10BA3D3E90023ECE70BA3D3E900237C
:100BC000E8E70BA3D3E90023E4E70BA3D3E9002371
:100BD000E0E700BFAFF30080401DA12026812A0B73
:100BE00078F6339F93CACD8D9E6AC421818A46EEE2
:100BF00026417272DF25D7B7F017304A39059E5665
:100C000013B501F0B3FE19490B68C31A642B184BD6
:100C100008D9184A1C8892F900200860C2EB021219
:100C200022441A80B3F90020002A1BDA00221A801D
:100C300011490A68821AB2F57A7F04D90D4C08600E
:100C4000227852422270B3F900300322002093FB35
:100C5000F2F3DBB263F3070063F30F2063F3174093
:100C600002B010BD962AE3DD9622E0E70C5D00207D
:100C7000145D002010220020105D00202DE9F04FAF
:100C80008DB080460D4602AF02F0A4FA044600285B
:100C90005BD12B7E022B1BD1EB8A012B18D101F0EB
:100CA00065FE0646FFF72CFE03464FF4C87006F5B6
:100CB0001676DFF81492B3FBF0F202FB103316FA4B
:100CC00083F3C9F80030EB7E33B97A4B00221A70F7
:100CD0002C37BD46BDE8F08FAB8AE6B20134013B4C
:100CE000B3420CD907F10803E100082228461E444C
:100CF00001F0F8010023009602F084FBECE707F115
:100D00001800FFF715FE324607F1180107F1080039
:100D100004F014F80028D8D10F2E08D8654B1E70A7
:100D2000D9F80030A3F51673C9F80030D0E7FB1DE1
:100D3000F8710146072200930346284602F062FB41
:100D4000F979404602F03EFAC2E7EB8A282B26D01A
:100D500010D8012B1ED0052BBAD1BFF34F8F5649A7
:100D6000564BCA6802F4E0621343CB60BFF34F8F67
:100D700000BFFDE7302BABD16B7EE946504C013311
:100D8000627BDBB2934203D1EA7E237B9A420BD093
:100D9000CD469DE729464046FFF7DAFD98E729460C
:100DA0004046FFF78FFE93E74FF0000807F1180366
:100DB00010222846A7F8188041460093012302F02C
:100DC00021FBAE8A023EB6B2F31C9B109B00073398
:100DD000DB08A9EBC3039D460DF1080A1FFA88F34F
:100DE0004FEAC8019E4201F110010AD90AEB08033B
:100DF0000822284608F101080093002302F002FBB4
:100E0000ECE794F8D70000F079FBD4F8D830054629
:100E10001BB994F8D70000F081FBD4F8D8303344E4
:100E20009D4204D294F8D700013000F077FB4FEADE
:100E3000960B4FF000081FFA88F18B45D4E9003279
:100E400009D90AEB8801012203EB880008F10108A7
:100E500000F0A2FBEFE7F31894F8D70042F100028C
:100E6000C4E90032D4F8D83006EB0308C4F8D880BF
:100E700000F044FB804509D394F8D730D4F8D8006B
:100E80000133401B84F8D730C4F8D800FF2E0D4D35
:100E900009D80023237300F053FB01F07BFE288167
:100EA00008B9FFF797FC23689B0A01332B810023C5
:100EB000A3606DE79532002000ED00E00400FA0524
:100EC000285C00208422002098320020F8B50E4CC7
:100ED00002260E4FA4F5805343F8307C237E3BB9A5
:100EE00065692DB1284601F0D9FB284603F00EFFB5
:100EF0002046A4F5A55401F0D1FB012EA4F1100465
:100F000000D1F8BD0126E5E7A8570020684F00088A
:100F1000014B1870704700BF90220020334BF0B592
:100F20001C7B85B034B1324B0E221A81002420463E
:100F300005B0F0BD2F4A02AB1068516803C3082307
:100F40002D492E480DEB030203F008FF054630B98A
:100F5000274B0A222A481A8101F028FBE6E701699B
:100F6000B1F5E01F06D9224B0B2226481A8101F069
:100F70001DFBDCE7438B40F21342934207D01C4930
:100F80000C2008811946204801F010FBCFE71F4ACA
:100F9000024402F11003994204D2154B10221C485E
:100FA0001A81E4E7103920468E1A144901F0DCFD5D
:100FB00005F1180107463246204601F0D5FDAB6821
:100FC000BB4202D1EB6883420AD0094B0D221A8141
:100FD0003B4600900F48D5E9021201F0E7FAA5E779
:100FE0000D48012401F0E2FAA1E700BF285C0020CF
:100FF000842200200D4F0008DCFF1B0000000408C5
:101000007C4E0008884E00089A4E00080800FCF745
:10101000B84E0008D54E0008FE4E000810B54FF03F
:1010200040540C4B22689A4212D1627D0A4B0B4805
:101030001A70C922237D0E30094900F8023C00F0E5
:1010400091FAE0220021204600F09EFA012010BD16
:101050000020FCE79AAD44C590220020285C0020C7
:101060001600003037B502231D4C1E4D01222046CC
:101070001D496B71236804F580545B689847D4F868
:10108000B034012218495B6804F596609847002344
:1010900016494FF480520193154B16480093164B96
:1010A00002F068F8154B197811B1124802F08AF86D
:1010B00001F05CFC0446FFF723FC4FF4C873B0FB5F
:1010C000F3F202FB130304F5167010FA83F00C4BD5
:1010D000186003F013FA08B10F232B8103B030BD61
:1010E000C83200208422002040420F0094220020B9
:1010F000790B00089C3200207D0C00089022002013
:10110000983200202DE9F04F224D2DED028B93B047
:10111000DFF88CA0204F284602F02CF90346002867
:1011200046D000241D4E0E94A046ADF84440A14682
:10113000CDE90F44027B8DF844200FAA99684068DE
:1011400003C21B6843F000430E93336804F22C542F
:10115000D3F810B001F00CFC10EB0A02CDF80090AF
:10116000304606F5A55641F100030EA9D84740F6D2
:1011700058230028C8BF48F0010810369C42E4D12B
:10118000B8F1000F0ED0284602F0F8F887F800906A
:10119000C1E700BF9C320020175D0020C83200204C
:1011A00040420F003B78072B00F2398101333B703E
:1011B00000230DF12C084FF0010A0A93ADF83430EA
:1011C0000B93C8F804309FED9B8B00269F4C37464D
:1011D00023684FF0000B0DF11D0207A920468DF882
:1011E0001CA08DF81DB08DED008BD3F808905B46E8
:1011F000C8479DF81C90B9F1000F1ED01022594627
:101200000EA800F0C1F9236808AA0AA95F69204660
:101210000DF11E03B8470FAB4F4698E8030083E873
:1012200003009DF834300EA928468DF844300A9BFF
:101230000E93DDE9082302F069FA06F22C5640F617
:10124000582304F5A5549E4204F11004C0D1002F88
:10125000BBD1284601F0BEFF002840D17C4E01F0F2
:1012600085FB336898423AD301F080FB0446FFF7D0
:1012700047FB4FF4C87304F516748DF82870B0FB63
:10128000F3F202FB130314FA83F33360714E3778E1
:1012900017B901238DF82830C7F110040EA8FFF705
:1012A00047FB0EABE4B20DF12900D919062C28BF7B
:1012B00006242246013400F055F90AABE4B2284670
:1012C0000393182304940293634B01930123009327
:1012D0005AA3D3E9002301F0C3FF0023337001F0C8
:1012E00045FB5E4A1368C31AB3F57A7F30D31060AA
:1012F00001F03EFB02460B46284602F049F828461C
:1013000001F068FF20B3564B0EAE564C1B7B002BF2
:1013100014BF03230223637101F028FB4FF47A7397
:1013200001223146B0FBF3F02060204601F0C8FBFB
:10133000182380B202934C4B019340F25513CDE930
:101340000360009328463FA3D3E9002301F088FF00
:10135000FFF756FC0826C0F307238DF8380000225B
:10136000C0F30740DFF804914FF4807A8DF83930EC
:101370008DF83A00A6F10807332F54D9A7F13404A9
:101380001923B4FBF3F103FB1143002B4DD0641A76
:101390004FF01808B4FBF8F890450BD0FFF730FC7D
:1013A000C0F307238DF83800C0F307408DF83930BB
:1013B0008DF83A001822B4FBF2F302FB134312AA91
:1013C00004F0070402EBD3034246C4F1080413F807
:1013D000103C43FA04F404F00104002C07F1010767
:1013E000A9F81AA00CBF4FF000730023BE4243EAD5
:1013F0004424C9F81840A9F818A0BDD10836A02E79
:10140000B8D1174C237B2BB1FFF70EFB237B002BAE
:101410007FF47EAE13B0BDEC028BBDE8F08F2846A2
:1014200001F0ACFFC4E60024D7E70124D5E700BFF4
:10143000AFF300800000000000000000401DA1206C
:1014400026812A0BF1C6A7C1D068080FC832002038
:10145000983200209532002094320020085D002050
:10146000285C002084220020165D00200004025821
:1014700008B5064800F0CCFB054800F0C9FB054A5A
:1014800005490020BDE8084003F03ABCC8320020FE
:1014900078470020585D0020CD0E000870B5104C34
:1014A0000025104E02F046FE2080306823888342DB
:1014B0000CD800252088013802F038FE2388054426
:1014C000013BB5F5802F2380F4D370BD02F02EFED2
:1014D000336805440133B5F5802F3360E5D3E8E781
:1014E000445D0020185D002002F002BF00F10060A2
:1014F000920000F5802002F07FBE0000054B1A68C4
:10150000054B1B889B1A834202D9104402F00EBE81
:1015100000207047185D0020445D002038B5074D5D
:1015200004462868204402F007FE28B928682044B1
:10153000BDE8384002F012BE38BD00BF185D002083
:10154000064991F8243033B100230822086A81F853
:101550002430FFF7CBBF0120704700BF1C5D002087
:1015600070470000002310B5934203D0CC5CC454F4
:101570000133F9E710BD000003460246D01A12F904
:10158000011B0029FAD1704702440346934202D05E
:1015900003F8011BFAE770472DE9F8431F4D144685
:1015A0000746884695F8242052BBDFF870909CB31C
:1015B00095F824302BB92022FF2148462F62FFF7EF
:1015C000E3FF95F824004146C0F1080205EB8000D6
:1015D000A24228BF2246D6B29200FFF7C3FF95F879
:1015E0002430A41B17441E449044E4B2F6B2082EE3
:1015F00085F82460DBD1FFF7A3FF0028D7D108E0EE
:101600002B6A03EB82038342CFD0FFF799FF0028B8
:10161000CBD10020BDE8F8830120FBE71C5D002052
:10162000202383F3118862B670470000002383F300
:10163000118862B6704700000120704770470000B3
:1016400010B41346026814680022A4465DF8044BE7
:101650006047000000F5805090F859047047000082
:1016600000F5805090F852047047000000F580505B
:1016700090F95804704700004E20704700F58052E2
:1016800008B5FFF7CDFFD2F89834D2F89404184487
:10169000D2F890341844D2F878341844D2F8883408
:1016A0001844D2F884341844FFF7C0FF08BD000086
:1016B0002DE9F74F0C4600F580511F46054691F87D
:1016C00052349046BDF830909BB1D1F87434013358
:1016D000C1F8743423689A0006D4237B082B0BD9F5
:1016E000627B0AB10F2B07D9D1F878340133C1F8E6
:1016F00078344FF0FF300FE0FFF792FFEB6AD3F83A
:10170000C42012F4001A0AD0D1F87C34002001332E
:10171000C1F87C34FFF78AFF03B0BDE8F08F226880
:101720004FF0480BD3F8C460002A6B6AC6F3044636
:10173000B4BF42F0804292041BFB063BCBF8002072
:1017400023685B004FEA066344BF42F00052CBF8C7
:101750000020227B43EA02437201CBF80430607B15
:1017600018B343F44013CBF80430D1F8A434013358
:10177000C1F8A434AB1803F58353197B41F0200161
:101780001973207B019200F06DFF0330019A8010E5
:101790005FFA8AF30AF1010A83420DDA04EB83014E
:1017A0000BEB830349689960F2E7AB1803F58353A9
:1017B000197B60F34511E3E70121EB6A04F10C00AA
:1017C000B140C3F8D010AB18214603F58253C3E9EA
:1017D000048705EB461303F58253183351F804CB05
:1017E000814243F804CBF9D109882A44284619805C
:1017F00041F26803D65002F5805209F0030392F8D3
:101800006C1043F0100321F01F010B43214682F8B6
:101810006C304246FFF70AFF3B46CDF8309003B0EC
:10182000BDE8F04F00F0E4BE2DE9F04700F580562A
:10183000044696F85254002D40F00181037C032B9E
:1018400040F092802B4628462F465FFA83FC944551
:1018500010DA01EBCC0E51F83CC0BCF1000F04DBF8
:10186000DEF804C0BCF1000F02DB01370133ECE706
:101870000130FBE7FFF7D4FEE36AF0B9D3F880004C
:1018800040F00200C3F880004E23E06A002F6ED1C2
:10189000D0F8803043F00103C0F88030694B6A4AC9
:1018A0001B6803F1805303F52C539B009342A36202
:1018B00040F2AF80654801F053F84D2842D8DFF878
:1018C00084814FEA004EDFF88891D8F800C04EEAD4
:1018D0008C0EC3F884E00CF1805303F52C539B006D
:1018E000636100EB0C03D4F82CC0C8F80030C0F1E1
:1018F0004E03DCF8800040F03000CCF880004FF060
:10190000000CD4F81480E6465FFA8CF08242BCDD0D
:1019100001EBC00A51F83000002810DBDAF804A00F
:10192000BAF1000F0BDA09EA00400AF07F0A40EA38
:101930000A0040F0084048F82E000EF1010E0CF1AC
:10194000010CE1E79A6922F001029A6101F00EF8B8
:101950000646E36A9B69D90704D501F007F8831BA3
:10196000FA2BF6D9FFF762FE2846BDE8F087B7EB01
:10197000530F3DD2DFF8CCE04FEA074CDEF80030E1
:101980004CEA830CC0F888C003F1805003EB470396
:10199000002700F52C50CEF80030BC468000A06136
:1019A000E06AD0F8803043F00C03C0F88030D4F8FF
:1019B00018E0FBB29A427FF771AF51F8330001EBA8
:1019C000C3080028D8F8043001DB002B0EDB20F020
:1019D000604023F0604340F0005043F000434EF875
:1019E0003C000EEBCC000CF1010C43600137E0E74A
:1019F000836923F00103836100F0B8FF0646E36AC0
:101A00009B69DA07AED500F0B1FF831BFA2BF6D93C
:101A1000A8E7E26A936923F00103936100F0A6FF4F
:101A20000746E36A9B69DB0705D500F09FFFC31BF0
:101A3000FA2BF6D996E7012586F8525492E700254D
:101A400092E700BF545D0020FCB50040184F00082D
:101A50000000FF0713B500F580540191606C00F0A1
:101A600053FE1F280AD920220199606C00F0C2FEA3
:101A7000A0F120035842584102B010BD0020FBE7FE
:101A800000F5805008B5FFF7CBFD406C00F010FE6C
:101A9000BDE80840FFF7CABD0022026082814260B3
:101AA000826070470022002310B5C0E900230023A4
:101AB00004460C3020F8043CFFF7EEFF204610BD32
:101AC0002DE9F047074688B09A46884607F58054C6
:101AD00068469146FFF7A4FDFFF7E4FF606C00F055
:101AE000F9FD1F282DD920226946606C00F006FF01
:101AF000202826D194F852341BB303AD444605ABDD
:101B00002E46083403CE9E4244F8080C44F8041CC8
:101B10003546F5D13068414620603846B388A38009
:101B2000DDE90023C9E90023BDF808304A46AAF8D8
:101B30000030FFF77BFD534608B0BDE8F04700F0EA
:101B400045BD0020FFF772FD08B0BDE8F08700003A
:101B50002DE9F84F0023064600F5815405468846D6
:101B60001034C0E90133274B46F8303B374638463E
:101B70002037FFF797FFA742F9D105F580544FF4BE
:101B8000805305F5A3594FF0000A266300266764C9
:101B900005F5835709F110094FF0000B1037E66384
:101BA000C4E90D36012384F8403084F84830A7F1A9
:101BB0001800203747E910ABFFF76EFF47F8286C95
:101BC0004F45F4D1B8F1010F84F85884A4F85A6451
:101BD000A4F85C64A4F85E6484F86064A4F86264A9
:101BE000A4F86464A4F8666484F8686402D90648BA
:101BF00000F0B6FE054B284653F82830EB62BDE8EE
:101C0000F88F00BF684F00083C4F0008584F00088D
:101C1000044B10B5197804464A1C1A70FFF798FF58
:101C2000204610BD515D00202DE9F04700295FD00E
:101C3000304F3148B7FBF1F581428CBF0A201120AB
:101C4000431EB5FBF0FC00FB1C50DCB220B1022BA4
:101C50001846F5D8002037E00CF1FF35B5F5806F58
:101C600032D2C4EBC4094FF47A7009F103034FEA8E
:101C7000E308C3F3C70308F1010AA4EB030E08FB52
:101C800000085FFA8EF65AFA8EFEB8FBFEFEBEF52D
:101C9000617F1BDC1FFA8EF4581C56FA80F00CFB97
:101CA00000FCB7FBFCFC6145D4D1013BDBB20F2B40
:101CB000D0D8711E0020C9B2072905D810710120A3
:101CC0001480558053719171BDE8F08709F1FF339D
:101CD0004FEAE30EC3F3C7030EF10108E41A0EFB4B
:101CE0000000E6B258FA84F4B0FBF4F4A4B2D3E7EF
:101CF0000846E9E700B4C4043F420F0038B540F29B
:101D00007772C36A154CC3F8BC200722C36AC3F8B4
:101D1000C8202268C16A930043F4C023C1F8A030F0
:101D200002F1805302F16C01C56A03F52C53EA32CB
:101D300089009B00226041F0E061094AC361C5F857
:101D4000C01003F5D87103F56A7341629342836250
:101D500002D9044800F004FE38BD00BF545D0020E5
:101D6000FCB50040184F00082DE9F04F00F58055F4
:101D7000994689B0044695F858348A469046022B15
:101D800004D90027384609B0BDE8F08F9E4A52F8C2
:101D9000231009B942F823009C49C4F80CA00B7821
:101DA00084F81090C3B9FFF73BFC994BD3F8EC20B3
:101DB00042F48072C3F8EC20D3F8942042F480728D
:101DC000C3F89420D3F8942022F48072C3F89420AE
:101DD00001230B70FFF72AFC95F851346BB9FFF71C
:101DE0001FFC8C4A95F85834D35CEBB1012B24D0FE
:101DF000012385F85134FFF719FCFFF711FCE26A63
:101E0000936923F01003936100F0B0FD0746E36A85
:101E10009E6916F0080617D000F0A8FDC31BFA2B28
:101E2000F5D9FFF703FCACE70221132001F0F8FE1F
:101E30000221152001F0F4FEDAE70221142001F05E
:101E4000EFFE02211620F5E79A6942F001029A613D
:101E500000F08CFD0746E36A9A69D00705D400F0CC
:101E600085FDC31BFA2BF6D9DBE79A69002704F539
:101E7000825B42F002020BF1100B9A61E36A5F652C
:101E8000FFF7D4FB686C00F013FC202200216846A9
:101E9000FFF77AFB02A8FFF7FFFD6A460BEB06038C
:101EA0000DF1180E069794460833BCE80300F4457C
:101EB00043F8080C43F8041C6246F4D1DCF8000037
:101EC00020361860B6F5806F9CF804201A71DCD1BA
:101ED000002304F5A252514620461A3285F85034A8
:101EE00085F85334FFF7A0FE074690B9E26A93697C
:101EF00023F00103936100F039FD0546E36A9B6915
:101F0000D9077FF53EAF00F031FD431BFA2BF5D921
:101F100037E795F85F6495F85E243602C5F86CA43F
:101F2000E36A46EA426695F860241643B5F85C24F5
:101F300046EA0246DE61B8F1000F29D004F5A3524B
:101F4000414620460232FFF76FFE90B9E26A93697C
:101F500023F00103936100F009FD0546E36A9B69E4
:101F6000DA077FF50EAF00F001FD431BFA2BF5D920
:101F700007E795F8683495F867141B01C5F8708475
:101F8000E26A43EA0123B5F8641443EA0143D360EB
:101F9000E36A00262046C3F8BC60FFF7AFFE85F871
:101FA00059646FF04042E36AB9F1030F1A651A4AA7
:101FB000E36A5A654FF00222E36A9A654FF0FF32F6
:101FC000E36AC3F8E0204FF00302E36ADA65E26AED
:101FD000936943F4407393613FF4D4AEE26A93692A
:101FE00023F00103936100F0C1FC0646E36A9B699C
:101FF000DB0705D500F0BAFC831BFA2BF6D9C0E647
:10200000012385F85234BDE6485D0020505D002074
:1020100000440258504F0008550200022DE9F04FCD
:10202000054689B090469946002741F2680A00F5B6
:102030008056EB6AD3F8D830FB40D8074AD505EB79
:1020400047124FEA471B52441379190742D4D6F876
:1020500080340133C6F8803413799A0605EB0B02FD
:1020600048BFD6F8A834524444BF0133C6F8A83458
:10207000137943F008031371DB0723D596F8533423
:1020800003B305F582546846FFF70CFD03AB183423
:102090005C4404F1080C2068083454F8041C1A4607
:1020A000644503C21346F6D120686946106028468D
:1020B000A2889A800123ADF808302B68CDE9008909
:1020C000DB6B9847D6F8543423B1D6F89C340133EF
:1020D000C6F89C340137202FABD109B0BDE8F08F92
:1020E0002DE9F04F0F468DB0044600F041FC8246CA
:1020F0008946002F5BD1E36AD3F8A02012F4FE0FCB
:1021000003D100200DB0BDE8F08FD3F8A4209201D8
:1021100041BF04F58051D1F894240132C1F89424D0
:10212000D3F8A4205606ECD0D3F8A450E669C5F342
:1021300005254823E8464FF0000B03FB05664046A3
:10214000FFF7AAFC326851004ABF22F06043C2F395
:102150008A4343F00043920048BF43F0804300931A
:10216000736813F400131BBF012304F580528DF82C
:102170000D308DF80D301EBFD2F8AC340133C2F8EB
:10218000AC34F38803F00F038DF80C309DF80C008D
:1021900000F068FA5FFA8BF3984225D9F2180CA97F
:1021A0000BF1010B127A0B4403F82C2CEEE7012FF4
:1021B000A7D1E36AD3F8B02012F4FE0FA1D0D3F870
:1021C000B420950141BF04F58051D1F89424013227
:1021D000C1F89424D3F8B420500692D0D3F8B45068
:1021E000266AC5F30525A4E7EFB9E36AC3F8A8504A
:1021F00004A807ADFFF756FC98E80F0007C52B8031
:102200000023204604A9ADF81830236804F5805453
:10221000DB6BCDE904A9984758B1D4F88C3401336D
:10222000C4F88C346EE7012FE2D1E36AC3F8B850EA
:10223000DEE7D4F8903401200133C4F8903461E72C
:10224000F8B505460F4600F5805401263946284664
:10225000FFF746FF10B184F85364F7E7D4F854341D
:1022600023B1D4F89C340133C4F89C34F8BD000089
:10227000C36AF0B51A6C12F47F0F2BD01B6C00F5FB
:10228000805441F268054FF0010CC4F8A0340023DB
:10229000471900EB43125E012A44117911F0020F35
:1022A00015D0490713D4B959C66A0CFA01F1D6F80A
:1022B000CCE011EA0E0F0AD0C6F8D410117941F023
:1022C00004011171D4F888240132C4F88824013340
:1022D000202BDED1F0BD00002B4B70B51E561B5CD1
:1022E000012B30D8294D2A4A55F8233052F8264080
:1022F00013B349B3236D9A0510D54FF400732365CA
:1023000000F036FB50EA01020B4602D0013861F1C1
:102310000003024655F82600FFF780FE236D9B015F
:102320002CD54FF0007255F82630226503F5805306
:10233000012283F8592421E001232365102323651A
:102340004FF48053236570BD236DDA0702D4236DEB
:102350005B0706D50523002155F826002365FFF706
:102360006FFF236DD80602D4236D590606D550237E
:10237000012155F826002365FFF762FF55F8260076
:10238000BDE87040FFF774BF544F0008485D00205F
:10239000584F000808B5FFF743F9FFF769FFBDE89C
:1023A0000840FFF743B90000C36AD3F8C00010F03B
:1023B0007C5005D0D3F8C40080F40010C0F3405026
:1023C0007047000000F5805008B5FFF729F9406C10
:1023D00000F080F9FFF72AF943090CBF0120002023
:1023E00008BD000000F5805393F8592462B1C16A1A
:1023F0008A6922F001028A61D3F898240132C3F875
:102400009824002283F85924704700002DE9F743EF
:1024100000F5825198460025FFF702F9103141F28C
:10242000680E4FF0010900F5805C00EB4514744420
:1024300023795E071CD4DB061AD58E69C36A09FAB4
:1024400006F6D3F8CC703E4212D04F6801970F6861
:102450009742019F77EB08070AD2C3F8D46023792B
:1024600043F004032371DCF884340133CCF8843462
:1024700001352031202DD8D103B0BDE8F043FFF75E
:10248000D5B80000F8B51E4600230F460546137068
:102490001446FFF797FF80F0010038701EB1284600
:1024A000FFF782FF2070F8BD2DE9F04F994685B007
:1024B0000B780E468046174601931378DDE90EBA75
:1024C000029300F055FA337804460D4613B93B7871
:1024D000002B41D022462B464046FFF797FFFFF7DF
:1024E00059FFFFF77FFF4B463A463146FFF7CAFFD9
:1024F00033782BB1019B1BB1012005B0BDE8F08FF3
:102500003B7813B1029B002BF6D108F5805303935F
:102510005C4575EB0A031FD2039BD3F85404D8B172
:10252000BBEB04020368D9686AEB050388474B4696
:102530003A4631464046FFF7A5FF337813B1019B79
:10254000002BD9D13B7813B1029B002BD4D100F0E2
:102550000FFA04460D46DBE70020CEE7002108B560
:102560000846FFF7B9FEBDE8084001F02FBB0000A8
:1025700008B501210020FFF7AFFEBDE8084001F0DB
:1025800025BB000008B500210120FFF7A5FEBDE82E
:10259000084001F01BBB0000012108B50846FFF709
:1025A0009BFEBDE8084001F011BB00000FB4002005
:1025B00004B0704713B56C46031D84E8060094E828
:1025C000030083E80500012002B010BD73B58568E3
:1025D000019155B11B885B0707D4D0E900369B6B8E
:1025E0009847019AC1B23046A847012002B070BD99
:1025F000F0B5866889B005460C465EB1BDF8383046
:102600005B070AD4D0E900379B6B98472246C1B2DA
:102610003846B047012009B0F0BD0022002301F187
:102620000806CDE9002300230A46ADF8083003ABC5
:102630001068083252F8041C1C46B24203C42346F8
:10264000F6D1106820609288A28000F093F90423EC
:10265000ADF808302B68CDE90001DB6B69462846F0
:102660009847D7E7082817D909280CD00A280CD092
:102670000B280CD00C280CD00D280CD00E2814BF21
:102680004020302070470C207047102070471420E5
:1026900070471820704720207047000010B5037C59
:1026A000044613B9006802F041FB204610BD00004B
:1026B0000023BFF35B8FC360BFF35B8FBFF35B8F00
:1026C0008360BFF35B8F7047BFF35B8F0068BFF31E
:1026D0005B8F704770B505460C30FFF7F5FF044679
:1026E00005F108063046FFF7EFFFA04206D96D68F6
:1026F0003046FFF7E9FF2544281A70BD3046FFF742
:10270000E3FF201AF9E7000070B505464068A0B164
:1027100005F10C0605F10800FFF7D6FF0446304628
:10272000FFF7D2FF844204F1FF34304694BF6D6856
:102730000025FFF7C9FF2C44201A70BD38B50C46A0
:102740000546FFF7C7FFA04210D305F10800FFF7C9
:10275000BBFF04446868BFF35B8FB4FBF0F100FB80
:1027600011440120AC60BFF35B8F38BD0020FCE753
:102770002DE9F041144607460D46FFF7C5FF844298
:1027800028BF0446D4B1B84658F80C6B4046FFF752
:102790009BFF3044286040467E68FFF795FF331A60
:1027A0009C4203D801206C60BDE8F081A41B6B60E3
:1027B0003B682044AB60E8600220F5E72046F3E781
:1027C00038B50C460546FFF79FFFA04210D305F130
:1027D0000C00FFF779FF04446868BFF35B8FB4FB1C
:1027E000F0F100FB11440120EC60BFF35B8F38BDBA
:1027F0000020FCE72DE9FF418846694607466C4604
:10280000FFF7B6FF002506B204EBC606B4420AD0B5
:10281000626808EB050120680834FEF7A3FE54F84F
:10282000043C1D44F2E729463846FFF7C9FF284615
:1028300004B0BDE8F0810000F8B505460C300F4645
:10284000FFF742FF05F1080604463046FFF73CFF5C
:10285000A042304688BF6C68FFF736FF201A386008
:1028600020B12C683046FFF72FFF2044F8BD000050
:1028700073B5144606460D46FFF72CFF84420190BF
:1028800028BF0446DCB101A93046FFF7D5FF019B04
:1028900033B93268C5E90233C5E9002401200CE0F0
:1028A0009C42286038BF0194019884426860F5D941
:1028B0003368241A0220AB60EC6002B070BD204681
:1028C000FBE700002DE9FF410F4669466C46FFF724
:1028D000CFFF00B2002604EBC005AC4209D0D4F80B
:1028E0000480B81954F8081B42464644FEF73AFEE5
:1028F000F3E7304604B0BDE8F081000038B5054686
:10290000FFF7E0FF044601462846FFF717FF204681
:1029100038BD000000B59BB0EFF30981682268461E
:10292000FEF720FEEFF30583014B9B6BFEE700BF34
:1029300000ED00E008B5FFF7EDFF000000B59BB02B
:10294000EFF3098168226846FEF70CFEEFF305837A
:10295000014B5B6BFEE700BF00ED00E0FEE700000F
:102960000FB408B5029801F04BFAFEE701F008BD7C
:1029700001F0E0BC01F0DEBC2DE9F0470D46044655
:1029800000219046284640F27912FEF7FDFD2346CD
:1029900020220021284604F1220700F06FFE231DAB
:1029A000022220212846C02600F068FE631D032273
:1029B0002221284600F062FEA31D0322252128467D
:1029C00000F05CFE04F1080310222821284600F0E4
:1029D00055FE04F1100308223821284600F04EFE6F
:1029E00004F1110308224021284600F047FE04F1BB
:1029F000120308224821284600F040FE04F1140387
:102A000020225021284600F039FE04F1180340220C
:102A10007021284600F032FE04F120030822B02184
:102A2000284600F02BFE04F121030822B821284695
:102A300000F024FE314608363B460822284601377E
:102A400000F01CFEB6F5A07FF4D1002704F1330A94
:102A500004F1320308223146284600F00FFE94F8B4
:102A600032304FEAC7099F4209F5A47615D3B8F171
:102A7000000F08D1314609F24F1604F59973072269
:102A8000284600F0FBFD27463B1B94F83221934279
:102A90000CD3F01DC008BDE8F0870AEB070308223D
:102AA00031462846013700F0E9FDD8E707F2331335
:102AB0003146082228460836013700F0DFFDE3E7FB
:102AC00013B50446084600212022234601900160E8
:102AD000C0F8031000F0D2FD231D0198022220212E
:102AE00000F0CCFD631D01980322222100F0C6FDF9
:102AF000A31D01980322252100F0C0FD019804F1D7
:102B000008031022282100F0B9FD072002B010BDF3
:102B1000F8B50E4605461446002181223046FEF7E0
:102B200033FD2B4608220021304600F0A7FD7CB97A
:102B30000F246B1C07220821304600F09FFD012363
:102B40005F1C6A78013B934204D3E01DC008F8BDC6
:102B50000824F4E7EB1921460822304600F08EFDE8
:102B600008343B46ECE7000030B50A44084D91427A
:102B70000DD011F8013B5840082340F30004013BFD
:102B80002C4013F0FF0384EA5000F6D1EFE730BD8C
:102B90002083B8ED384A73B510686B4651686A46B1
:102BA00003C308233549364802F0D8F8044670B903
:102BB000344A6B46106851686A4603C30823324999
:102BC0002F4802F0CBF8044630BB0A2022E003690C
:102BD000B3F5E01FECD8418B40F213429142E7D1AC
:102BE0002A4A024402F110018B42E1D3103B2449EE
:102BF00000209D1AFFF7B8FF04F1180106462A4687
:102C00000020FFF7B1FFA3689E42D1D1E36898424C
:102C1000CED1002002B070BD0369B3F5E01F22D809
:102C2000B0F8661040F2134291421ED1174A024496
:102C300002F15C018B421AD35C3B114900209D1AC2
:102C4000FFF792FF04F1640106462A460020FFF7D1
:102C50008BFFA268034696420BD1E068834214BF03
:102C60000D200020D6E70B20D4E70C20D2E710205F
:102C7000D0E70D20CEE700BF0D4F0008DCFF1B00A2
:102C800000000408A84F000890FF1B000800FCF794
:102C90002DE9F041456A15B94162BDE8F0814B6804
:102CA000AC4623F06047C3F38A464FEAD37EC3F3B2
:102CB000807816EA230638BF3E462B465A68BEEB9C
:102CC000D27F22F060440AD0002A18DAA40CB44261
:102CD00017D19D420FD10D60DEE71346EEE7A74204
:102CE00007D102F08044C2F3807242450BD054B148
:102CF000EFE708D2EDE7CCF800100B60CDE7B44267
:102D000001D0B442E5D81A689C46002AE5D1196082
:102D1000C3E700002DE9F047089D01F0070400EB30
:102D2000D1004FF47F494FEAD508224405F007054A
:102D3000944201D1BDE8F08704F0070705F0070AC7
:102D4000111B08EBD50E57453E4613F80EC038BF91
:102D50005646C6F108068E4228BF0E46E108415C81
:102D600034443544B94029FA06F721FA0AF1FFB292
:102D70008CEA010147FA0AF739408CEA010C03F8A2
:102D80000EC0D5E780EA0120082341F2210201B2FA
:102D9000013B4000002980B2B8BF504013F0FF0350
:102DA000F5D1704738B50C468D18A54200D138BD15
:102DB00014F8011BFFF7E6FFF7E7000042684AB18D
:102DC000136881894360438901339BB299424381EF
:102DD00038BF83811046704770B588B00446202202
:102DE0000D4668460021FEF7CFFB20460495FFF70D
:102DF000E5FF024660B16B46054608AE1C46083545
:102E000003CCB44245F8080C45F8041C2346F5D120
:102E1000104608B070BD0000082817D909280CD04A
:102E20000A280CD00B280CD00C280CD00D280CD064
:102E30000E2814BF4020302070470C20704710200F
:102E400070471420704718207047202070470000FA
:102E5000082817D90C280CD910280CD914280CD9FB
:102E600018280CD920280CD930288CBF0F200E2010
:102E70007047092070470A2070470B2070470C20CC
:102E800070470D20704700002DE9F843078C044679
:102E9000072F1ED900254FF6FF73D0E90298C5F120
:102EA0002006A5F1200029FA05F1083508FA06F6F2
:102EB00028FA00F0314301431846C9B2FFF762FF18
:102EC000402D0346EBD13A46E169BDE8F843FFF7F0
:102ED00069BF4FF6FF70BDE8F883000010B54B687E
:102EE00023B9CA8A63F30902CA8210BD04691A6849
:102EF0001C600361C38A013BC3824A60EFE70000A4
:102F00002DE9F84F1D46CB8A0F468146C3F30901D0
:102F1000924605290B4630D00020AAB207F11A04C8
:102F20009EB21FFA80F8042E0FD8904503F10103DA
:102F300006D30A44FB8A62F309030120FB821AE0EC
:102F40001AF800600130E654EAE79045F1D2A1F1A9
:102F5000050B1C237C68BBFBF3F203FB12BB1FFABF
:102F60008BF6002C45D14846FFF728FF044638B9B8
:102F700078606FF00200BDE8F88F4FF00008E6E7D8
:102F8000002606607860ADB24FF0000B454510D9C1
:102F90000AEB0803221D13F8011B08F101089155E3
:102FA000B1B21FFA88F81B292BD0454506F101065E
:102FB000F1D8FB8AC3F30902154465F30903BCE7A2
:102FC00001321C4692B22368002BF9D16B1F0B44CF
:102FD0001C21B3FBF1F301339BB29A42D3D2BBF174
:102FE000000FD0D14846FFF7E9FE20B9C4F800B081
:102FF000BFE70122E7E7C0F800B05E462060044664
:10300000C1E74545D5D94846FFF7D8FE08B9206045
:10301000AFE7C0F800B0002620600446B6E7000025
:103020002DE9F04F1C46074688462DED028B83B0F4
:103030005B690192002B00F09A80238C2BB1E2692E
:10304000002A00F09480072B35D807F10C00FFF719
:10305000B5FE054638B96FF00205284603B0BDEC51
:10306000028BBDE8F08F14220021FEF78DFA228C2E
:10307000E16905F10800FEF775FA208C48F000417F
:10308000013080B2FFF7E4FEFFF7C6FE013880B2E0
:1030900020840130287438466369228C1B782A44C6
:1030A00003F01F0363F03F03137269602946FFF7C3
:1030B000EFFD0125D1E74FF0000900F10C034FF0BF
:1030C000800A4E464D4608EE103A18EE100AFFF7F9
:1030D00075FE83460028BED014220021FEF754FA64
:1030E000002E3AD1019B0222ABF808300BF1080EFA
:1030F0001FFA82FC218C0CF10100BCF1060F80B29A
:1031000001D88E422BD3FFF7A3FE8E4208BF4FF0AB
:10311000400AFFF781FE62690138013512781BFA17
:1031200080F1013002F01F022DB242EA491289F00B
:1031300001094AEA020A48F0004281F808A059460B
:103140008BF810003846CBF804204FF0000AFFF748
:103150009FFD238CB342B8D17FE70022C6E7E16927
:10316000895D01360EF80210B6B20132C0E76FF089
:10317000010572E7F8B515460E46302200210446D7
:103180001F46FEF701FA069BB5F5001FA7606360B6
:1031900004F11000079B34BF6A094FF6FF72E66125
:1031A000A362002397B29A4206D800230360A78245
:1031B000E3822383E360F8BD0660013330462036A6
:1031C000F1E7000003781BB94BB2002BC8BF0170B8
:1031D0007047000000787047F8B50C46C96907468B
:1031E00011B9238C002B37D1257E1F2D34D8387888
:1031F00028BB228C072A2CD8268A36F003032BD131
:103200004FF6FF70FFF7CEFD20F0010031024FF6C0
:10321000FF72400441EA0561400C41EA4025234623
:1032200029463846FFF7FCFE002807DD626913785F
:103230000133DBB21F2B88BF00231370F8BD218A36
:103240002D0645EA012505432046FFF71DFE0246EF
:10325000E5E76FF00300F1E76FF00100EEE7000033
:1032600070B58AB0044616460021282268461D46DD
:10327000FEF78AF9BDF8383069462046ADF81030BF
:103280000F9B05939DF840308DF81830119B0793E4
:10329000BDF84830CDE90265ADF82030FFF79CFF5E
:1032A0000AB070BD2DE9F041D36905460C461646BB
:1032B0000BB9138C5BBB377E1F2F28D895F8008085
:1032C000B8F1000F26D03046FFF7DEFD337821023B
:1032D0000246284641EAC331338A41EA080141EAFD
:1032E000076141EA0341334641F08001FFF798FE50
:1032F00000280ADD3378012B07D172691378013376
:10330000DBB21F2B88BF00231370BDE8F0816FF084
:103310000100FAE76FF00300F7E70000F0B58BB0AB
:1033200004460D4617460021282268461E46FEF731
:103330002BF99DF84C30294620465A1E53425341E2
:103340006A468DF800309DF84030ADF81030119B82
:1033500005939DF848308DF81830149B0793BDF8FD
:103360005430CDE90276ADF82030FFF79BFF0BB06B
:10337000F0BD0000406A00B104307047436A1A682B
:10338000426202691A600361C38A013BC3827047CB
:103390002DE9F041D0F8208014461D46184E4146D4
:1033A000002709B9BDE8F081D1E90223A21A65EB33
:1033B0000303964277EB03031ED2036A8B420DD1BF
:1033C000FFF78CFD036A1B68036203690B60C38A05
:1033D0000161013B016AC3828846E2E7FFF77EFD97
:1033E0000B68C8F8003003690B60C38A0161013BB8
:1033F000C382D8F80010D4E788460968D1E700BF37
:1034000080841E002DE9F04F8BB00D4614469B467C
:10341000DDF850908046002800F01881B9F1000FC7
:1034200000F01481531E3F2B00F21081012A03D1BA
:10343000BBF1000F40F00A810023CDE90833B8F852
:103440001430B5EBC30F4FEAC30703D300200BB012
:10345000BDE8F08F2B199F42D8F80C3036BF7F1B88
:103460002746FFB21BB9D8F81030002B7AD0272D91
:103470004DD8C5F1280600232946B742009308AB72
:10348000D8F808002CBFF6B23E46A7EB060A354432
:1034900032465FFA8AFAFFF73DFCB8F8143028216B
:1034A00003F10053053BDB000493D8F80C30039381
:1034B000039B13B1BAF1000F2CD1D8F8100040B122
:1034C000BAF1000F05D008AB5246691A0096FFF713
:1034D00021FC38B2002FB9D066070AD00AAB62428D
:1034E00003EBD40102F0070211F8083C134101F884
:1034F000083C082C3DD9102C40F2B580202C40F21D
:10350000B780BBF1000F00F09C80082335E0BA467D
:103510000026C2E7049BE02B28BFE02306930B4460
:10352000AB42059315D95A1B0398691A0096924528
:1035300008AB00F1040034BF5246D2B20792FFF745
:10354000E9FB079A1644AAEB020A1544F6B25FFAA1
:103550008AFA049B069A05999B1A0493039B1B689D
:103560000393A5E700933A4608AB2946D8F808002C
:10357000ADE7BBF1000F13D00123B4EBC30F6BD049
:10358000082C12D89DF82030621E23FA02F2D507CB
:1035900006D54FF0FF3202FA04F423438DF82030B1
:1035A0009DF8203089F8003051E7102C12D8BDF872
:1035B0002030621E23FA02F2D10706D54FF0FF3207
:1035C00002FA04F42343ADF82030BDF82030A9F806
:1035D00000303CE7202C0FD80899631E21FA03F332
:1035E000DA0705D54FF0FF3202FA04F40C430894D1
:1035F000089BC9F800302AE7402C2AD0611EC4F18C
:103600002102A4F12103DDE9086526FA01F105FA9A
:1036100002F225FA03F311431943CB0711D5012216
:10362000A4F12003C4F1200102FA03F322FA01F10C
:10363000A2400B43524263EB430332432B43CDE999
:103640000823DDE90823C9E9002300E76FF0010042
:10365000FDE66FF00800FAE6082CA1D9102CB4D9C9
:10366000202CEED8C4E7BBF1000FAED0022384E7D4
:10367000BBF1000FBCD004237FE70000012A30B566
:10368000144638BF012485B00025402C28BF4024B3
:10369000012ACDE9025518D81B788DF80830630748
:1036A0000AD004AB624203EBD40502F0070215F81E
:1036B000083C934005F8083C03460091224600214F
:1036C00002A8FFF727FB05B030BD082AE4D9102A6D
:1036D00003D81B88ADF80830E1E7202A95BF1B68A6
:1036E000D3E900230293CDE90223D8E710B5CB68D4
:1036F0001BB98B600B618B8210BD04691A681C605A
:103700000361C38A013BC382CA60F0E72DE9F04F31
:1037100093B004460D46CDE903230B681806C3F3A6
:10372000C01147BFC3F3C03BC3F306264FF0020BE3
:103730000E46002B80F2FF8113F0C04940F0FB8160
:103740002A7B002A00F0F781BBF1020F03D020781A
:10375000B04240F0F381C3F30460079003F07F00B0
:10376000059059B3C3F3074A7606059B2A4446EAF7
:103770000B4692F80380002246EA83460023CDE9F7
:1037800008235FEAD81346EA0A06029369D0059B2C
:10379000524608A9204600935B466768B847002850
:1037A00000F0CF81276A87B9314604F10C00FFF79A
:1037B00013FB0746C8B96FF0020056E0C3F30F2AA7
:1037C000590608BF0AF0030ACEE73B699E420DD0B6
:1037D0003F68002FF9D1314604F10C00FFF7FCFAE5
:1037E00007460028E7D0236A3B602762FE7D08F089
:1037F0001F03C6F384060693F01A9B1B1FFA80FC76
:103800000028B8BF0CF120001FFA83FCB8BF00B23B
:10381000002BD7E90221BCBF0CF120031BB252EAF6
:10382000010636D0039EDFF8D8C2B21A049E66EBBA
:1038300001010026944576EB010C2AD395F80DE0A2
:1038400097F81AC0E64518D1029E002E79D00128BB
:103850001FDC7868E8B9A94E964270EB010216D3D6
:1038600037E0276A27B96FF00C0013B0BDE8F08F7E
:103870003B699E42BAD03F68F4E7A048904276EB9D
:10388000010201D30020F0E7029A002AFAD00F2BA0
:1038900018DCFA7D4FEA88033946204602F003021D
:1038A00003F07C031343FB75FFF718FB6B7BBB76C0
:1038B000029B3BB9FB7DC3F38402013262F38603B2
:1038C000FB75D0E76A7BBB7E9A42DBD1029B002B63
:1038D00037D04FEA9813022B33D0039B14220021D8
:1038E0000DA8BB60049BFB60FDF74EFE039B0AA97D
:1038F00020460A93049BADF83EA00B932B1D8DF838
:1039000040B00C932B7B013BDBB2ADF83C30069B07
:103910008DF84130079B8DF84230059B8DF8433080
:1039200094F82C3083F001038DF84430A368984755
:10393000FB7DC3F38403013303F01F039B02FB826F
:10394000A0E7FB7DC8F34012B2EBD31F40F0FC8030
:10395000C3F38403069A934240F0F98002994FEA38
:1039600098122B7B00294DD0D2075DD4032B40F257
:10397000F180039BAE1D394604F10C00BB6032465A
:10398000049BFB602B7B033BDBB2FFF7B9FA0028FB
:103990000CDA39462046FFF7A1FAFB7DC3F3840316
:1039A000013303F01F039B02FB8204E7AB88DDE9D0
:1039B00008843B834FF6FF73C9F12000A9F1200270
:1039C00028FA09F109F1080904FA00F024FA02F2D0
:1039D000014318461143C9B2FFF7D4F9B9F1400FBA
:1039E0000346E9D1B88231462A7B033AD2B2FFF7C7
:1039F000D9F9FB7DB882DA43C2F3C01262F3C71370
:103A0000FB753FE782B92E1D013B394604F10C00DE
:103A1000DBB23246FFF774FA0028BADB2A7B314664
:103A2000B88A013AD2B2E2E7F98A013BC1F309014F
:103A3000DAB204295CD8281D002307F11B069A423C
:103A400008D910F801CB013306F801C00131DBB20F
:103A50000529F4D1039993420A9138BF043304999C
:103A60002CBF002355FA83F30B9107F11B010C9136
:103A700079680E930D91291DFB8AADF83EA0C3F322
:103A800009038DF840B01A44069B8DF84130079B1E
:103A9000ADF83C208DF84230059B8DF8433094F80A
:103AA0002C3083F001038DF844300023B88A7B600A
:103AB0002A7B013AFFF776F93B8BB882834203D128
:103AC000A3680AA92046984720460AA9FFF70EFED8
:103AD000FB7DBA8AC3F38403013303F01F039B0207
:103AE000FB823B8B9A420CBF00206FF01000BCE6BB
:103AF0007B68002BAED0052006E000BF40420F00DF
:103B000080841E001C3033461E68002EFAD1091A2C
:103B10002E1D081D184401EB090C5FFA89F3BCF156
:103B20001B0F97D89A4295D916F8013B09F1010964
:103B300000F8013BEFE76FF0090096E66FF00A002E
:103B400093E66FF00B0090E66FF00D008DE66FF0DE
:103B50000E008AE66FF00F0087E600BFEFF30983DF
:103B6000054968334A6B22F001024A6383F30988EE
:103B7000002383F31188704700EF00E0202080F3DA
:103B8000118862B60D4B0E4AD96821F4E061090430
:103B9000090C0A430B49DA60D3F8FC2042F080722A
:103BA000C3F8FC20084AC2F8B01F116841F00101B7
:103BB00011601022DA7783F82200704700ED00E0F0
:103BC0000003FA0555CEACC5001000E0202310B567
:103BD00083F311880E4B5B6813F4006314D0F1EE8D
:103BE000103AEFF309844FF08073683CE361094BAE
:103BF000DB6B236684F3098800F0B4F810B1064B40
:103C0000A36110BD054BFBE783F31188F9E700BF03
:103C100000ED00E000EF00E00B0700080E070008D1
:103C2000090100F16043012203F56143C9B283F841
:103C3000001300F01F039A4043099B0003F1604307
:103C400003F56143C3F880211A607047024B0022DC
:103C5000C3E900339A6070475C5D002000238268EE
:103C60000374054B1B6899689142FBD25A68036044
:103C700042601060586070475C5D002008B52023EA
:103C800083F31188037C032B05D0042B0DD02BB9B3
:103C900083F3118808BD436900221A604FF0FF3397
:103CA0004361FFF7DBFF0023F2E7D0E90032136046
:103CB0005A60F3E7002382680374054B1B68996818
:103CC0009142FBD85A6803604260106058607047A8
:103CD0005C5D0020054B1969087418680268536020
:103CE0001A60186101230374FCF7FABC5C5D0020C4
:103CF0004B1C30B5044687B00A4D10D02B6901A883
:103D0000094A00F0FDF82046FFF7E4FF049B13B1D9
:103D100001A800F031F92B69586907B030BDFFF7F1
:103D2000D9FFF8E75C5D00207D3C000838B50C4DFC
:103D3000044641612B6981689A68914203D8BDE8C5
:103D40003840FFF78BBF1846FFF7B4FF01232C6103
:103D5000014623742046BDE83840FCF7C1BC00BFD3
:103D60005C5D0020044B1A681B6990689B68984250
:103D700094BF0020012070475C5D002010B5084C06
:103D8000236820691A6854602260012223611A7432
:103D9000FFF790FF01462069BDE81040FCF7A0BC8A
:103DA0005C5D002008B5FFF7DDFF18B1BDE80840F5
:103DB000FFF7E4BF08BD0000FFF7E0BFFEE700002B
:103DC00010B50C4CFFF742FF00F08CF880220A4936
:103DD000204600F03DF8012344F8180C0374FFF767
:103DE000CDFE002383F3118862B60448BDE810407D
:103DF00000F04EB8845D0020B44F0008C44F0008A6
:103E000008B572B6034B586200F086FA00F054FB16
:103E1000FEE700BF5C5D002000F0E8B8EFF3118022
:103E200020B9EFF30583202282F311887047000048
:103E300010B530B9EFF30584C4F3080414B180F36E
:103E4000118810BDFFF7AEFF84F31188F9E7000079
:103E500082600222028270478368A3F17C0243F8E9
:103E60000C2C026943F83C2C426943F8382C074A71
:103E700043F81C2CC268A3F1180043F8102C02224E
:103E800003F8082C002203F8072C7047F9060008F5
:103E900010B5202383F31188FFF7DEFF00210446CD
:103EA000FFF744FF002383F31188204610BD000074
:103EB000024B1B6958610F20FFF70CBF5C5D0020AF
:103EC000202383F31188FFF7F3BF000008B50146F4
:103ED000202383F311880820FFF70AFF002383F3D0
:103EE000118808BD054B4FF0FF3103F11402C3E9FF
:103EF00005220022C3E90712704700BF5C5D002065
:103F000070B51C4E05460C46C0E9032300F076FB55
:103F1000334653F8142F9A420DD130620A2C2CBF2D
:103F200000190A302A60C5E90124C6E90555BDE833
:103F3000704000F04DBB316A431AE31838BF1C468D
:103F40009368A34202D9081900F052FB73699A687A
:103F500094420CD85A68AC602B606A6015609A680D
:103F60005D60121B9A604FF0FF33F36170BDA41ABD
:103F70001B68ECE75C5D002038B51B4C6369984218
:103F80000DD08168D0E9003213605A600022C2600F
:103F90009A680A449A604FF0FF33E36138BD0368C2
:103FA0002246002142F8143F93425A60C16003D177
:103FB000BDE8384000F016BB9A688168256A0A445B
:103FC0009A6000F01BFB6369411B9A688A42E5D93D
:103FD000AB181D1A206A092D98BF01F10A02BDE82D
:103FE0003840104400F004BB5C5D00202DE9F04136
:103FF000184C002704F11406656900F0FFFA236AE3
:10400000AA68C11A8A4215D81344D5F80C802362D5
:10401000D5E9003213605A606369EF60B34201D1A1
:1040200000F0E0FA87F311882869C047202383F362
:104030001188E1E76169B14209D013441B1ABDE858
:10404000F0410A2B2CBFC0180A3000F0D1BABDE8ED
:10405000F08100BF5C5D002000207047FEE700009B
:10406000704700004FF0FF3070470000BFF34F8FE4
:10407000044B1A695107FCD1D3F810215207F8D12B
:10408000704700BF0020005208B50D4B1B78ABB93C
:10409000FFF7ECFF0B4BDA68D10704D50A4A5A60E8
:1040A00002F188325A60D3F80C21D20706D5064AAD
:1040B000C3F8042102F18832C3F8042108BD00BF0F
:1040C000185F0020002000522301674508B5114BFE
:1040D0001B78F3B9104B1A69510703D5DA6842F01F
:1040E0004002DA60D3F81021520705D5D3F80C212D
:1040F00042F04002C3F80C21FFF7B8FF064BDA6824
:1041000042F00102DA60D3F80C2142F00102C3F858
:104110000C2108BD185F0020002000520F289ABF14
:1041200000F5806040040020704700004FF400302C
:1041300070470000102070470F2808B50BD8FFF714
:10414000EDFF00F500330268013204D104308342F0
:10415000F9D1012008BD0020FCE700000F2870B550
:10416000054645D8FFF75AFE224CFFF77FFF06466B
:10417000FFF78AFF4FF0FF33072D6361C4F8143156
:1041800020D82361FFF772FF2B0243F02403E36082
:10419000E36843F08003E36023695A07FCD42846B0
:1041A000FFF764FF4FF40031FFF7B8FF00F060F94C
:1041B0003046FFF78BFFFFF73BFE2846BDE8704017
:1041C000FFF7BABFC4F81031FFF750FFA5F108039D
:1041D0001B0243F02403C4F80C31D4F80C3143F033
:1041E0008003C4F80C31D4F810315B07FBD4D6E758
:1041F000002070BD002000522DE9F84F40EA020374
:1042000005460C461746D80602D00020BDE8F88FB8
:1042100027F01F07DFF8D4B0FFF736FF2744BC4272
:1042200003D10120FFF752FFF0E720222946204664
:1042300000F084FD10B920352034F0E72B4605F15D
:1042400020021E68711CE0D104339A42F9D1FFF7B5
:10425000E5FD05F17843234AB3F5801F224B28BFC3
:104260009A4603F1040338BF9046A2F1080228BF22
:104270009846A3F108033ABF9146DA469946FFF7FC
:10428000F5FEC8F80060A5EB040CD9F8002004F195
:104290001C0142F00202C9F80020221FDAF8006077
:1042A00016F00506FAD152F8043F8A424CF8023063
:1042B000F4D1BFF34F8FFFF7D9FE4FF0FF32C8F8AC
:1042C0000020D9F8002022F00202C9F80020FFF7F0
:1042D000AFFD20222146284600F030FD0028AAD05C
:1042E00030469FE714200052102100521020005247
:1042F00010B5084C237828B11BB9FFF7C5FE012380
:10430000237010BD002BFCD02070BDE81040FFF7DB
:10431000DDBE00BF185F002038B5054D0024033412
:10432000696855F80C0B00F0B5F8122CF7D138BDC0
:10433000DC4F000870B5104E82B0FFF76FFD0546E8
:1043400000F05CF9326803469042336037BF0B4A95
:104350000A495168146836BF0131D1E90041516002
:104360000419284641F100010191FFF761FD204643
:10437000019902B070BD00BF1C5F0020205F0020CB
:1043800070B5124E82B0FFF749FD054600F036F9D0
:10439000326803469042336037BF0D4A0C4951687A
:1043A000146836BF0131D1E9004151600419284633
:1043B00041F100010191FFF73BFD4FF47A720023B8
:1043C00020460199FBF774FF02B070BD1C5F00200E
:1043D000205F00200244074BD2B210B5904200D1BA
:1043E00010BD441C00B253F8200041F8040BE0B2A9
:1043F000F4E700BF504000580E4B30B51C6F24044A
:1044000005D41C6F1C671C6F44F400441C670A4CE5
:1044100002442368D2B243F480732360074B904276
:1044200000D130BD441C51F8045B00B243F8205069
:10443000E0B2F4E7004402580048025850400058E7
:1044400007B5012201A90020FFF7C4FF019803B0BE
:104450005DF804FB13B50446FFF7F2FFA04205D058
:10446000012201A900200194FFF7C6FF02B010BD90
:104470000144BFF34F8F064B884204D3BFF34F8FE5
:10448000BFF36F8F7047C3F85C022030F4E700BFC2
:1044900000ED00E00144BFF34F8F064B884204D388
:1044A000BFF34F8FBFF36F8F7047C3F87002203098
:1044B000F4E700BF00ED00E070470000034B1B78FD
:1044C0001BB1034B4AF6AA221A6070472C5F0020EA
:1044D00000480058034B1A681AB9034AD2F8D0248E
:1044E0001A607047285F002000400258024B4FF4CA
:1044F0008032C3F8D02470470040025808B5FFF757
:10450000E9FF024B1868C0F3806008BD285F0020F7
:1045100070B5BFF34F8FBFF36F8F1A4A0021C2F8F7
:104520005012BFF34F8FBFF36F8F536943F40033C3
:104530005361BFF34F8FBFF36F8FC2F88410BFF387
:104540004F8FD2F8803043F6E074C3F3C900C3F351
:104550004E335B0103EA0406014646EA81750139E0
:10456000C2F86052F9D2203B13F1200FF2D1BFF311
:104570004F8F536943F480335361BFF34F8FBFF3C1
:104580006F8F70BD00ED00E0FEE700000A4B0B48A6
:104590000B4A90420BD30B4BC11EDA1C121A22F0AD
:1045A00003028B4238BF00220021FCF7EDBF53F815
:1045B000041B40F8041BECE7E0510008B85F002042
:1045C000B85F0020B85F00207047000000F0D8B846
:1045D000034B002258631A610222DA60704700BF61
:1045E000000C0040014B0022DA607047000C0040D4
:1045F000014B5863704700BF000C0040014B586AE4
:10460000704700BF000C00404B6843608B688360BC
:10461000CB68C3600B6943614B6903628B6943627A
:104620000B6803607047000008B53C4B40F2FF7117
:104630003B48D3F888200A43C3F88820D3F8882061
:1046400022F4FF6222F00702C3F88820D3F8882002
:10465000D3F8E0200A43C3F8E020D3F808210A4346
:10466000C3F808212F4AD3F808311146FFF7CCFFD1
:1046700000F5806002F11C01FFF7C6FF00F58060C5
:1046800002F13801FFF7C0FF00F5806002F154012C
:10469000FFF7BAFF00F5806002F17001FFF7B4FF89
:1046A00000F5806002F18C01FFF7AEFF00F580603D
:1046B00002F1A801FFF7A8FF00F5806002F1C40134
:1046C000FFF7A2FF00F5806002F1E001FFF79CFF19
:1046D00000F5806002F1FC01FFF796FF02F58C7196
:1046E00000F58060FFF790FF00F002F90E4BD3F861
:1046F000902242F00102C3F89022D3F8942242F0B3
:104700000102C3F894220522C3F898204FF06052AA
:10471000C3F89C20054AC3F8A02008BD00440258F5
:10472000000002582450000800ED00E01F000803BC
:1047300008B500F0CBFAFFF743FB0E4BD3F8DC20B3
:1047400042F04002C3F8DC20D3F8042122F04002FA
:10475000C3F80421D3F80431074B1A6842F0080269
:104760001A601A6842F004021A60BDE80840FFF7B8
:10477000B1BE00BF00440258001802487047000054
:10478000114BD3F8E82042F00802C3F8E820D3F830
:10479000102142F00802C3F810210C4AD3F810315E
:1047A000D36B43F00803D363C722094B9A624FF0DF
:1047B000FF32DA6200229A615A63DA605A6001229B
:1047C0005A611A60704700BF004402580010005C34
:1047D000000C0040094A08B51169D3680B40D9B2F2
:1047E0009B076FEA0101116107D5202383F311882C
:1047F000FFF712FB002383F3118808BD000C004073
:104800003A4B4FF0FF31D3F8802062F00042C3F8FA
:104810008020D3F8802002F00042C3F88020D3F833
:104820008020D3F88420C3F88410D3F88420002299
:10483000C3F88420D3F88400D86F40F0FF4040F4E0
:10484000FF0040F43F5040F03F00D867D86F20F0A1
:10485000FF4020F4FF0020F43F5020F03F00D867D5
:10486000D86FD3F888006FEA40506FEA5050C3F811
:104870008800D3F88800C0F30A00C3F88800D3F892
:104880008800D3F89000C3F89010D3F89000C3F8D4
:104890009020D3F89000D3F89400C3F89410D3F884
:1048A0009400C3F89420D3F89400D3F89800C3F888
:1048B0009810D3F89800C3F89820D3F89800D3F84C
:1048C0008C00C3F88C10D3F88C00C3F88C20D3F87C
:1048D0008C00D3F89C00C3F89C10D3F89C10C3F84C
:1048E0009C20D3F89C3000F0C9B900BF00440258A6
:1048F000614B0122C3F80821604BD3F8F42042F049
:104900000202C3F8F420D3F81C2142F00202C3F8DB
:104910001C210422D3F81C31594BDA605A689104E7
:10492000FCD5584A1A6001229A60574ADA60002280
:104930001A614FF440429A61514B9A699204FCD536
:104940001A6842F480721A604C4B1A6F12F4407F5E
:1049500004D04FF480321A6700221A671A6842F0B6
:1049600001021A60454B1A685007FCD500221A61F3
:104970001A6912F03802FBD1012119604FF0804111
:1049800059605A67414ADA62414A1A611A6842F428
:1049900080321A60394B1A689103FCD51A6842F4C8
:1049A00080521A601A689204FCD53A4A3A499A62CF
:1049B00000225A6319633949DA6399635A64384AA1
:1049C0001A64384ADA621A6842F0A8521A602B4B0D
:1049D0001A6802F02852B2F1285FF9D148229A6190
:1049E0004FF48862DA6140221A622F4ADA644FF08B
:1049F00080521A652D4A5A652D4A9A6532232D4AEE
:104A00001360136803F00F03022BFAD11B4B1A69D2
:104A100042F003021A611A6902F03802182AFAD128
:104A2000D3F8DC2042F00052C3F8DC20D3F8042194
:104A300042F00052C3F80421D3F80421D3F8DC205B
:104A400042F08042C3F8DC20D3F8042142F08042D7
:104A5000C3F80421D3F80421D3F8DC2042F000424B
:104A6000C3F8DC20D3F8042142F00042C3F804214B
:104A7000D3F80431704700BF008000510044025851
:104A80000048025800C000F0040000010000FF01CF
:104A90000088900832206000630209011D020400B2
:104AA00047040508FD0BFF01200000200010E00076
:104AB00000010100002000524FF0B04208B5D2F8CA
:104AC000883003F00103C2F8883023B1044A136828
:104AD0000BB150689847BDE80840FFF777B800BFB2
:104AE000305F00204FF0B04208B5D2F8883003F0B4
:104AF0000203C2F8883023B1044A93680BB1D0682E
:104B00009847BDE80840FFF761B800BF305F00205C
:104B10004FF0B04208B5D2F8883003F00403C2F871
:104B2000883023B1044A13690BB150699847BDE836
:104B30000840FFF74BB800BF305F00204FF0B04295
:104B400008B5D2F8883003F00803C2F8883023B1E2
:104B5000044A93690BB1D0699847BDE80840FFF754
:104B600035B800BF305F00204FF0B04208B5D2F832
:104B7000883003F01003C2F8883023B1044A136A66
:104B80000BB1506A9847BDE80840FFF71FB800BF57
:104B9000305F00204FF0B04310B5D3F8884004F4E4
:104BA0007872C3F88820A30604D5124A936A0BB121
:104BB000D06A9847600604D50E4A136B0BB1506B50
:104BC0009847210604D50B4A936B0BB1D06B9847DD
:104BD000E20504D5074A136C0BB1506C9847A30546
:104BE00004D5044A936C0BB1D06C9847BDE81040D3
:104BF000FEF7ECBF305F00204FF0B04310B5D3F8A4
:104C0000884004F47C42C3F88820620504D5164A23
:104C1000136D0BB1506D9847230504D5124A936D5F
:104C20000BB1D06D9847E00404D50F4A136E0BB159
:104C3000506E9847A10404D50B4A936E0BB1D06E09
:104C40009847620404D5084A136F0BB1506F984718
:104C5000230404D5044A936F0BB1D06F9847BDE885
:104C60001040FEF7B3BF00BF305F002008B5FFF76C
:104C7000B1FDBDE80840FEF7A9BF0000062108B558
:104C80000846FEF7CDFF06210720FEF7C9FF0621E3
:104C90000820FEF7C5FF06210920FEF7C1FF062107
:104CA0000A20FEF7BDFF06211720FEF7B9FF0621F7
:104CB0002820FEF7B5FF09217A20FEF7B1FF072172
:104CC0003220BDE80840FEF7ABBF000008B5FFF793
:104CD00097FD00F007F8FFF751FDBDE80840FFF72A
:104CE00075BC00000023054A19460133102BC2E9A8
:104CF000001102F10802F8D1704700BF305F0020B8
:104D00000B460146184600F003B8000000F00EB84C
:104D100010B5054C13462CB10A4601460220AFF3EC
:104D2000008010BD2046FCE700000000024B014659
:104D3000186800F035B800BF1C22002010B50139FA
:104D40000244904201D1002005E0037811F8014FA0
:104D5000A34201D0181B10BD0130F2E72DE9F0414C
:104D6000A3B1C91A17780144044603F1FF3C8C42F1
:104D7000204601D9002009E00578BD4204F1010474
:104D8000F5D10CEB0405D618A54201D1BDE8F081A0
:104D900015F8018D16F801EDF045F5D0E7E70000B4
:104DA00037B5002944D051F8043C0190002BA1F103
:104DB0000404B8BFE41800F047F81E4A01981368CD
:104DC00033B96360146003B0BDE8304000F042B80E
:104DD000A34208D9256861198B4201BF19685B6835
:104DE00049192160EDE71A465B680BB1A342FAD975
:104DF00011685518A5420BD1246821445418A342C8
:104E00001160E0D11C685B68536021441160DAE7EF
:104E100002D90C230360D6E7256861198B4204BFD1
:104E200019685B68636004BF491921605460CAE770
:104E300003B030BDB05F0020034611F8012B03F82A
:104E4000012B002AF9D17047014800F009B800BFD2
:104E5000B45F0020014800F005B800BFB45F002037
:104E60007047000070470000636F6D2E63756265C8
:104E700070696C6F742E6865726534004E6F2061C6
:104E80007070207369670A00426164206677206C45
:104E9000656E6774682025750A0042616420626F40
:104EA0006172645F69642025752073686F756C6436
:104EB0002062652025750A004261642066772064BF
:104EC000657363726970746F72206C656E67746865
:104ED0002025750A004261642061707020435243AE
:104EE000203078253038783A3078253038782030BE
:104EF00078253038783A3078253038780A00476F8E
:104F00006F64206669726D776172650A0040A2E481
:104F1000F16468910600000043414E4644496661D1
:104F200063653A204D6573736167652052414D207A
:104F30004F766572666C6F772100000042616420D5
:104F400043414E496661636520696E6465782E0051
:104F5000000100000001FF0000A0004000A400408C
:104F60000000000000000000691D00084116000854
:104F7000A924000839160008B1160008C11A000853
:104F800029180008791600087D1600085516000833
:104F90003D160008811A000861160008B5250008B2
:104FA0006D160008551A000841A3E5F265699207DD
:104FB000000000006D61696E0000000069646C65AE
:104FC00000000000BC4F0008A05D0020185F00201A
:104FD00001000000BD3D00080000000000000020AE
:104FE000000002000200000000010030000000008C
:104FF0000000000000000024000008000400000081
:105000000004000000FC000002000000000004306A
:1050100000800000000000000000003800000100D7
:10502000010000000000002800000000AAAAAAAAAF
:1050300000000024FFFF000000000000000000004E
:105040000000550A00000000AAAA9AAA0000000069
:10505000FFF20000000000000000990000000000C6
:1050600000000000AAAAAAAA00000000FFFF00009A
:1050700000000000000000005A00000000000000D6
:105080009AAAAAAA00000000F3FF000099000000FD
:10509000000000000000000000000000AAAAAAAA68
:1050A00000000000FFFF0000000000000000000002
:1050B0000000000000000000AAAAAAAA0000000048
:1050C000FFFF0000000000000000000000000000E2
:1050D00000000000AAAAAAAA00000000FFFF00002A
:1050E00000000000000000000000000000000000C0
:1050F000AAAAAAAA00000000FFFF0000000000000A
:10510000000000000000000000000000AAAAAAAAF7
:1051100000000000FFFF0000000000000000000091
:105120000000000000000000AAAAAAAA00000000D7
:10513000FFFF000000000000000000000000000071
:1051400000000000AAAAAAAA00000000FFFF0000B9
:10515000000000000000000088B1FF7F0100000097
:105160001304000000000000000018000000000010
:1051700001000000FE2A0100D204000020220020CD
:10518000000000000000000000000000000000001F
:10519000000000000000000000000000000000000F
:1051A00000000000000000000000000000000000FF
:1051B00000000000000000000000000000000000EF
:1051C00000000000000000000000000000000000DF
:1051D00000000000000000000000000000000000CF
:00000001FF
