:020000040800F2
:100000000006002001060008C53500084535000837
:100010009D350008453500087135000803060008C5
:100020000306000803060008030600089D4A0008AE
:10003000030600080306000803060008030600087C
:10004000030600080306000803060008030600086C
:100050000306000803060008D17C0008FD7C0008A8
:10006000297D0008557D0008817D000803060008F1
:10007000030600080306000803060008030600083C
:10008000030600080306000803060008B92F00084D
:10009000030600084D30000803060008AD7D000887
:1000A000030600080306000803060008030600080C
:1000B00003060008030600080306000803060008FC
:1000C00003060008030600080306000803060008EC
:1000D00003060008030600080306000803060008DC
:1000E000257E000803060008030600080306000832
:1000F00003060008030600080306000803060008BC
:100100000306000803060008AD7E00080306000889
:10011000030600080306000803060008030600089B
:10012000030600080306000803060008030600088B
:10013000030600080306000803060008030600087B
:10014000030600080306000803060008030600086B
:10015000030600080306000803060008030600085B
:10016000030600080306000803060008030600084B
:1001700003060008B1720008030600080306000821
:10018000030600080306000803060008030600082B
:10019000030600080306000803060008030600081B
:1001A000030600080306000803060008030600080B
:1001B00003060008030600080306000803060008FB
:1001C00003060008030600080306000803060008EB
:1001D00003060008030600080306000803060008DB
:1001E00003060008030600080306000803060008CB
:1001F00003060008030600080306000803060008BB
:1002000003060008030600080306000803060008AA
:10021000030600080306000803060008030600089A
:10022000030600080306000803060008030600088A
:10023000030600080306000803060008030600087A
:10024000030600080306000803060008030600086A
:10025000030600080306000803060008030600085A
:10026000030600080306000803060008030600084A
:10027000030600080306000803060008030600083A
:10028000030600080306000803060008030600082A
:10029000030600080306000803060008030600081A
:1002A000030600080306000803060008030600080A
:1002B00003060008030600080306000803060008FA
:1002C00003060008030600080306000803060008EA
:1002D00003060008030600080306000803060008DA
:1002E000F11A0008D1300008853100080000000034
:1002F00053B94AB9002908BF00281CBF4FF0FF318D
:100300004FF0FF3000F07AB9ADF1080C6DE904CE82
:1003100000F006F8DDF804E0DDE9022304B07047E0
:100320002DE9F0478C460D460446089E002B51D11E
:100330008A4217466DD9B2FA82FEBEF1000F0BD089
:10034000CEF1200C01FA0EF520FA0CFC02FA0EF7A1
:100350004CEA050C00FA0EF44FEA174A250CBCFBD8
:10036000FAF81FFA87F90AFB18CC45EA0C4508FB96
:1003700009F3AB420AD9ED1908F1FF3280F023816D
:10038000AB4240F22081A8F102083D44ED1AA4B22C
:10039000B5FBFAF00AFB105544EA054400FB09F9E5
:1003A000A14509D9E41900F1FF3380F00A81A14584
:1003B00040F2078102383C44A4EB090440EA0840BB
:1003C0000021002E61D024FA0EF400233460736003
:1003D000BDE8F0878B4207D9002E54D0002186E873
:1003E00021000846BDE8F087B3FA83F1002940F008
:1003F0008E80AB4202D3824200F2FA80841A65EB0F
:1004000003050120AC46002E3FD086E81010BDE861
:10041000F08712B90127B7FBF2F7B7FA87FEBEF1F2
:10042000000F34D1EB1B3A0C1FFA87FC0121B3FB00
:10043000F2F8250C02FB183345EA03450CFB08F3E0
:10044000AB4207D9ED1908F1FF3002D2AB4200F2FE
:10045000D1808046ED1AA3B2B5FBF2F002FB105535
:1004600043EA05440CFB00FCA44507D9E41900F15C
:10047000FF3302D2A44500F2B8801846A4EB0C0466
:1004800040EA08409DE731463046BDE8F087CEF1AE
:10049000200405FA0EF307FA0EF720FA04F83A0CD6
:1004A00025FA04F448EA0308B4FBF2F14FEA1845D0
:1004B00002FB11441FFA87FC45EA044501FB0CF3DB
:1004C000AB4200FA0EF409D9ED1901F1FF3080F0CA
:1004D0008A80AB4240F2878002393D44EB1A1FFA12
:1004E00088F5B3FBF2F002FB103345EA034500FB4D
:1004F0000CF3AB4207D9ED1900F1FF386FD2AB42D4
:100500006DD902383D44EB1A40EA01418FE7C1F151
:10051000200722FA07F88B4005FA01F448EA0303A2
:1005200020FA07FE4FEA134CFD404EEA040EB5FBDD
:10053000FCF94FEA1E440CFB19551FFA83F844EAF4
:10054000054509FB08F4AC4202FA01F200FA01FA8F
:1005500008D9ED1809F1FF3043D2AC4241D9A9F1D5
:1005600002091D442D1B1FFA8EFEB5FBFCF00CFB8F
:1005700010554EEA054400FB08F8A04507D9E418D9
:1005800000F1FF3529D2A04527D902381C4440EAA2
:100590000940A4EB0804A0FB02894C45C6464D4621
:1005A00015D312D056B1BAEB0E0364EB050404FA6E
:1005B00007F7CB401F43CC40376074600021BDE893
:1005C000F0871846F8E69046E0E6C245EAD2B8EB76
:1005D000020E69EB03050138E4E72846D7E74046F9
:1005E00091E78146BEE7014678E702383C4445E79B
:1005F000084608E7A8F102083D442BE7704700BF12
:1006000002E000F000F8FEE772B6384880F3088890
:10061000374880F3098837483749086040F20000BE
:10062000CCF200004EF63471CEF200010860BFF348
:100630004F8FBFF36F8F40F20000C0F2F0004EF614
:100640008851CEF200010860BFF34F8FBFF36F8F68
:100650004FF00000E1EE100A4EF63C71CEF20001C0
:100660000860062080F31488BFF36F8F06F048F807
:1006700005F0EAFF07F04EF94FF055301F491B4ACD
:1006800091423CBF41F8040BFAE71D49184A9142D8
:100690003CBF41F8040BFAE71A491B4A1B4B9A422C
:1006A0003EBF51F8040B42F8040BF8E7002018494C
:1006B000184A91423CBF41F8040BFAE706F006F8ED
:1006C00007F048F9144C154DAC4203DA54F8041BFA
:1006D0008847F9E700F042F8114C124DAC4203DABA
:1006E00054F8041B8847F9E705F0EEBF0006002028
:1006F000002200200000000808ED00E000000020BB
:1007000000060020C884000800220020C822002023
:10071000C82200207C6B0020E0020008EC020008E8
:10072000EC020008EC0200082DE9F04F2DED108AD4
:10073000C1F80CD0D0F80CD0BDEC108ABDE8F08F19
:10074000002383F311882846A047002005F0DEF936
:10075000FEE705F0D3F800DFFEE70000F8B505F08E
:1007600047FF18B14FF44022294B9A6005F0FCFE78
:10077000074605F05FFF064688B9264B9F422FD0FB
:1007800001339F422FD027F0FF02234B9A422DD1F5
:10079000F8B201F00FF9354642F2107401E0054657
:1007A000002401F00DF908B10024254603F0C6F835
:1007B00000BB1A4B9F420CBF002606F00106FEB993
:1007C000002005F0DDFE05BB01F07EFB01F01AF90B
:1007D00001F0F8F9204600F091F900F021F9F9E76D
:1007E00005460024DDE700240125DAE7054641F24D
:1007F0008834D6E7032000F0F5F800242546D8E732
:1008000005F010FF00242546DAE700F009F9DBE7E0
:1008100000220020010007B0000008B0263A09B00D
:1008200070B4BFF34F8FBFF36F8F204B0022C3F81C
:100830008420BFF34F8F5A6922F480325A61BFF38C
:100840004F8FD3F88060C6F34E350FE01A4643F65B
:10085000E07303EA451343EA8273144CC4F874321C
:10086000531E002AF2D16B1E1DB11D46C6F3C902EC
:10087000EDE7BFF34F8FBFF36F8FBFF34F8FBFF322
:100880006F8F626922F4003262610022C4F8502244
:10089000BFF34F8FBFF36F8F302383F311888546EB
:1008A00080F30888084770BC704700BF00ED00E087
:1008B00000B583B002AB43F8040D0421184601F0E3
:1008C00073F903B05DF804FB00B583B0054B1B88DA
:1008D00002A820F8043D022101F066F903B05DF89A
:1008E00004FB00BF8C80000800B583B0054B9B88DB
:1008F00002A820F8043D022101F056F903B05DF88A
:1009000004FB00BF8C80000800B583B0054B1B8939
:1009100002A820F8043D022101F046F903B05DF879
:1009200004FB00BF8C80000808B54FF47A7300FB0D
:1009300003F005F0F3F808BD08B5302383F3118800
:10094000244B1B6813B1234805F0E0F90023224A29
:100950004FF47A711F4805F0CBF9002383F3118817
:1009600001E00133DBB2012B0BDC1C4951F82310F1
:100970000029F6D0194850F82310013940F8231007
:10098000EFE7174B1B7823B9144B5B6853B1002377
:1009900000E0002343B9124B1B78032B0BD000233C
:1009A00083B908BD0123F5E7022001F0F5F93222F1
:1009B0000A4B5A60EFE7094B5B680BB10023EFE786
:1009C0000123EDE7022001F0E7F94FF47A72034BBF
:1009D0005A60E6E7C822002039090008E823002011
:1009E000E022002008B50C4B1870032812D8DFE86D
:1009F00000F00A06020E022001F0CCF908BD022028
:100A000001F0C6F908BD0022044B5A6008BD00225F
:100A1000024B5A6008BD00BFE0220020E8230020FE
:100A200008B502F08BFF58B90023072B0CDC2C4AC9
:100A300052F82320B2F1FF3F11D00133DBB2F4E7CB
:100A40000320FFF7CFFF08BD264B1B68264A9342C1
:100A500005D9264A9168224A0A44934200D308BD28
:100A600005F0C8FD002001F0D9F80220FFF7BAFF19
:100A70001F4B9A6900229A61196C1A64196CD96922
:100A8000DA61596C5A64596C196A1A62996C9A64E1
:100A90009B6C184BD3F8802042F00062C3F8802092
:100AA000D3F8802022F00062C3F88020D3F88020A1
:100AB000D3F8802042F00072C3F88020D3F8802061
:100AC00022F00072C3F88020D3F8803072B6044B55
:100AD000094A1360034A11681868FFF7A1FEBEE7D0
:100AE0000000040804000408FFFF0308002200209F
:100AF000304502580044025808ED00E02DE9F04F5F
:100B000091B00646BA4BD3F808902022FF210DEB96
:100B1000020001F079F9B74B1B7893B10EB1B64BD7
:100B20001E60B64B1B78032B02D00020FFF75AFF44
:100B3000344600252F46A8460095012001F02AF9E9
:100B400026E00122AB4B1A70AD4B00221A60302216
:100B500082F311881B6813B1A94805F0D7F8002368
:100B6000A84A4FF47A71A64805F0C2F8002383F32F
:100B70001188D3E70023002B40F04882002000F0CA
:100B8000F3FF0290029B002B0BDB029B002B0BDA86
:100B9000002CEFD0984B1B680BB10023EBE701232F
:100BA000E9E700F07FFFF0E7012001F0F1F8029B98
:100BB000213B1F2BC1D801A252F823F03D0C0008A5
:100BC000670C0008070D00083B0B00083B0B0008F2
:100BD0003B0B00088D0D0008690F0008790E000816
:100BE000E30E00080B0F0008330F00083B0B000852
:100BF000470F00083B0B0008C90F00084D0C000808
:100C00003B0B000813100008830E00084D0C000871
:100C10003B0B0008E30E00083B0B00083B0B0008F1
:100C20003B0B00083B0B00083B0B00083B0B00088C
:100C30003B0B00083B0B0008070D0008022000F0EA
:100C400093FF202840F01D814FF0010801F032F998
:100C5000B8F1000F04D007F00B030B2B00F0FE815E
:100C6000FFF732FE69E74FF47A7000F07DFFB0F1D4
:100C7000000AC0F20681022000F076FF202840F032
:100C800000810AF1FF33052B00F2EA81DFE803F06F
:100C90000314191E233610A8052340F8343D0421FF
:100CA00000F082FF0AF1FF3A012303FA0AF31F431F
:100CB000FFB200230093C9E704214D4800F074FF00
:100CC000F0E70421504800F06FFFEBE704214F48A4
:100CD00000F06AFFE6E74FF0070BBBF10A0FE1D81F
:100CE0004FEA8B0000F09EFF10AB43F8340D042157
:100CF000184600F059FF0BF1010BEEE704214448C0
:100D000000F052FFCEE7B8F1000F00F0BA8007F014
:100D10000B030B2B40F0B580022000F025FF2028AC
:100D200040F0AF80012000F079FF0220FFF75AFE6B
:100D30000024204600F086FF68B10299402914BFC4
:100D400000210121204600F08FFF002800F08B8158
:100D50000134E4B2EDE70120FFF744FE4FF0000953
:100D6000234B9B68994509D2484600F05BFFB0F1E0
:100D7000FF3F40F07B8109F10409F1E70020FFF714
:100D800031FE45464FF000094C465FE7B8F1000FD1
:100D900077D007F00B030B2B73D10220FFF722FE55
:100DA000322000F0E1FE82460190002869DB10F05D
:100DB000030F66D109EB00030D4A9268934260D895
:100DC000B0F5807F5DD84FF0000B019B9B4523DA87
:100DD0004FF47A7000F0C8FE0290029B002B50DBAB
:100DE000029A0C4B03F80B200BF1010BEDE700BF4F
:100DF00000220020E4230020E8230020E02200203D
:100E0000C8220020390900080422002008220020FE
:100E10000C220020E4220020C82000F0A5FE20289B
:100E20002FD1B9F11F0F13D8C9F1200BDA4500D823
:100E3000D34629F003005FFA8BFB5A468D4908AB75
:100E4000184400F0ABFF5A46FF218A4800F0DCFF4F
:100E50005346BAF1000F01DA0AF103034FEAA30A7D
:100E60005FFA8AF28349484600F0DAFF002800F072
:100E7000BF8009EB8A09E9E6022000F075FE202810
:100E800004D005B93446FFF72FFD56E600F00CFFFD
:100E90000028F6D04FF0000AD3460BE0504600F091
:100EA000C1FE0390042203A9584602F097FC834632
:100EB0000AF1040A704B9B689A450ED2BAF11F0FD3
:100EC000ECD8089BB3F1FF3FE8D02AF0030310AA47
:100ED000134453F8203C0393E4E75846FFF7E8FC3B
:100EE000B4E610A8002340F8343D642100F050FE21
:100EF0000028C6D1022000F037FE2028C1D1039877
:100F000000F0CAFEFFF7D4FCA0E610A8002340F8CA
:100F1000343D642100F03CFE0028B2D1022000F0F4
:100F200023FE2028ADD1039800F0B8FEFFF7C0FCE7
:100F30008CE6022000F018FE2028A2D100F0C8FEA6
:100F4000FFF7B6FC82E6022000F00EFE202898D1C2
:100F500003A9142000F0C2FE8246FFF7A9FC514607
:100F600003A800F021FE71E6322000F0FDFDB0F193
:100F7000000A86DB1AF0030F83D1009B53443E4ADC
:100F8000926893423FF67DAF022000F0EDFD2028ED
:100F90007FF477AF5346BAF1000F03DB9B10DDF807
:100FA00000A00AE00AF10303F8E7504600F03AFE19
:100FB000FFF77EFC0AF1040A5B4603F1FF3B002BBE
:100FC000F3DCCDF800A041E64FF47A7000F0CCFDE0
:100FD00020287FF456AF00F067FE48B1089BB3F1BC
:100FE000FF3F0ED0082208A9002000F019FF10B919
:100FF000FFF78AFCA1E52022FF210DEB020000F0A3
:1010000003FFFFF761FC6420FFF78EFC11B0BDE821
:10101000F08FB8F1000F3FF434AF07F00B030B2B48
:101020007FF42FAF10A8002340F8343D642100F076
:10103000AFFD00287FF425AF022000F095FD2028A9
:101040007FF41FAFFFF740FC0520FFF76DFC03980E
:1010500000F066FF00F02EFF00246EE50024FFE59F
:10106000002300930DE745460024C1E745460024D0
:10107000BEE700BFE42200200022002009490B68DF
:101080009AB21B0C49F2690000FB02330B60064A5E
:10109000136898B21B0C44F2506101FB00301060E1
:1010A00080B27047142200201022002010B50446A0
:1010B000FFF7E4FFB0FBF4F304FB130080B210BDB4
:1010C00070B50E4615461C4603F050F860B9022C68
:1010D00008BF012D0CBF012000202BD116A3D3E99E
:1010E0000023C6E9002370BD052D1BD00AD9282D89
:1010F00011D0302D1DD112A3D3E90023C6E900235E
:10110000012070BD012D14D10FA3D3E90023C6E93E
:101110000023012070BD0EA3D3E90023C6E90023FC
:10112000012070BD0CA3D3E90023C6E900230120F0
:1011300070BD002070BD00BF401DA12026812A0B7C
:1011400078F6339F93CACD8D9E6AC421818A46EE7C
:1011500026417272DF25D7B7F017304A39059E56FF
:1011600010B403460022026042608260C260044CF8
:1011700007CC186059609A605DF8044B704700BF57
:1011800000E8F11FF0B58DB006460D4602F022FAD8
:1011900004464FF4C870FFF789FF204400F516702D
:1011A000214B1860EB7E23B90022204B1A700DB042
:1011B000F0BD0024AB8A013B9C420ED2611CC900E9
:1011C00008AB234400930023082201F0F8012846CD
:1011D00003F0C6F80134E4B2ECE704A8FFF7C0FF5F
:1011E000224604A908A806F0C9FE18B100220F4B38
:1011F0001A70DCE70F2C07D80C4B1C700A4A1368D6
:10120000A3F516731360D2E700210CAB03F8211D80
:1012100000930B460722284603F0A2F89DF80F1012
:10122000304602F09BFFC2E7043400200134002066
:101230002DE9F047ADF54E7D824688466FAF40F20E
:1012400079120021384600F0DFFD0CAC4FF4C47277
:101250000021204600F0D8FD02F0BCF92C4BA3FB86
:10126000003080092B4B186093E8070084E80700E2
:10127000012626744FF0000984F811900DF15200F8
:10128000FFF76EFF042384F820300D2384F821300B
:1012900006ADDFF884E0BEE80F000FC59EE803004E
:1012A000844645F8040B8E462980152384F8323194
:1012B00006AD0FCDCDF86301CDF86711CDF86B21E8
:1012C000CDF86F31CDF873C18DF877E132463946EC
:1012D000204602F08BF980B298F81B1008F1190330
:1012E00098F81A2005900497CDF80C90029201937B
:1012F000009605A3D3E90023504602F09BFF0DF5AD
:101300004E7DBDE8F08700BF9E6AC421818A46EE0B
:10131000D34D6210F0230020A880000870B5BAB049
:1013200002F058F9214B9B68C31A40F2ED22934218
:1013300001D83AB070BD1D4CA06023462822002180
:1013400006A803F01FF904F10E0000F053FD064655
:1013500000242825F3B29C420DDA04F10802134B55
:10136000134406330822294606A803F00BF9083572
:101370000134E4B2EEE707350C4B197BC5F3CF051A
:10138000059506AA049201220392082202920D33C7
:1013900001933023009303A3D3E90023044802F010
:1013A00049FFC6E778F6339F93CACD8DE048002009
:1013B000083400208B8A013B9BB2C92B57D8F0B56B
:1013C000C9B00D4607462D4B1C7B0CB38122002172
:1013D00006A800F019FD27AC0122214606A802F05C
:1013E000D3F9E97E05F11903AA7E80B20590049431
:1013F0000020039002920193282300931DA3D3E9B8
:101400000023384602F016FFFFF788FF49B0F0BD11
:101410000C330093002308221946284602F0A0FF4F
:101420000826AB8A013B9C420FDA04F10802134BF9
:10143000134406330093002308223146284602F065
:101440008FFF08360134E4B2EBE70C4B002000219B
:10145000C3E9000100229A6083F8D720C3F8D8209E
:101460001B7B002BB2D1EA7E044B1A73AEE77047A8
:10147000AFF3008026417272DF25D7B7E048002025
:101480002DE9F04F87B002AF68464B7E01335A42D8
:10149000DBB2D2B258BF5342554A527B934204D07A
:1014A00085461437BD46BDE8F08FCA7E504B1B7B86
:1014B0009A42F5D1C7F804D00D46002107F1100378
:1014C00023F8021D009301231022284602F048FF52
:1014D000B5F81480A8F102081FFA88F8C24608F18E
:1014E000030323F003030A3323F00703ADEB030DDB
:1014F0000DF10809CB46002410260BE00BEB04038A
:101500000093002308223146284602F029FF0836BE
:101510000134A4B2A245F1DC354C94F8D70000F0B8
:1015200091FB0546D4F8D8303BB1314BD3F8D830D5
:1015300043449D4207D3002418E0002194F8D700CB
:1015400000F092FBF1E72A4B93F8D700002101301D
:1015500000F08AFBEFE7264B1868A300012209EB95
:101560000301184400F05CFC0134A4B2B4EB980F02
:10157000F1DB1F4CD4E900231FFA88F00021121878
:101580004B41C4E90023D4F8D8604644C4F8D8607D
:1015900094F8D70000F056FB864209D394F8D72080
:1015A000013284F8D720D4F8D820551BC4F8D8507D
:1015B000B8F1FF0F0DD90E4A136851689B0A43EA30
:1015C000815301330B490B8100239360D7F804D07A
:1015D00067E70022064B1A7300F066FB02F0AEF9D3
:1015E000044B18810028E6D1FFF71AFAE3E700BFA1
:1015F000E0480020F023002038B505460C4602F0F4
:10160000B5FD58B9237E022B00D038BDE38A012BEB
:10161000FBD121462846FFF7B5FD38BDE38A052BEF
:1016200017D004D9282B0AD0302B0DD038BD012B70
:1016300000D038BD21462846FFF7FAFD38BD2146C7
:101640002846FFF7B7FE38BD21462846FFF718FFAA
:1016500038BDBFF34F8F0549CA6802F4E062044BFE
:101660001343CB60BFF34F8F00BFFDE700ED00E0F9
:101670000400FA05F0B587B0264802F027FE0028DE
:101680003AD00446002302938DF814308DF81530BB
:1016900003930493027B8DF8142003AA014651F8AA
:1016A000040F496803C2226842F0004202921D46BC
:1016B0001C46CDB9184A41F2B04303FB05F3D718D5
:1016C000D3581E6901F08AFF00230093134A0023B8
:1016D00012184B4102A93846B0470028C8BF44F051
:1016E00001040135EDB2E4E744B90D4B1B78072B3B
:1016F0000BDC01330A4A137007B0F0BD054802F055
:10170000EBFD0022064B1A70B6E7024802F0E4FD3A
:10171000F2E700BF083400203034002040420F00C0
:10172000C54900202DE9F0418EB000230A938DF8C1
:1017300034308DF835300B930C9326E0002306935C
:1017400007930893099341F2B04303FB07F7224B39
:10175000DB595D690DF10E0304AA0AA93046A847BA
:1017600007AB0BAA92E8030083E803009DF834302E
:101770008DF824300A9B0693DDE9042306A9174857
:1017800002F064FF454621E01DB3002425462746AC
:10179000002CF9D101238DF80C3000230EAA02F899
:1017A0002B3D0D4841F2B04101FB04F14618415870
:1017B000D1F8088000200021CDE9000103A93046BE
:1017C000C0479DF80C80B8F1000FB7D10134E4B2E6
:1017D000DDE70EB0BDE8F081303400200834002091
:1017E00010B588B001F0F6FE114BA3FB00239B0956
:1017F0001048036006AC0122214601F09DFF80B233
:1018000004900394182302930B4B019340F2551359
:10181000009305A3D3E90023084802F0A9FC08B00F
:1018200010BD00BFAFF30080F1C6A7C1D068080F9C
:10183000D34D6210F0230020C4490020083400205A
:1018400010B50A4C02460B46204602F04DFD2046DC
:1018500002F08CFC38B1064B1B7B2BB10322054BED
:101860005A71FFF7BDFF10BD0222F8E708340020CF
:10187000E0480020F0230020012800D0704738B550
:101880004FF6FF73994200D038BD0025084C002D5B
:1018900007DB204600F086FE04F5A5541034013D18
:1018A000F5E7044A0449002006F04AFBECE700BFD4
:1018B000303400202C4C0020BD18000838B50E4CE8
:1018C0000E4B9C4217D0A4F5A554103C0C4B236042
:1018D00041F24403E21812793AB9E5582DB128468D
:1018E00001F0DCFC284606F031FB41F230002044D8
:1018F00001F0D4FCE4E738BDE0480020303400209B
:101900002C81000810B58CB0264802F02FFC08B1DD
:101910000CB010BD01F05EFE234B1B689842F7D35C
:1019200001F058FE04464FF4C870FFF7BFFB204497
:1019300000F516701C4B186000238DF828301B4BE7
:101940001B7813B901238DF8283006A8FFF708FC8F
:10195000164B1978C1F11004E4B2062C00DD062400
:10196000224606AB19440DF1290000F017FA0134A4
:1019700004940AAB0393182302930D4B01930123A4
:10198000009306A3D3E90023064802F0F1FB0022EE
:10199000064B1A70BCE700BFAFF30080401DA120CA
:1019A00026812A0B08340020043400200134002052
:1019B00000340020014B1870704700BFFC2300204A
:1019C0004FF040531A680D4B9A4201D000207047E7
:1019D00010B54FF04054607DFFF7ECFF237D0848C1
:1019E0000373C92204F116010E3000F0D7F9E0228A
:1019F0000021204600F008FA012010BD9AAD44C530
:101A0000E048002030B583B001F098FF1C4B1881EE
:101A100002225A7100246CB91A4841F2B04303FB08
:101A200004F3C2585568012217491844A8470134E5
:101A3000E4B2F0E700230193144B0093144B4FF4EE
:101A400080521449144802F069FB144B197899B973
:101A500001F0C0FD04464FF4C870FFF727FB204497
:101A600000F516700E4B186004F0E4FD10B10F2263
:101A7000034B1A8103B030BD074802F06FFBE7E764
:101A8000F02300203034002040420F00C110000835
:101A9000F91500080024002008340020FC23002051
:101AA0000434002008B509E00F4B186001F096FDE2
:101AB000FFF7C6FE10E00D4B1B7BA3B1FFF7DAFD6D
:101AC000FFF730FEFFF71EFF01F084FD064B1B6899
:101AD000C31AB3F57A7FE7D2044B1B7B002BEAD005
:101AE000FFF71CFCE7E708BDC0490020E0480020E4
:101AF00008B54FF6FF710120FFF7BEFE08BD00BF1D
:101B00002DE9F04D80460E4615460024FCB9134BD6
:101B100093F90030B3F1FF3F04D0A34202D0013467
:101B2000E4B2F3E70E4803681F6A6A01521B4FEAEA
:101B3000820E1EEB0502D1000B4632464146B847E5
:101B40008642ECD1074B1C700120BDE8F08D4FF4AC
:101B5000FA7003F0E3FF0020BDE8F08D18220020AA
:101B6000EC4E0020F449002000B583B002AB002207
:101B700003F8012D024601211846FFF7C1FF20B1ED
:101B80009DF8070003B05DF804FB4FF0FF30F9E764
:101B900008B50A460421FFF7B3FF08B1002008BDCD
:101BA0004FF0FF3008BD00BF38B5044C2368DD6935
:101BB000034B0A4601462046A84738BDEC4E00209C
:101BC000A086010038B504F0B5FB124B1880002444
:101BD000B4F5802F0DD20F4B1B880F4A106883423B
:101BE00015D904F0A3FB04440B4A136801331360B6
:101BF000EEE70025B5F5802F0BD2064C2088013882
:101C000004F094FB05442388013B2380F2E7002580
:101C1000F0E738BDF6490020C849002008B504F0B7
:101C2000FFFB08BD014BC058704700BF000004080F
:101C300008B5920000F1006000F5802004F0ECFB94
:101C400008BD00BF08B5064B1A68064B1B889B1AD7
:101C5000834201D8002008BD104404F067FB08BD92
:101C6000C8490020F649002038B505460C4611B198
:101C700054B9012038BD074B1868284404F05CFBB8
:101C80000028F5D10124F3E7024B1868284404F03A
:101C90006BFB38BDC849002000207047014BC0587D
:101CA000704700BF00E8F11F08B5084B93F82430D7
:101CB0000BB9012008BD054B002283F8242008221F
:101CC0001946186AFFF7B4FF08BD00BFCC490020D1
:101CD000014B1868704700BF0010005CF0B484B07E
:101CE00004460D46274B1E68C6F30B07360C264BE1
:101CF00093E8070004AB03E90700002300E0013389
:101D0000012B10D803EB43018A001F498A5A9742DE
:101D1000F5D103EB43039A000B46134493E8070005
:101D200004AB03E90700002300E00133032B0CD8C8
:101D3000164A32F823209642F7D1144A02EB830266
:101D400092F902208DF80C20EFE7611E2944284605
:101D5000884208D2029B93F9002022B101330293FA
:101D600002700130F4E7884202D22C230370013064
:101D7000884203D29DF80C3003700130401B04B040
:101D8000F0BC70470010005C1C220020C0800008DE
:101D9000704700BF704700BF704700BF00239342E9
:101DA00007D210B4CC5CC45401339342FAD35DF82B
:101DB000044B704710B406E0541E7AB12246012449
:101DC0007CB10130013190F900302BB191F9004024
:101DD000A342F1D00024F3E70024F1E722460024D7
:101DE000EEE72AB191F90000181A5DF8044B70472C
:101DF0000020FAE7034600205A1C93F9003013B183
:101E000001301346F8E7704710B40346541E1AB168
:101E1000197022460133F9E75DF8044B704700BFA3
:101E20002DE9F843814688461546214B93F8242036
:101E30002AB31B6A03EB8203984220D0FFF734FFDA
:101E40000346E0B930E01A4E96F82400C0F10804C9
:101E5000AC4228BF2C46E4B2A7003A46414606EB06
:101E60008000FFF79BFFB944B8442D1BEDB296F8F4
:101E700024301C44E4B286F82440082C0DD095B1DF
:101E80000B4B93F82430002BDDD10948C0F820908B
:101E90002022FF21FFF7B8FFD5E7FFF705FF034634
:101EA0000028ECD100E001231846BDE8F88300BF0C
:101EB000CC490020024B93F90020024B1A70704766
:101EC000F44900201822002038B5114D284602F0B0
:101ED000F1FE104C2146284602F018FF2468D4F881
:101EE0009020D2F8043843F00203C2F804380A48BC
:101EF00003F014FE0949204603F050F8D4F890206E
:101F0000D2F8043823F00203C2F8043838BD00BF09
:101F1000EC4E00201482000840420F00408200086E
:101F2000704700BF704700BF10B503681C681346B8
:101F30000022A04710BD00BF41F25943C05C70476A
:101F400041F25243C05C704741F25843C05670475B
:101F50004E207047302383F3118862B641F29843D4
:101F6000C35841F294428258134441F2904282583D
:101F7000134441F278428258134441F28842825815
:101F8000134441F2844280581844002383F311889B
:101F900062B6704738B504460846302383F311888B
:101FA00062B641F2544561510B681B680749984776
:101FB000605941F25843E25C03685B68012191403B
:101FC0009847002383F3118862B638BD044A002085
:101FD000012800D070474FF6FF739942FAD1034AA7
:101FE0001346034943F8041B5360F3E7044A0020F7
:101FF000748100082DE9F04782B0BDF828A041F2B5
:102000005244055D002D00F0C98041F274468459A8
:10201000013484510C6814F0005F07D10C7B082C4C
:1020200001DD4E7B16B10F2C00DC0025002D44D1C4
:10203000302484F3118862B6C46AD4F8C45015F40D
:10204000001F42D1D4F8C440C4F30449466A09EBE6
:10205000C904E50006EB05080C68002C3FDBA4046E
:1020600074510C6814F0804F03D0745944F000543C
:1020700074510D7B4FEA096444EA0544C8F80440F2
:102080004D7B85B344F44014C8F8044041F2A445A4
:1020900044590134445100EB491541F268042C4481
:1020A000257945F02005257116461F460C46054644
:1020B000087B01F0D7F800232BE041F278428358E7
:1020C000013383504FF0FF3065E041F27C4283588A
:1020D00001338350002080F3118862B65BE044F046
:1020E00080447451BDE700EB491541F268042C446B
:1020F00025796FF345152571D6E7B2EBA10F0DDAFF
:102100009900083104EB8202526848F8012001333B
:10211000DBB21A46C11CF0D50331EEE7EA6A0123AF
:1021200003FA09F3C2F8D0304FEA49116A1841F2B4
:1021300050031344C3E9006741F258030B44E91804
:10214000D4F800C0D4F804E0A06845F803C0C1F892
:1021500004E08860A3898B8141F2680011180B7933
:102160006AF30003CAF3400E6EF3410342F8009095
:1021700003F0FB0343F010036FF3C3030B71002361
:1021800083F3118862B6CDF800A032463B46214663
:10219000284601F02FF802B0BDE8F0874FF0FF307D
:1021A000F9E700BF2DE9F04188B004460D46174617
:1021B0009846302383F3118862B600220023CDE9CC
:1021C00000230023ADF8083003938DF818308DF804
:1021D00019300493059341F24406805901F068F8E0
:1021E0001F2807D8002078B141F25243E35C63B165
:1021F00000200AE020226946A05901F097F9202822
:1022000014BF00200120EEE7012030B1002080F350
:10221000118862B608B0BDE8F08103AB07CB286037
:102220006960AA601B88AB81DDE90023C7E9002350
:10223000BDF80830A8F80030002383F3118862B697
:1022400043463A462946204600F0A4FFE2E700BF95
:102250002DE9F84341F25243C55C002D40F00A815C
:10226000037C032B40F0078100239C461F4602E0BD
:1022700001370133DBB2164693420CDA01EBC30E91
:1022800051F83360002EF3DBDEF80460002EEFDA45
:102290000CF1010CEDE70446302383F3118862B69C
:1022A000BCF1000F10D1C26AD2F8803043F00203B3
:1022B000C2F880304FF04E08BCF1000F52D0D4F875
:1022C00014C000239E4634E0BCF14D0F1BD8C26AF7
:1022D000DFF8ACE1DEF800304FEA0C4040EA830062
:1022E000C2F88400654A1A44920062616344CEF8E1
:1022F0000030CCF14E08E26AD2F8803043F030036F
:10230000C2F88030D8E7C26A936923F00103936171
:1023100001F060F90646E36A9B6913F0010F00F0D3
:10232000A48001F057F9801BFA28F4D99DE001330D
:10233000DBB29E4216DD01EBC30251F833000028E8
:10234000F5DB5268002AF2DA02F07F02DFF83C91F6
:1023500009EA0040024342F008424CF82E200EF1F8
:10236000010EE4E76FB9E26AD2F8803043F001036E
:10237000C2F88030002F55D0D4F818E000231F4653
:1023800043E0B7EB580F18D2402F16D83C480368EB
:102390003A0442EA830EE26AC2F888E0374A1A44F5
:1023A0009200A26103EB47030360E26AD2F8803037
:1023B00043F00C03C2F88030DCE7E26A936923F053
:1023C0000103936101F006F90646E36A9B6913F085
:1023D000010F4AD001F0FEF8801BFA28F5D944E03D
:1023E00022F06042DCF8040020F060404FEAC70CA5
:1023F00042F000524EF837200CF1040C40F000403F
:102400004EF80C0001370133DBB29E420ADD01EBCE
:10241000C30C51F83320002AE2DBDCF8040000286A
:10242000DEDAF0E7164B1A68144B13449B00A362E4
:10243000144A934212D8E26A936923F0010393612C
:1024400001F0C8F80646E36A9B6913F0010F08D053
:1024500001F0C0F8801BFA28F5D906E00A4801F01F
:10246000B3F8012541F25243E554002383F3118868
:1024700062B600E000252846BDE8F883002B001076
:10248000004A0020FCB50040EC8000080000FF0777
:1024900008B5302383F3118862B641F24403C05873
:1024A00000F022FF002383F3118862B608BD00BF4D
:1024B00070B505460E4641F24404005900F020FF75
:1024C0001F2801D8002070BD20223146285900F075
:1024D00093FF202814BF0020012070BDF8B5002311
:1024E0004360836005462C4B45F8303B2B467F24E8
:1024F000002C0DDB00260027C3E9006700221A81AB
:10250000DA601A765A761A615A612033013CEFE795
:1025100041F23002831885504FF480525A600022F5
:1025200041F23804025141F23C04025101221A7472
:1025300041F24404051903512A7141F25003034446
:102540001F24002C0DDB00260027C3E900670022B2
:102550009A601A755A75DA601A619A612033013CE3
:10256000EFE741F25843C15441F25A4402190023A3
:102570000353538013715371937141F262440219F2
:102580000353538013715371937111B9034BC36299
:10259000F8BD034801F018F82C81000800A00040A5
:1025A0001081000810B50446034B19784A1C1A70B4
:1025B000FFF794FF204610BDFD490020012241F2A3
:1025C0005943C254704700BF002900F08280F0B424
:1025D00082B00E46444B994210D90A23434CB4FBB7
:1025E000F6F4013BDBB2581CB4FBF0F100FB1141E7
:1025F00031B1022B6FDD013BDBB2F4E71123EDE7D4
:10260000B4FBF0F0411EB1F5806F68D2C3EBC30597
:10261000E91C47D4C1F3C7018DF800105F1AFFB25F
:102620008DF8017001314FF47A7404FB01F43944E0
:1026300094FBF1F189B2ADF80210B1F5617F15DDBF
:10264000013D31D4C5F3C7018DF804105B1ADBB22C
:102650008DF8053001314FF47A7404FB01F419440C
:1026600094FBF1F1ADF80610019B00939DF800106A
:102670004B1C9DF801502B4403FB00F31B4CB4FB97
:10268000F3F39E4212D001235BBBBDF802301380EE
:10269000013850800023137101395171013D95714A
:1026A000012019E00731B5E70735CBE74B1EDBB258
:1026B0000F2B04D83DB1082D07DD002300E00023D7
:1026C0002BB10023E0E70023FAE70123F8E7012319
:1026D000DAE700207047002002B0F0BC704700200D
:1026E000FAE70020F8E700BF3F420F0000B4C4043F
:1026F00070B5C36A40F27772C3F8BC20C36A072280
:10270000C3F8C820C16A114D2B689A0042F4C02258
:10271000C1F8A0200E495A189200C26103F16C0260
:10272000C66A940044F0E064C6F8C0400A449200CF
:102730004262EA332B600B449B008362054A93425A
:1027400000D870BD044800F03FFF00BF004A0020E1
:10275000002B0010FCB50040EC8000082DE9F04F84
:1027600089B041F25844045D012C04DD0024204668
:1027700009B0BDE8F08FAD4D55F82450002D45D07F
:10278000C1600374AA4C2478ECB9302484F3118816
:1027900062B6A84CD4F8EC5045F48075C4F8EC50FF
:1027A000D4F8945045F48075C4F89450D4F89450FB
:1027B00025F48075C4F8945001259D4C25700024A3
:1027C00084F3118862B69A4693468946064641F2DA
:1027D0005143C35CF3B1302383F3118862B6F26ACC
:1027E000936923F01003936100F0F4FE0446F36A4A
:1027F0009A6912F0080F22D000F0ECFE001BFA28B4
:10280000F5D9002484F3118862B6B0E7874D45F806
:102810002400B5E7302383F3118862B60321132027
:1028200002F0A2F90321152002F09EF9012241F2E3
:102830005143F254002383F3118862B6CBE79A69BF
:1028400042F001029A6100F0C5FE0446F36A9A69FB
:1028500012F0010F05D100F0BDFE001BFA28F5D9DA
:10286000CFE79A6942F002029A61F36A00245C653C
:1028700084F3118862B641F24403F05800F034FD4D
:10288000A046B8F11F0F1DD8202200216846FFF78F
:10289000BBFA00238DF814308DF8153041F2500743
:1028A00007EB4817F5196C460FCCF0516960AA6028
:1028B000EB6007CC28616961AA6123782B7708F166
:1028C0000108DEE7002341F25042B35441F2534283
:1028D000B35441F25A42324449463046FFF774FE3F
:1028E0000446002872D041F26C4346F80390F26A25
:1028F00041F25E43F15C41F25F43F35C1B0243EA49
:10290000416306F5A35109780B4341F25C41715ACA
:1029100043EA0143D361BBF1000F1DD041F2624293
:10292000324459463046FFF74FFE0546002861D035
:1029300041F2704346F803B0F26A41F26743F15C3A
:1029400041F26843F35C1B0143EA012341F2644115
:10295000715A43EA0143D360F36A0025C3F8BC50BF
:102960003046FFF7C5FE41F25943F554F36A6FF064
:1029700040421A65F36A304A5A65F36A4FF0022200
:102980009A65F36A4FF0FF32C3F8E020F36A03223E
:10299000DA65F26A936943F440739361BAF1030F05
:1029A0003FF4E5AEF26A936923F00103936100F00E
:1029B00011FE0546F36A9B6913F0010F2ED000F05B
:1029C00009FE401BFA28F5D90024D0E6F26A936983
:1029D00023F00103936100F0FDFD0546F36A9B6956
:1029E00013F0010F3FF4C3AE00F0F4FD401BFA28D2
:1029F000F4D9BCE6F26A936923F00103936100F015
:102A0000E9FD0446F36A9B6913F0010F0BD000F057
:102A1000E1FD001BFA28F5D92C46A8E6012241F277
:102A20005243F254A3E62C46A1E600BFF849002029
:102A3000FC4900200044025855020002F0B589B05C
:102A4000054616461F46002439E000200021CDE946
:102A500000010023ADF8083003938DF818308DF88D
:102A600019300493059341F2580303EB42120DF120
:102A70000C0EAB18186859689A68AEE807009B8975
:102A8000AEF80030CDE900670123ADF808302B68BF
:102A9000DB6B69462846984741F25443EB5863B1D3
:102AA00041F29C42AB580133AB5041F25843EB5CCE
:102AB000012199401E4800F045FB0134E4B2224652
:102AC0001F2C32DCEB6AD3F8D830E34013F0010F4F
:102AD000F3D005EB441141F26C035B5C13F0080F7B
:102AE000EBD105F5A4510B6801330B6005EB4411E4
:102AF00041F26C035B5C13F0200F04D041F2A8415B
:102B00006B5801336B5005EB421341F268011944D5
:102B10000B7943F008030B7113F0010FBCD041F2A5
:102B20005343EB5C002BB7D08FE709B0F0BD00BF7B
:102B3000044A00202DE9F0478CB08046894600F019
:102B40004DFD06460F46B9F1000F5CD1D8F82C3088
:102B5000D3F8A02012F4FE0F00F0BD80D3F8A4201B
:102B600012F0007F06D041F2944158F80120013262
:102B700048F80120D3F8A42012F07F0F00F0AD80B8
:102B8000D3F8A430C3F3052AD8F81C200AEBCA03F3
:102B9000DD001544002308938DF82C308DF82D307E
:102BA00009930A932B6813F0804F57D1C3F38A42DD
:102BB000089213F0005F03D0089B43F08043089312
:102BC0006B6813F4001F4FD001238DF82D3041F2B4
:102BD000AC4258F80230013348F80230EB8803F079
:102BE0000F038DF82C3000249DF82C0000F03AFBE8
:102BF00084423DDA2B191A7A0CAB234403F80C2CCF
:102C00000134E4B2F0E7B9F1010F04D00023184613
:102C10000CB0BDE8F087D8F82C30D3F8B02012F40F
:102C2000FE0F5CD0D3F8B42012F0007F06D041F242
:102C3000944158F80120013248F80120D3F8B4201B
:102C400012F07F0F4DD0D3F8B430C3F3052AD8F873
:102C500020200AEBCA03DD0015449BE723F0604205
:102C600042F000420892A4E700238DF82D30B5E72A
:102C7000B9F1000F1FD1D8F82C30C3F8A8A0002359
:102C8000ADF8083003AC0CAB13E90F0007C4238088
:102C90000CA961E90C67D8F80030DB6B4046984717
:102CA000034680B941F2904258F80230013348F8A7
:102CB00002300123ABE7B9F1010FE0D1D8F82C3095
:102CC000C3F8B8A0DBE741F28C4158F8012001328B
:102CD00048F801209BE7002399E7002397E70023AA
:102CE00095E7002393E700BF38B504460D46294613
:102CF0002046FFF71FFF20B1012241F25343E25467
:102D0000F5E741F25443E35863B141F29C42A358C2
:102D10000133A35041F25843E35C0121994002483A
:102D200000F010FA38BD00BF044A0020C26A136CDC
:102D3000C3F30743002B37D0126C00F5A5531A607C
:102D400000231F2B30DC10B402E001331F2B29DCE1
:102D500000EB431141F26C02525C12F0020FF4D00E
:102D600041F26C02525C12F0040FEED10A4641F2BD
:102D70006801515801228A40C16AD1F8CC402242F0
:102D8000E3D0C1F8D42000EB431141F268020A44B9
:102D9000117941F00401117141F288414258013228
:102DA0004250D2E75DF8044B704700BF08B53023AE
:102DB00083F3118862B6FFF7B9FF002383F311880C
:102DC00062B608BDC36AD3F8C02012F07C5F08D099
:102DD000D3F8C43013F4001F01D101207047002044
:102DE00070470020704700BF08B5302383F3118877
:102DF00062B641F24403C05800F05AFA002383F34C
:102E0000118862B61F288CBF0020012008BD00BFBA
:102E100041F25943C35C6BB1C26A936923F0010369
:102E2000936141F29842835801338350002241F26A
:102E30005943C254704700BFF0B516461F463023B1
:102E400083F3118862B6002311E079B1CCF8D4E0A5
:102E500000EB431141F268020A44117941F0040188
:102E6000117141F2844142580132425001331F2B0B
:102E70002ADC00EB431441F26C01095DC1F38001CF
:102E80000029F3D141F26C02125DC2F30012002A54
:102E9000ECD041F2680564594FF0010E0EFA04FEC1
:102EA000D0F82CC0DCF8CC401EEA040FCDD000EBEB
:102EB000431541F250042C44D4E90045BD4208BFFB
:102EC000B442C2D21146C0E7002383F3118862B630
:102ED000F0BD00BFF8B507460E4614461D46002358
:102EE0001370FFF781FF80F0010030701DB138468C
:102EF000FFF768FF2070F8BD2DE9F04F83B007465B
:102F00000E4690460093DDE90CAB0B78019392F8E6
:102F1000009000F063FB04460D4633781BB998F827
:102F20000000002842D022462B463846FFF784FF97
:102F30003846FFF73BFF3846FFF76AFF009B4246E3
:102F400031463846FFF7C6FF307808B1019B6BBBAE
:102F500098F8000068B1B9F1000F0AD026E098F89F
:102F6000000010B1B9F1000F20D100F037FB04468A
:102F70000D465D4508BF544517D241F25443F858F9
:102F8000B8B10368D968BAEB04026BEB0503884754
:102F9000009B424631463846FFF79CFF30780028B8
:102FA000DDD0019B002BDAD000E0002003B0BDE8AB
:102FB000F08F0020FAE700BF10B5224B1B686BB101
:102FC00001246CB1204B1B6D13F0010F11D11E4B6E
:102FD0001B6D13F0040F21D023460BE00024F0E713
:102FE000194B01221A6510221A654FF480521A6596
:102FF00011E02346A3B9144B1B6D13F0100F05D13C
:10300000114B1B6D13F0400F00D100248CB90D4BF8
:103010001868FFF78BFE01F07BFD10BD0023E9E788
:103020000522094B1A650021064B1868FFF75CFE64
:10303000E1E75022044B1A650121024B1868FFF7A3
:1030400053FEE4E7F849002000A0004008B51E4BFD
:103050001B6803B1012383B11C4B1B6D13F4007F6C
:1030600014D11A4B1B6D13F0007F23D1164B186837
:10307000FFF75CFE01F04CFD08BD144B01221A6500
:1030800010221A654FF480521A65F3E74FF400726C
:103090000E4B1A6500F0A2FA02460B4652EA0301F3
:1030A00003D012F1FF3243F1FF3307490868FFF7FD
:1030B000C5FCD6E74FF00072044B1A65024B186846
:1030C000FFF77CFAD2E700BFF849002000A00040DB
:1030D00008B54FF6FF710120FEF77AFF08BD00BF6B
:1030E000F0B587B0044616461F460C9803681B6966
:1030F0009847054604344FF0FF33024601A92046A5
:1031000002F0C0FA56EA070310D03146092E00D863
:103110000A21284602F00CFB054601A9204602F0D0
:10312000BBFAB5FA85F0400907B0F0BD002128468A
:1031300002F0FEFA0546F0E708B5043002F0ECFABA
:1031400008BD00BF08B5302383F31188043002F0B6
:10315000CDFA002383F3118808BD00BF012800D0F9
:1031600070474FF6FF739942FAD11022044B002AA0
:10317000F6DB0021596199612033013AF7E700BF7E
:103180000C4A002008B54FF6FF710120FFF7E6FF5B
:1031900008BD00BF70B582B004460E46011D03C9CC
:1031A00002AA02E90300019D45B11B8813F0040F38
:1031B00006D0002333B9012002B070BD0023F9E727
:1031C0000123F7E7204623689B6B98473246C1B23C
:1031D0000098A847EFE700BF10B483B08DE8060061
:1031E000041D9DE8030084E80500012003B05DF89C
:1031F000044B704770B58AB005460C46031D93E832
:1032000003000AAB03E90300099EF6B1BDF83830AC
:1032100013F0040F1CD000220023CDE9002300236B
:10322000ADF8083003AB20686168A26807C3A289C3
:103230001A8000F0D7F9CDE900010423ADF8083079
:103240002B68DB6B69462846984701200AB070BDA1
:103250002B689B6B284698472246C1B20898B04716
:10326000F3E700BF08280CDD09280DD00A280DD08F
:103270000B280DD00C280DD00D280DD00E2801D014
:1032800040207047302070470C2070471020704756
:1032900014207047182070472020704710B504464E
:1032A000037C0BB1204610BD006804F05FFEF9E717
:1032B000BFF35B8FC368BFF35B8FBFF35B8F826825
:1032C000BFF35B8F9A4206D8BFF35B8F8068BFF372
:1032D0005B8F181A70474268BFF35B8F8068BFF33B
:1032E0005B8F101A18447047BFF35B8F0023C360D5
:1032F000BFF35B8FBFF35B8F8360BFF35B8F704760
:1033000043680BB900207047BFF35B8F8268BFF33F
:103310005B8FBFF35B8FC368BFF35B8F934209D3AF
:103320004368BFF35B8FC068BFF35B8F101A01382F
:10333000184470470023F4E738B505460C46FFF7FC
:10334000B7FFA04201D2002038BDBFF35B8FAB684E
:10335000BFF35B8F1C446A68B4FBF2F302FB1344B7
:10336000BFF35B8FAC60BFF35B8F012038BD00BF44
:1033700070B504460E461546FFF7C2FFA84200D3BB
:10338000284608B9002070BD2368BFF35B8FE26850
:10339000BFF35B8F134433606368BFF35B8FE268F6
:1033A000BFF35B8F9B1A984206D973602268B260A4
:1033B000C01AF060022070BD7060012070BD00BFB7
:1033C00038B505460C46FFF79BFFA04201D200200E
:1033D00038BDBFF35B8FEB68BFF35B8F1C446A683B
:1033E000B4FBF2F302FB1344BFF35B8FEC60BFF35B
:1033F0005B8F012038BD00BF2DE9F04385B08146C9
:1034000088466946FFF7B4FF074600242546BC42BC
:103410000FDA04AB03EBC40656F80C2C08EB0501DD
:1034200056F8100CFEF7BAFC56F80C3C1D4401345B
:10343000EDE729464846FFF7C3FF284605B0BDE83B
:10344000F08300BFBFF35B8FC368BFF35B8FBFF335
:103450005B8F8268BFF35B8F9A4210D94368BFF3DA
:103460005B8F8268BFF35B8F9B1A0B6073B103683D
:10347000BFF35B8F8068BFF35B8F18447047BFF367
:103480005B8F8268BFF35B8F9B1AEEE7002070476B
:10349000F0B583B007460E461546FFF709FF044610
:1034A0000190A84200D32C4614B9002003B0F0BD0F
:1034B00001A93846FFF7C6FF019B6BB19C4200D2C1
:1034C00001943060019B73609C420DD93A68B260F0
:1034D000E41AF4600220E9E73B683360746000237B
:1034E000B360F3600120E1E70120DFE72DE9F0415F
:1034F00084B088466946FFF7CBFF0746002425467F
:10350000BC420FDA04AB03EBC40656F80C2C56F899
:10351000101C08EB0500FEF741FC56F80C3C1D445E
:103520000134EDE7284604B0BDE8F08138B5054622
:10353000FFF7DCFF044601462846FFF7FDFE204664
:1035400038BD00BF00B59BB0EFF309816822684623
:10355000FEF724FCEFF30583044B9A6BDA6A9A6A50
:103560009A6A9A6A9A6A9A6A9B6AFEE700ED00E094
:1035700000B59BB0EFF3098168226846FEF70EFCA8
:10358000EFF30583044B9A6B9A6A9A6A9A6A9A6A6D
:103590009A6A9B6AFEE700BF00ED00E000B59BB0B1
:1035A000EFF3098168226846FEF7F8FBEFF3058325
:1035B000034B5A6B9A6A9A6A9A6A9A6A9B6AFEE7FE
:1035C00000ED00E0FEE700BF0FB408B5029802F07E
:1035D000E5F9FEE708B502F07FFF08BD08B502F087
:1035E00067FF08BD08B5FFF7F9FF08BD2DE9F843EF
:1035F00007460E46914640F2791200213046FEF70A
:1036000003FC3B4620220021304600F0BBFF3B1D5F
:1036100002222021304600F0B5FF7B1D032222212B
:10362000304600F0AFFFBB1D03222521304600F0DD
:10363000A9FF07F1080310222821304600F0A2FF5D
:1036400007F1100308223821304600F09BFF07F1F4
:10365000110308224021304600F094FF07F11203C5
:1036600008224821304600F08DFF07F11403202284
:103670005021304600F086FF07F1180340227021E8
:10368000304600F07FFF07F1200843460822B021B2
:10369000304600F077FF07F121030822B8213046B9
:1036A00000F070FFC024002509E008EB0503023399
:1036B00008222146304600F065FF083401350F2D01
:1036C000F3D908F1120308222146304600F05AFFD0
:1036D000083400250AE005F11003434403330822AF
:1036E0002146304600F04EFF0834013598F812307C
:1036F0009D42F0D3B9F1000F01D0002513E007F58A
:10370000997307222146304600F03CFF0734F4E766
:1037100005F598733B44033308222146304600F0F8
:1037200031FF0834013597F832319D42F0D3E01D66
:10373000C008BDE8F88300BF38B505460C46002137
:103740002160C4F8031003462022204600F01AFF2F
:103750002B1D02222021204600F014FF6B1D0322A6
:103760002221204600F00EFFAB1D0322252120461A
:1037700000F008FF05F1080310222821204600F080
:1037800001FF072038BD00BFF8B506460F461446B6
:10379000812200213846FEF737FB334608220021FC
:1037A000384600F0EFFE14B10825002410E0731C29
:1037B00007220821384600F0E5FE0F25F5E733190A
:1037C000023308222946384600F0DCFE0835013471
:1037D00073789C42F3D3E81DC008F8BD30B401E013
:1037E00022462946541E72B14D1C0B7858400023C6
:1037F000072BF5DC40F30001044A0A4082EA50003E
:103800000133DBB2F4E730BC704700BF2083B8ED72
:10381000F0B583B01F4B6A4693E803008DE80300C0
:1038200008231D491D4804F0B9FB78B30446036919
:10383000B3F5E01F02D90B2003B0F0BD418B40F27D
:103840000D42914201D00C20F6E700F11806144A0F
:10385000024402F110018B4201D21020ECE79B1AC6
:10386000A3F110050D490020FFF7B8FF07462A46CF
:1038700031460020FFF7B2FFA3689F4201D00D2020
:10388000DAE7E368984203D00D20D5E70A20D3E7B2
:103890000020D1E798800008DCFF1B00000004082E
:1038A0000800FCF7F0B583B06A46204B93E80300AC
:1038B0008DE8030008231E491E4804F06FFB80B307
:1038C00004460369B3F5E01F02D90B2003B0F0BD35
:1038D000B0F8661040F20D42914201D00C20F5E79D
:1038E00000F16406144A024402F15C018B4201D2E9
:1038F0001020EBE79B1AA3F15C050E490020FFF7AF
:103900006DFF07462A4631460020FFF767FFA36890
:103910009F4201D00D20D9E7E368984203D00D20E3
:10392000D4E70A20D2E70020D0E700BFA08000083B
:1039300090FF1B00000004080800FCF708B5FFF723
:1039400067FF00B908BDFFF7ADFF08BD411A89B296
:1039500008B2002800DB7047203108B2FBE700BF47
:1039600003780133DBB203701F2B01D900230370EE
:10397000704700BF08280CD909280DD00A280DD09F
:103980000B280DD00C280DD00D280DD00E2801D0FD
:1039900040207047302070470C207047102070473F
:1039A000142070471820704720207047082818D925
:1039B0000C2801D809207047102801D80A20704728
:1039C000142801D80B207047182801D80C20704704
:1039D000202801D80D207047302801D80E207047CC
:1039E0000F20704710B421F0604420F06042C30FF4
:1039F000B3EBD17F10D000290ADB00280ADB944208
:103A00001CD094422CBF002001205DF8044B70476D
:103A1000A40CF2E7920CF2E7C1F38071C0F380705E
:103A2000944214BF00230123814208BF0023002BCE
:103A3000EBD194422CBF00200120E6E71846E4E7D2
:103A40002DE9F041C76977B10D4680463E463C46B8
:103A5000D4B169686068FFF7C5FF38B923682646A6
:103A60007BB11C46F4E7C161BDE8F081BC4203D0E4
:103A700035602C60BDE8F0812C60C8F81C50BDE8B2
:103A8000F0812560BDE8F081BDE8F081C37DC3F31E
:103A90008402013262F38603C375C38A6FF309039C
:103AA000C3821B0A6FF3C713C375704710F0800FF2
:103AB00001D10220704710F4004F01D1002070475F
:103AC0000120704710B50446FFF7F0FF022802D02E
:103AD000C4F3074010BDC4F30F2014F07F0FF9D1D9
:103AE00000F0030010BD00BF20B103698B4201D07C
:103AF0000068F9E7704700BF2DE9F043079F4FEAE0
:103B0000D10E03EBD70301F0070107F007070A44C2
:103B10002AE001F0070807F0070C4646E04538BFE9
:103B20006646C6F10806541AA64228BF26464FF438
:103B30007F45F540EDB245FA0CF5CC0800EB0E09D7
:103B400019F8044004FA08F424FA0CF4E4B24FEA39
:103B5000D70813F808C084EA0C042C408CEA040C43
:103B600003F808C0314437449142D2D1BDE8F08314
:103B70002DE9F04F87B003900E4611460492029350
:103B8000838ADA00B24240F2878031448A4204D20A
:103B9000D0B2F3B2C01AC3B20493039BDB6843B341
:103BA000272E37D8C6F12803049A9A422FD35FFAFA
:103BB00086FBCBF1280B5FFA8BFB039B9B6805937D
:103BC00000230093029B5A4631460598FFF794FF65
:103BD0005E44049BA3EB0B04E4B203998A8A2F4B47
:103BE00013444FEAC309D1F80C802821A246444669
:103BF00029E0039B1B69002BD2D1039B986800230B
:103C00000093029B049A3146FFF776FF37E0DDF818
:103C100010B0D2E7049C4FF0000BDEE75546CDF81C
:103C200000B0029B2A46711A201DFFF765FF2E4443
:103C3000AB445FFA8BFBAAEB05055FFA85FAA9EBAB
:103C4000080924683946002C18BFBAF1000F11D0BA
:103C5000C846B9F1E00F28BF4FF0E00801EB0807B4
:103C6000BE42ECD2BB1B9A45D8D3FDB2F3B2ED1ADB
:103C7000EDB2D4E75446039B186900B124B9BDF9ED
:103C8000100007B0BDE8F08FCDF800B0029B52469F
:103C9000711AFFF731FFF2E70020F2E7FBFFFF1F89
:103CA00000207047013900238B420BD210B4C25C54
:103CB000445CC4544254013301398B42F7D35DF85C
:103CC000044B7047704700BF80EA0120002306E0E4
:103CD000400081B241F2210048400133DBB2072BA2
:103CE00005D810F4004FF3D1400080B2F5E77047DB
:103CF00070B516461D46002410E0C4F12002A4F160
:103D0000200326FA04F105FA02F2114325FA03F31F
:103D10001943C9B2FFF7D8FF0834A4B23F2CECD93D
:103D200070BD00BF38B505E04D1C0978FFF7CCFF2A
:103D300022462946541E002AF6D138BD072902D84A
:103D40004FF6FF70704738B50C4605464FF6FF70CA
:103D5000FFF7CEFF22462946FFF7E4FF38BD00BF3C
:103D600030B40546002304E001EB43142C602546E3
:103D700001339342F8D300232B608280C3800381F8
:103D800030BC704702685AB113680360C3880133BE
:103D90009BB2C38001898B4204D9038110467047CE
:103DA000002070471046704708B5FFF7EBFF034649
:103DB00008B100220260184608BD00BF2DE9F04797
:103DC000CC8AC4F30904052C3CD0264625460024A1
:103DD00009E012F804C001EB050E8EF81BC0013596
:103DE000ADB20134A4B2042D03D81FFA83FE74458A
:103DF000EFD39DB2AC421DD21F461646894682467D
:103E0000C98AC1F309014A1F93083B48A0FB030379
:103E1000C3EBC3034FEA8308A2EB08021FFA82F840
:103E2000D9F8045085B101232A68C2B101339BB28D
:103E30001546F9E72E44CB8A66F30903CB820120AD
:103E4000BDE8F0870024D7E75046FFF7ADFF0546F1
:103E5000C9F80400002842D04FF0000825E07A1885
:103E6000053A92082449A1FB021292B2013292B2A1
:103E700093422CBF00230123B8F1000F18BF002389
:103E80009BB15046FFF790FF286060B305460CE0F9
:103E9000315DEA18117101339BB20134A4B21B2BBE
:103EA00001D88442F4D3844204D3B8B284420AD203
:103EB0004346F4E75046FFF777FF2860B8B1054660
:103EC0004FF00008F1E7B9F81630C3F309021044C7
:103ED00060F30903A9F816300120BDE8F0876FF000
:103EE0000200BDE8F0876FF00200BDE8F0876FF0D8
:103EF0000200BDE8F08700BF2549922403680B60EB
:103F00000160C388013BC380704700BF70B506469F
:103F10000C4605E00D6806F10C00FFF7EFFF656049
:103F200061680029F6D1E38A6FF30903E382002078
:103F3000002170BD08B5FFF725FF034628B1002218
:103F4000026042608260C2600261184608BD00BF24
:103F50002DE9F04F85B00E9FBDF83C60002A00F0BF
:103F60008A801446321C18BF0122002F18BF00227D
:103F7000002A40F083800294039301918246072E29
:103F800006D94FF0800B4FF000094C46C8465FE061
:103F90000C30FFF7CFFF0446002872D03246394676
:103FA0000830FDF7FBFE701CC0B2FFF7FFFCFFF707
:103FB000E1FC83B2013B9BB25A1C2274029A127834
:103FC00002F01F0242F0C00223441A72019B43F028
:103FD0000043636021465046FFF732FD4FF0010871
:103FE00054E0002006E03A5D2B441A720130C0B262
:103FF0000134A4B20346062801DCB442F3D3B44230
:1040000036D00130C0B2FFF7D1FCFFF7B3FC421E3F
:104010004FEA4913DBB24BEA030B029B1B7803F018
:104020001F034BEA030B55FA82F383F808B0019B98
:1040300043F000436B60287429465046FFF700FDAB
:1040400008F101080FFA88F889F001094FF0000B18
:10405000B4421BD00AF10C00FFF76CFF054698B183
:10406000002CBED1039A2A72130A43720220C1E7C0
:104070004FF0400BC5E76FF0010807E06FF0010853
:1040800004E06FF0020801E06FF00208404605B05E
:10409000BDE8F08F30B589B004460D4620220021DE
:1040A0006846FDF7B1FE04952046FFF76BFE054616
:1040B00050B16C460FCC28606960AA60EB600FCCF1
:1040C00028616961AA61EB61284609B030BD00BF73
:1040D00010B504460C30FFF7DDFF034610B1A269AE
:1040E0000260A061184610BD38B504460D468069CF
:1040F00028B1FFF7F9FC034650B1184638BD04F16A
:104100000C00FFF7C7FF03460028F6D0A061F4E7D4
:1041100029462046FFF7DCFF0346EEE7F8B50446E4
:104120000E4615461F4628220021FDF76DFE00238E
:104130002370A760069A6260079A226284F824308E
:104140006A09B2F5803F01D34FF6FF7292B2314651
:1041500004F10C00FFF704FEF8BD00BF03781BB9A3
:104160004BB2002B00DD0170704700BF0078704734
:104170002DE9F04F83B01F46BDF830409DF838B0B0
:104180000F9DBDF84080B5FA85F35B09B8F1000FCB
:1041900008BF0023002B41D11646BBF11F0F40D8AA
:1041A0008146FFF7E3FF8246E0B9B8F1070F3BD83D
:1041B00034F003033BD1424629464FF6FF70FFF728
:1041C000B1FD20F001004004400C400240EA0B6BBE
:1041D000240204F440744BEA040444EA0A0A4FF649
:1041E000FF730BE0240244EA0B6444EA000A3246FF
:1041F0003B4641462846FFF7A1FD0346CDF8048023
:1042000000950D9A51464846FFF7A2FE04460D98C8
:10421000FFF7A6FB204603B0BDE8F08F6FF001006A
:10422000F9E76FF00100F6E76FF00300F3E76FF0D6
:104230000100F0E72DE9F04F83B01F469DF83840AC
:104240009DF83CA0109DBDF84490B5FA85F35B093C
:10425000B9F1000F08BF002373BB16461F2C2ED8E0
:104260008B468046FFF782FF60B39DF830301B0419
:1042700043EA046444EACA3444EA0B24044344F0A5
:10428000800432463B4649462846FFF757FDCDF8A5
:104290000490009503460D9A21464046FFF758FECC
:1042A0000446BAF1010F02D003B0BDE8F08F0D98BB
:1042B000FFF756FB2046F7E76FF00100F4E76FF0D9
:1042C0000100F1E76FF00300EEE700BFC06908B13D
:1042D000043070470020704708B5C1690B68C3619E
:1042E0000C30FFF70BFE08BD2DE9F04105461646E0
:1042F0001F46D0F81880444610E021462846FFF7B4
:1043000005FEAB691B68AB61214605F10C00FFF7A8
:10431000F5FDAC69A04601E0A0462468E4B1D4E90B
:104320000223B21A67EB03030C480021994208BF2D
:104330009042F1D2AB699C42DFD021462846FFF77C
:10434000E5FD2368C8F80030214605F10C00FFF7B1
:10435000D5FDD8F80040E1E7BDE8F08180841E007B
:104360002DE9F04182B0089E002E18BF002800F011
:10437000EF800446551EEDB23F2D00F2EC80012A7D
:1043800014BF002003F00100002840F0E780204621
:104390001F4614460023009301936B46FFF7E8FB8A
:1043A000051E40F3DE8014F0070F0AD002AB03EBCA
:1043B000D40111F8083C624202F00702134101F8EF
:1043C000083C012C0BD0082C0BD9102C34D9202CF4
:1043D00035D9402C00F2C9804FF0080803E0A04610
:1043E00001E04FF00108FFF75BFC58BB9FB1B4EB55
:1043F000C80F10D0082C2AD89DF80020631E22FA7E
:1044000003F313F0010F06D00123A3405B42DBB29C
:1044100013438DF80030002F77D0082C67D9102C6B
:104420006AD9202C6DD9402C00F2A580DDE900234B
:10443000C6E90023284695E04FF00208D3E74FF085
:104440000408D0E741466846FFF72CFCCEE7102C65
:104450000FD8BDF80010621E21FA02F212F0010F0F
:10446000D9D00123A3405B429BB20B43ADF800308F
:10447000D1E7202C0CD8009A631E22FA03F313F024
:10448000010FC8D00123A3405B421A430092C2E748
:104490003F2C6DD8DDE9000104F1FF3ECEF120088C
:1044A000A4F1210C20FA0EF201FA08F842EA0802FF
:1044B00021FA0CFC42EA0C0202F001020023134331
:1044C000A9D04FF0010EA4F12008C4F1200C0EFA7F
:1044D00008F32EFA0CFC43EA0C030EFA04F25242E3
:1044E00063EB430310431943CDE9000193E79DF9C2
:1044F00000303370284635E0BDF90030338028465F
:1045000030E0009B336028462CE0012C0DD0082CB5
:1045100010D9102C13D9202C16D9402C2ED8DDE917
:104520000023C6E9002328461CE09DF800303370C4
:10453000284617E09DF800303370284612E0BDF899
:104540000030338028460DE0009B3360284609E0A8
:104550006FF0010006E06FF0010003E06FF0010072
:1045600000E0284602B0BDE8F0816FF00800F9E7EE
:104570006FF00800F6E76FF00800F3E76FF008004F
:10458000F0E700BFF0B585B005460E461446402A58
:1045900000D9402404B90124002202920392012C84
:1045A0001FD0082C22D81B788DF808300127FFF780
:1045B00077FB90BB14F0070F0AD004AB03EBD401D8
:1045C00011F8083C624202F00702934001F8083CEF
:1045D00000962B462246002102A8FFF78DFA05B06F
:1045E000F0BD1B788DF808302746E0E7102C04D882
:1045F0001B88ADF808300227D9E7202C03D81B68A8
:1046000002930427D3E7402C05D8D3E90023CDE952
:1046100002230827CBE70027C9E7394602A8FFF79E
:1046200041FBC7E770B506460C4605E00D6806F18C
:104630000C00FFF763FCE560E1680029F6D1002378
:10464000E360A3602361A38270BD00BF2DE9F04F3A
:1046500099B083460D46CDE90223D1F8008040464B
:10466000FFF724FA0646022845D0C8F30627B8F11A
:10467000000F80F2F88118F0C04F40F0F7812C7BDA
:10468000002C00F0F681022E05D05846FFF76EFD93
:10469000874240F0F181C8F304630B9308F07F0375
:1046A00004934046FFF70EFA01460C9040EA064894
:1046B000049848EA804848EA4768013C2C44277936
:1046C00000220023CDE916235FEAD71A15D0DBF8C4
:1046D0000440009033460A4616A95846A0470028D1
:1046E00000F0CD8141465846FFF7FEFC044668B90C
:1046F0006FF0020062E00027B9E74146DBF81800DE
:10470000FFF7F2F90446002800F0BC81D4E9022347
:1047100052EA03010CBF012100210591DDE90201EC
:10472000801A61EB0301AE4A0023CDE906018B42FA
:1047300008BF824234BF0123002308936A7BA37E13
:104740009A4214BF002201220A92CDF824A094F8C4
:104750001780C8F3840E07F01F084146F1467046E3
:10476000FFF7F4F80D909F4A0023DDE906018B4224
:1047700008BF824234BF01200020069049464046CF
:10478000FFF7E4F80599089B194310D10A9A099B91
:104790001A4204D00D9B012B01DD012308E0099B87
:1047A000069A13420DD00F280DDD002300E00123EF
:1047B0005BB96A7BA37E9A4220D0002019B0BDE885
:1047C000F08F0023F4E70123F2E7E37D67F386032C
:1047D0006FF3C713E37521465846FFF797FB6B7BD2
:1047E000A376BAF1000FE4D1E37DC3F38402013272
:1047F00062F38603E3756FF00C00DFE7BAF1000F98
:1048000002D017F0400F41D1C7F34013E27DB3EB64
:10481000D21F40F03A81C2F38403434540F038810F
:10482000BAF1000F71D017F0400F6ED12B7B032B24
:1048300040F23181DDE90223C4E90223AE1D2B7B66
:10484000033BDBB2324621460BF10C00FFF7B6FA10
:10485000002851DB2B796A7943EA02232383DDE9BF
:1048600016234FF6FF70FFF743FAA0822A7B033A24
:10487000D2B23146FFF756FAA082E37DDA43C2F3A3
:10488000C01262F3C713E375002097E7DDE9029ACF
:104890004A465346C4E90223202200210EA8FDF710
:1048A000B3FA4A465346CDE90E232B1D10932B7BBA
:1048B000013BDBB2ADF84C30BDF83030ADF84E30D6
:1048C0008DF850608DF851809DF82C308DF8523065
:1048D0009DF810308DF853309BF8243083F001039D
:1048E0008DF85430DBF808300EA95846984720461A
:1048F000FFF7CCF8002061E721465846FFF706FB9A
:104900002046FFF7C3F8032058E7BAF1000F02D1A1
:1049100017F0400F0BD0297B0139C9B2E28AC2F3EC
:104920000902042A3CD80023DDF8109024E02E1D53
:104930002B7B013BDBB2324621460BF10C00FFF72B
:104940003DFA002808DB2A7B013AD2B23146A08A20
:10495000FFF7E8F9A08290E721465846FFF7D6FA1C
:104960002046FFF793F8032028E7E8180779A018F6
:10497000C77601320133DBB2042A98BF8B42F4D3ED
:10498000CDF81090DDE9029ACDE90E9A04F11B02F0
:104990001092626811928B4226D22B44043324E099
:1049A000606818B10527DDF8109003E00023E9E7FF
:1049B0001C3718460368002BFAD1D21B08E0EF1809
:1049C00097F804E0871887F804E001320133DBB27E
:1049D0001B2A98BF8B42F2D3CDF81090D2E700BFCC
:1049E00080841E0040420F0000231293E38AC3F329
:1049F00009031944ADF84C10BDF83030ADF84E3015
:104A00008DF850608DF851809DF82C308DF8523023
:104A10009DF810308DF853309BF8243083F001035B
:104A20008DF85430002363602A7B013A291DA08A47
:104A3000FFF778F9A082238B98420CD00EA9584634
:104A4000FFF7F0FD2046FFF721F8A28A238B9A4258
:104A500007D01120B2E6DBF808300EA95846984777
:104A6000ECE70020AAE66FF00900A7E66FF0090066
:104A7000A4E66FF00900A1E66FF00A009EE66FF071
:104A80000B009BE66FF00C0098E66FF00D0095E6CA
:104A90006FF00E0092E66FF00F008FE6EFF30983E0
:104AA000683305494A6822F001024A6083F30988A5
:104AB000002383F31188704730EF00E0302080F34B
:104AC000118862B60D4BD96821F4E0610904090C24
:104AD0000B4A0A43DA600B49CA6842F08072CA6026
:104AE000094A0A49C2F8B01F116841F0010111607A
:104AF0002022DA7783F82200704700BF00ED00E043
:104B00000003FA05F0ED00E0001000E055CEACC562
:104B1000302383F31188104B5B6813F4006F03D1CB
:104B2000002383F31188704710B5F1EE103AEFF3CC
:104B30000984683C4FF08073E361084BDB682366AF
:104B400084F3098800F0CEFE10B1054BA36110BDBF
:104B5000044BA36110BD00BF00ED00E030EF00E0AA
:104B600053070008560700080901C9B2084A13187C
:104B700083F80013410900F01F00012303FA00F03D
:104B800001F1600342F8230042F82100704700BFA2
:104B900000E100E00020704710B582B0446B41F6A0
:104BA0009C03E3581A681178042901D002B010BDA3
:104BB000217A0229FAD11289197901238B401342F3
:104BC000F4D101A904F1440002F0BAFC41F69C03BF
:104BD000E458019B02462179206800F08FFBE5E74D
:104BE00041F69C03C3581A681178042901D00120AA
:104BF0007047017A022901D0012070475289597902
:104C000001238B40134201D00120704710B50446A8
:104C10000C3002F0A5FB024650B141F69C03E0586F
:104C20004FF440734179006800F052FB002010BD42
:104C3000012010BD08B5406BFFF7D2FF08BD00BFD3
:104C400008B50C3002F0FEFB08BD00BF08B54FF000
:104C5000FF330C3002F0F6FB08BD00BF08B544304E
:104C600002F0E8FC08BD00BF08B54FF0FF33443048
:104C700002F0E0FC08BD00BF08B50C3002F0C2FB3A
:104C800008BD00BF08B54FF0FF310C3002F0BAFB91
:104C900008BD00BF08B5443002F0A6FC08BD00BF47
:104CA00008B54FF0FF32443002F09EFC08BD00BF53
:104CB000704700BF70B584B004460346104A43F8FD
:104CC000042B43600125057202900E4B01930426CC
:104CD00000964FF4407300F17C0229460C3002F03C
:104CE00019FB0294084B019300964FF4407304F6AD
:104CF0008C42294604F1440002F0FAFB04B070BD76
:104D000080810008354C0008994B00080A68302360
:104D100083F311880B790B3342F823004B7913335B
:104D200042F823008B7913B10B3342F8230041F68C
:104D30009C03C15002230372002080F31188704746
:104D400038B5037D13B190F84C30A3B90446022165
:104D5000043000F0CBFC012525756FF0010104F152
:104D60000C0000F013FF84F84C506FF0010104F1C7
:104D7000440000F00BFF38BD10B50446012104309B
:104D800000F0B4FC0023237584F84C3010BD00BF44
:104D900038B504460C3002F0D5FA0025257504F12B
:104DA000440002F0BFFB84F84C500121201D00F0AC
:104DB0009DFC2046FFF714FF38BD00BF90F88030FF
:104DC00003F06003202B01D00020704790F8813061
:104DD000212B05D0222B13D0202B09D00020704787
:104DE0000A4B4367072383670023C367012070478B
:104DF000064B4367072383670023C367012070477F
:104E0000002343678367C367012070473422002073
:104E100041F69C03C3581A681178042900D07047E2
:104E2000017A0229FBD11289197901238B4013429F
:104E3000F5D130B583B0044600F14405284602F0B0
:104E400051FC08B903B030BD01A9284602F078FB37
:104E500041F69C03E458019B02462179206800F04A
:104E60004DFAEFE770B582B001F10B0350F8236003
:104E7000F6B10D460446302383F311880821301D16
:104E800000F034FCAB1C04EB83035B685B691B68BC
:104E900083B901A906F1440002F052FB024670B149
:104EA000019B2946204600F029FA002383F311884C
:104EB00002B070BD06F1440002F054FBE9E7AB1C00
:104EC00004EB83035A6853691B68002BEDD0128AE8
:104ED000013A1342E9D1002304F180022946204619
:104EE00000F00CFAE1E700BF38B5133150F821406B
:104EF000A4B1302383F3118841F69C03E258136870
:104F00005279023203EB82035B689B695D6835B9B5
:104F10002046FFF765FE002383F3118838BD042186
:104F2000601800F0E3FB294604F10C0002F028FAB7
:104F3000EEE700BF704700BF0378407843EA0020E7
:104F4000704700BF10B5044690F8823080F88A3070
:104F500001F05AFE63681B6813B10121204698478F
:104F60000323237010BD00BF08B501F06FFD08BD1D
:104F7000012303700023436009E003F10C010022C8
:104F800040F8212003F1140140F821200133072BC0
:104F9000F3D9002303814381704700BF10B5044655
:104FA000302383F311884160002305E09A1C04EB51
:104FB0008202002151600133082BF7D9204601F00D
:104FC00057FD02232370002080F3118810BD00BF1D
:104FD00010B58B1C00EB83035A6053692BB100247E
:104FE0001C605C609C60DC601C6193692BB10022DA
:104FF0001A605A609A60DA601A6101F013FE10BDFF
:1050000038B50546038903F001030381438903F0A2
:1050100001034381012405E0A31C05EB8303002267
:105020005A600134082C19D8A31C05EB83035B6874
:10503000002BF1D0586920B16FF001010C3000F065
:1050400079FDA31C05EB83035B6898690028E3D016
:105050006FF001010C3000F06DFDDDE7284601F036
:1050600087FE38BDF8B5044690F8803003F07F0322
:1050700090F8812043EA022340F20232934200F08A
:10508000058123D8022B00F0B2800BD9B3F5817FC4
:1050900000F0E680B3F5407F51D0B3F5807F3CD07F
:1050A0000020F8BD43B900F18803436702238367FA
:1050B0000023C3670120F8BD012BF1D1814B636749
:1050C0000223A3670023E3670120F8BD40F20162D9
:1050D000934211D9B3F5106F5FD040F6024293426C
:1050E000ECD0B3F5006FDBD100F18B0343670120F7
:1050F000A0670023E367F8BDB3F5C06F34D2B3F502
:10510000A06FCDD1B0F88030B3F5A06F29D00023C7
:105110006367A367E3670120F8BD90F88230012B35
:1051200001D00020F8BDB0F8883023F00203A0F8C9
:105130008830002343678367C3670120F8BD90F878
:105140008230012B01D00020F8BDB0F8883043F048
:105150000203A0F88830002343678367C3670120F8
:10516000F8BDFFF7EFFED2E743685D6890F8836013
:1051700090F882708430FFF7DFFE03463A463146EE
:105180002046A847002800F09780426862670368BD
:10519000A3670023E3670120F8BD0378042B12D036
:1051A00094F882304BB184F88B3004232370636809
:1051B0001B6813B102212046984700236367A36749
:1051C000E3670120F8BD302383F31188FFF718FF50
:1051D000002383F3118884F88B30032323706368E2
:1051E0001B68002BDCD0032120469847D8E790F8B5
:1051F000841011F0800F09D101F00F0101F0C0FD02
:1052000001281DD0022823D00020F8BD01F00F0195
:1052100001F0C8FD012803D0022809D00020F8BD04
:10522000294B63670223A3670023E3670120F8BDCE
:10523000264B63670223A3670023E3670120F8BDC1
:10524000214B63670223A3670023E3670120F8BDB6
:105250001E4B63670223A3670023E3670120F8BDA9
:1052600090F8823053BB90F8843013F00F0104D0D3
:1052700013F0800F07D102F039F800236367A367AA
:10528000E3670120F8BD02F03BF8F6E790F88230C2
:10529000B3B990F8843013F00F0104D013F0800FED
:1052A00007D102F00FF800236367A367E3670120CB
:1052B000F8BD02F011F8F6E70020F8BD0020F8BDB7
:1052C0000020F8BDB0810008AC810008A88100086A
:1052D000F8B50E4601248C40A4B247893C43448172
:1052E000023600EB86056C68A469A2602360002387
:1052F0006360E36001F072FDF8BD00BFF8B50E46D3
:1053000001248C40A4B207893C430481023600EB9F
:1053100086056C686469A260236000236360E360B3
:1053200001F008FEF8BD00BF38B505460223037042
:105330000024A0F8884080F88A4080F88B400481DF
:10534000448108E0002383F31188A31C05EB830349
:1053500000225A600134082C20D8A31C05EB8303DB
:105360005B68002BF1D0302383F31188A31C05EB7D
:1053700083035B68586920B16FF001010C3000F0C5
:10538000D9FBA31C05EB83035B6898690028D9D07F
:105390006FF001010C3000F0CDFBD3E7002385F85E
:1053A0007030284601F0D4FB6B681B6813B10021F4
:1053B0002846984738BD00BF38B50546037880F8C1
:1053C0008C300523037043681B680BB10421984798
:1053D00000242C816C8103E0002383F311880134C5
:1053E000082C20D8A31C05EB83035B68002BF6D0A8
:1053F000302383F31188A31C05EB83035B68586992
:1054000020B16FF001010C3000F094FBA31C05EB00
:1054100083035B6898690028DED06FF001010C30CF
:1054200000F088FBD8E738BD08B590F88C300370E1
:1054300043681B680BB10521984708BD10B50446A9
:1054400090F8703013B1002380F8703004F18002BE
:10545000204601F0B9FC63689B6813B12046984769
:10546000D0B994F8803013F0600F03D12046FFF7D5
:10547000F9FD88B90021204601F02EFF00212046C9
:1054800001F020FF63681B6813B10621204698478E
:10549000062384F8703010BD04F18600FFF74CFD40
:1054A000A36F984200D2A06794F98030002B11DBE3
:1054B000A36F8BBB0B2384F87030302383F31188E8
:1054C00000231A4619462046FFF718FF002383F3EE
:1054D000118810BDA36F7BB1092384F8703030238D
:1054E00083F31188A36F626F00212046FFF706FF48
:1054F000002383F3118810BD142384F87030302307
:1055000083F3118800231A4619462046FFF7E0FE70
:10551000002383F3118810BD152384F870303023E5
:1055200083F31188A36F626F00212046FFF7D0FE3E
:10553000002383F3118810BD10B5044690F8703035
:10554000152B50D8DFE803F03F4F4F4F4F4F3F4FE1
:105550004F0B18384F4F4F4F4F4F4F4F3F3F8630F5
:10556000FFF7EAFCA36F984206D9E268118AB3FB01
:10557000F1F201FB12337BB1142384F87030302335
:1055800083F3118800231A4619462046FFF7A0FE30
:10559000002383F3118810BD302383F31188002387
:1055A0001A4619462046FFF7A9FE002383F3118807
:1055B0000A2384F8703010BDC36F03B198470023ED
:1055C00084F8703010BD002101F086FE00212046D5
:1055D00001F078FE63681B6813B1062120469847E6
:1055E000062384F8703010BD10B5044690F8703072
:1055F000152B36D8DFE803F025353535353525351B
:105600003525252535353535353535351A0B0B23FB
:1056100080F87030302383F3118800231A4619462E
:10562000FFF76CFE002383F3118810BDC3689B69EC
:105630005B68B3B9C36F03B19847002384F8703037
:1056400010BD002101F048FE0021204601F03AFE85
:1056500063681B6813B1062120469847062384F827
:10566000703010BD30B4064CE46805680D60016010
:105670004C608A600022CA600B6130BC704700BF7A
:10568000304C002010B5302484F31188FFF7EAFF76
:10569000002383F3118810BD302383F31188024661
:1056A0001368984205D08B4201D01A46F8E70B6880
:1056B0001360002383F31188704700BF08B5036BA4
:1056C0001943016390F824300A2B02D00B2B08D029
:1056D00008BD826A1142F9D00023836200F0B2F85B
:1056E000F6E7836A8B43F3D1F6E700BF70B5064651
:1056F0000D46046804E0A1686068FFF7DFFF2468D6
:10570000B44208D0E3682B43E360002DF3D0236953
:105710001D42F4D0EFE770BD08B5302383F3118844
:10572000FFF7E4FF00F0D0F8002383F3118808BDF1
:1057300070B5124BDE68302383F31188336B13EAA4
:1057400000050ED119B9002383F3118810E0044637
:10575000B0620A2000F098F800280BDB336B04EAF3
:105760000305336B23EA05033363002383F31188B6
:10577000284670BD002383F31188F9E7304C0020E0
:10578000002380F8243083691B68996882689142FD
:10579000FAD203605A68426010605860704700BFD8
:1057A00008B5302383F3118891F82430032B0FD0F0
:1057B000042B11D04BB108464FF0FF338B62FFF73B
:1057C000DFFF002383F3118808BD83F3118808BD30
:1057D0008B6A00221A60EEE74B680A681A600B6851
:1057E0004A685A60E7E700BF002380F824308369E5
:1057F0001B68996882689142FAD803605A684260CF
:1058000010605860704700BF38B50D4BD8681C68F1
:1058100022681A605360012284F82420DC60FFF7BC
:10582000E3FF0546EFF30983643B026A934204D326
:1058300029462046FAF778FF38BD00F0D7FEF7E793
:10584000304C002008B5FFF79BFF08BD38B50D4B65
:10585000DD6885F824001C6822681A605360012204
:1058600084F82420DC60EFF30983643B2A6A9342C6
:1058700004D329462046FAF757FF38BD284600F0E2
:10588000B5FEF6E7304C002030B587B005460C4B2E
:10589000DC68B1F1FF3F0FD023460A4A684600F0AA
:1058A00027FA2846FFF7D2FF009B13B1684600F0A5
:1058B0002DFAA06A07B030BDFFF7C8FFF9E700BFB7
:1058C000304C0020A157000808B5054BD9681B686B
:1058D0009A688B689A4201D9FFF796FF08BD00BF0E
:1058E000304C0020044BDA681B6898689368984233
:1058F00094BF002001207047304C002038B50D4B7C
:10590000D8681C6822681A605360012284F8242039
:10591000DC60FFF769FF0546EFF30983643B026A29
:10592000934204D329462046FAF7FEFE38BD00F024
:105930005DFEF7E7304C002010B586B00122144B15
:105940001A700023E3B10022114B9A60684600F000
:105950002BF90424684600F033F9684600F036F964
:10596000013CF7D10A4C009BA3600A490A4801F0A8
:1059700001FF02232370002383F3118806B010BDBA
:10598000034A02EB8302002151600133DAE700BFD2
:10599000E04E0020B4810008304C002008B572B6FB
:1059A000044B986700F056FD00F01EFE0322024BE8
:1059B0001A70FEE7304C0020E04E002008B500F0E1
:1059C000DFF908BDEFF3118038B9EFF30583C3F3B6
:1059D00008031BB9302383F311887047302383F306
:1059E0001188704778B908B5EFF30583C3F308034E
:1059F0001BB1002383F3118808BDFFF765FF002367
:105A000083F3118808BD7047401A521A90422CBF88
:105A100000200120704700BF38B5064B5C680519AF
:105A2000044B58682A462146FFF7EEFF0028F7D1BD
:105A300038BD00BF001000E010B48B60022481F874
:105A40002440002481F8254088618B634C630C63FB
:105A5000012381F82630CA6100F1280201F1100308
:105A60000A61C26A4A611360C36201F12C03CB620E
:105A700008465DF8044B7047431C552202701846D7
:105A80008B42F9D3704700BF08B58168436841F87D
:105A9000203CA1F1A40341F8343C026941F8642C94
:105AA000426941F8602C054A41F8442CC3680268F9
:105AB00040390348FFF7C0FF08BD00BF4107000899
:105AC000304C002008B5FFF7DFFFFFF7BBFE08BD35
:105AD00010B50D4BDC68A06204F12C03E06A834230
