:020000040800F2
:1000000000060020F5050008512C0008092C000806
:10001000312C0008092C0008292C0008F7050008DD
:10002000F7050008F7050008F7050008393C000847
:10003000F7050008F7050008F7050008F7050008B0
:10004000F7050008F7050008F7050008F7050008A0
:10005000F7050008F7050008F94D0008254E0008CF
:10006000514E00087D4E0008A94E0008F705000813
:10007000F7050008F7050008F7050008F705000870
:10008000F7050008F7050008F7050008B12B000880
:10009000D92B0008C52B0008ED2B0008D54E000811
:1000A000F7050008F7050008F7050008F705000840
:1000B000F7050008F7050008F7050008F705000830
:1000C000F7050008F7050008F7050008F705000820
:1000D000F7050008F7050008F7050008F705000810
:1000E000394F0008F7050008F7050008F705000874
:1000F000F7050008F7050008F7050008F7050008F0
:10010000F7050008F7050008AD4F0008F7050008DF
:10011000F7050008F7050008F7050008F7050008CF
:10012000F7050008F7050008F7050008F7050008BF
:10013000F7050008F7050008F7050008F7050008AF
:10014000F7050008F7050008F7050008F70500089F
:10015000F7050008F7050008F7050008F70500088F
:10016000F7050008F7050008F7050008F70500087F
:10017000F7050008F7050008F7050008F70500086F
:10018000F7050008F7050008F7050008F70500085F
:10019000F7050008F7050008F7050008F70500084F
:1001A000F7050008F7050008F7050008F70500083F
:1001B000F7050008F7050008F7050008F70500082F
:1001C000F7050008F7050008F7050008F70500081F
:1001D000F7050008F7050008F7050008F70500080F
:1001E000F7050008F7050008F7050008F7050008FF
:1001F000F7050008F7050008F7050008F7050008EF
:10020000F7050008F7050008F7050008F7050008DE
:10021000F7050008F7050008F7050008F7050008CE
:10022000F7050008F7050008F7050008F7050008BE
:10023000F7050008F7050008F7050008F7050008AE
:10024000F7050008F7050008F7050008F70500089E
:10025000F7050008F7050008F7050008F70500088E
:10026000F7050008F7050008F7050008F70500087E
:10027000F7050008F7050008F7050008F70500086E
:10028000F7050008F7050008F7050008F70500085E
:10029000F7050008F7050008F7050008F70500084E
:1002A000F7050008F7050008F7050008F70500083E
:1002B000F7050008F7050008F7050008F70500082E
:1002C000F7050008F7050008F7050008F70500081E
:1002D000F7050008F7050008F7050008F70500080E
:1002E00031150008000000000000000000000000C0
:1002F00053B94AB9002908BF00281CBF4FF0FF318D
:100300004FF0FF3000F074B9ADF1080C6DE904CE88
:1003100000F006F8DDF804E0DDE9022304B07047E0
:100320002DE9F047089D04468E46002B4DD18A42A8
:10033000944669D9B2FA82F252B101FA02F3C2F1DB
:10034000200120FA01F10CFA02FC41EA030E94406C
:100350004FEA1C48210CBEFBF8F61FFA8CF708FB8D
:1003600016E341EA034306FB07F199420AD91CEB65
:10037000030306F1FF3080F01F81994240F21C8197
:10038000023E63445B1AA4B2B3FBF8F008FB1033DF
:1003900044EA034400FB07F7A7420AD91CEB040414
:1003A00000F1FF3380F00A81A74240F207816444E4
:1003B000023840EA0640E41B00261DB1D440002369
:1003C000C5E900433146BDE8F0878B4209D9002DCD
:1003D00000F0EF800026C5E9000130463146BDE857
:1003E000F087B3FA83F6002E4AD18B4202D38242C1
:1003F00000F2F980841A61EB030301209E46002D70
:10040000E0D0C5E9004EDDE702B9FFDEB2FA82F2C4
:10041000002A40F09280A1EB0C014FEA1C471FFA22
:100420008CFE0126200CB1FBF7F307FB131140EA09
:1004300001410EFB03F0884208D91CEB010103F1D6
:10044000FF3802D2884200F2CB804346091AA4B298
:10045000B1FBF7F007FB101144EA01440EFB00FE6C
:10046000A64508D91CEB040400F1FF3102D2A645D1
:1004700000F2BB800846A4EB0E0440EA03409CE770
:10048000C6F12007B34022FA07FC4CEA030C20FA1D
:1004900007F401FA06F31C43F9404FEA1C4900FA3D
:1004A00006F3B1FBF9F8200C1FFA8CFE09FB1811BA
:1004B00040EA014108FB0EF0884202FA06F20BD92D
:1004C0001CEB010108F1FF3A80F08880884240F27D
:1004D0008580A8F102086144091AA4B2B1FBF9F0C1
:1004E00009FB101144EA014100FB0EFE8E4508D9BC
:1004F0001CEB010100F1FF346CD28E456AD9023841
:10050000614440EA0840A0FB0294A1EB0E01A14225
:10051000C846A64656D353D05DB1B3EB080261EB93
:100520000E0101FA07F722FA06F3F1401F43C5E96D
:10053000007100263146BDE8F087C2F12003D840A3
:100540000CFA02FC21FA03F3914001434FEA1C47E5
:100550001FFA8CFEB3FBF7F007FB10360B0C43EAD7
:10056000064300FB0EF69E4204FA02F408D91CEB87
:10057000030300F1FF382FD29E422DD90238634485
:100580009B1B89B2B3FBF7F607FB163341EA034125
:1005900006FB0EF38B4208D91CEB010106F1FF3874
:1005A00016D28B4214D9023E6144C91A46EA00466B
:1005B00038E72E46284605E70646E3E61846F8E6FD
:1005C0004B45A9D2B9EB020864EB0C0E0138A3E746
:1005D0004646EAE7204694E74046D1E7D0467BE727
:1005E000023B614432E7304609E76444023842E79F
:1005F000704700BF02E000F000F8FEE772B637482F
:1006000080F30888364880F3098836483649086000
:1006100040F20000CCF200004EF63471CEF2000140
:100620000860BFF34F8FBFF36F8F40F20000C0F23E
:10063000F0004EF68851CEF200010860BFF34F8FF4
:10064000BFF36F8F4FF00000E1EE100A4EF63C71E1
:10065000CEF200010860062080F31488BFF36F8F8C
:1006600004F09EF804F0A0F94FF055301F491B4AE2
:1006700091423CBF41F8040BFAE71D49184A9142E8
:100680003CBF41F8040BFAE71A491B4A1B4B9A423C
:100690003EBF51F8040B42F8040BF8E7002018495C
:1006A000184A91423CBF41F8040BFAE704F0B6F84F
:1006B00004F0FCF9144C154DAC4203DA54F8041B59
:1006C0008847F9E700F042F8114C124DAC4203DACA
:1006D00054F8041B8847F9E704F09EB80006002090
:1006E000002200200000000808ED00E000000020CB
:1006F00000060020C85300080022002080220020AD
:100700008022002070600020E0020008E40200085F
:10071000E4020008E40200082DE9F04F2DED108AF4
:10072000C1F80CD0D0F80CD0BDEC108ABDE8F08F29
:10073000002383F311882846A047002003F080FCA3
:10074000FEE703F0E3FB00DFFEE700002DE9F041E8
:100750000B25013D07D0042000F0EAFC42F21070A6
:1007600003F074FCF5E703F09FFF074604F00EF872
:100770008046D0BB284B9F4239D001339F4238D0AE
:1007800027F0FF02254B9A4235D12C4642F21075D4
:10079000F8B200F0D3FB00F057FC08B100252C465E
:1007A00000F0D2FB064650B35DBB2646B8F1000F01
:1007B00006D01B4B9F4203D0002503F0DFFF2E46DF
:1007C000002003F07BFF0EB100F02CF800F060FC7D
:1007D00000F0C4FE02F044FA0446ADB900F0F2FCA9
:1007E0004FF47A7003F032FCF7E70446D3E72C4667
:1007F000D1E70124CFE72C4641F28835CBE7054607
:10080000D4E74FF47A75D1E702F02AFA031BAB4222
:10081000E4D900F007F8DDE7010007B0000008B0F8
:10082000263A09B0F8B53C4B3C4A1C4619680131E0
:1008300071D004339342F9D16268394B9A426AD934
:10084000384B9B6803F1006303F580239A4262D220
:1008500003F068FF03F07AFF002000F0A5FE0220FD
:10086000314B187000F0DCFE304B00219A6C99641B
:100870001A6F19671A6FDA6CD9645A6F59675A6F11
:100880001A6D19659A6F99679B6F72B64FF0E023E6
:10089000C3F8084DD4E90004BFF34F8FBFF36F8F47
:1008A000234AC2F88410BFF34F8F536923F4803377
:1008B0005361BFF34F8FD2F8803043F6E076C3F335
:1008C000C905C3F34E335B0103EA060C29464CEA23
:1008D00081770139C2F87472F9D2203B13F1200FED
:1008E000F2D1BFF34F8FBFF36F8FBFF34F8FBFF3C3
:1008F0006F8F536923F4003353610023C2F85032E1
:10090000BFF34F8FBFF36F8F302383F3118885467A
:1009100080F308882047F8BD000004082000040880
:10092000FFFF03080022002080220020004502581B
:1009300000ED00E0094A49F26900136899B21B0C06
:1009400000FB013344F250611360054B186882B21A
:10095000000C01FB0200186080B2704718220020D2
:10096000142200200021102210B5044600F06CFE75
:10097000034B03CB206061601868A06010BD00BF0E
:1009800000E8F11F2DE9F041ADF54E7D0D46002147
:1009900040F275126CAC07460EA80D9100F054FEA3
:1009A0004FF4C4720021204600F04EFE0DF13408D1
:1009B00002F056F94FF47A72244BB0FBF2F0186053
:1009C00093E80700012384E807000DF5E97023820E
:1009D000FFF7C8FF41F204331D4907A8238404F040
:1009E00071FB14230DF2E3220DF12C0C84F832314B
:1009F00007AB1E46083203CE664542F8080C42F8A3
:100A0000041C3346F5D1306841461060012220466F
:100A100000F066FE002380B2E97E0393AB7E029372
:100A200005F1190301930123009306A3D3E90023E1
:100A3000CDE90480384602F0D3FC0DF54E7DBDE8CB
:100A4000F08100BF9E6AC421818A46EE8422002084
:100A5000D45000082DE9F043224DBBB002F000F95C
:100A600040F2ED22AB68C31A934232D906AF2B464F
:100A700028220021A860384602F062FE05F10E002F
:100A800000F0DAFD002604465FFA80F905F10E0851
:100A9000F3B2F100994501F1280107D908EB0603EB
:100AA00008223846013602F04BFEF1E70823012206
:100AB0000534297B0C48A4B2CDE902320B4B0193DB
:100AC0003023CDE90474009304A3D3E9002302F09A
:100AD00087FC3BB0BDE8F083AFF3008078F6339F2E
:100AE00093CACD8D305C00209C3200203D5C0020FC
:100AF000F0B58B8AC9B006460C46013B9BB2C92BA8
:100B000047D8274D2F7B27BB05F10C030822394618
:100B100000933B46204602F0D7FC7B1CFAB2D9007A
:100B20001F46A38A013B9A4205DA0E3200232A446B
:100B300000920822EEE700230022C5E900230023EB
:100B4000AB6085F8D730C5F8D8302B7B0BB9E37E86
:100B50002B7306AD8122002127A800F075FD01222C
:100B6000294627A800F088FE002380B2E17E039387
:100B7000A37E029304F1190301932823CDE90450C5
:100B80000093304604A3D3E9002302F029FCFFF7C9
:100B900061FF49B0F0BD00BF26417272DF25D7B7B3
:100BA000305C002070B50D4614461E4602F074FB02
:100BB00050B9022E10D1012C0ED112A3D3E900237B
:100BC0000120C5E9002307E0282C10D005D8012C0E
:100BD00009D0052C0FD0002070BD302CFBD10BA309
:100BE000D3E90023ECE70BA3D3E90023E8E70BA349
:100BF000D3E90023E4E70BA3D3E90023E0E700BF38
:100C0000AFF30080401DA12026812A0B78F6339F88
:100C100093CACD8D9E6AC421818A46EE26417272A6
:100C2000DF25D7B7F017304A39059E5613B502F0C5
:100C300017F819490B68C31A642B184B08D9184ABE
:100C40001C8892F900200860C2EB021222441A802C
:100C5000B3F90020002A1BDA00221A8011490A6821
:100C6000821AB2F57A7F04D90D4C0860227852427C
:100C70002270B3F900300322002093FBF2F3DBB2C1
:100C800063F3070063F30F2063F3174002B010BD56
:100C9000962AE3DD9622E0E7145D00201C5D00202B
:100CA00010220020185D00202DE9F04F8DB0804605
:100CB0000D4602AF02F0F0FA044600285BD12B7E0D
:100CC000022B1BD1EB8A012B18D101F0C9FF06467C
:100CD000FFF730FE03464FF4C87006F51676DFF8CE
:100CE0001492B3FBF0F202FB103316FA83F3C9F847
:100CF0000030EB7E33B97A4B00221A702C37BD4698
:100D0000BDE8F08FAB8AE6B20134013BB3420CD9A7
:100D100007F10803E100082228461E4401F0F8010B
:100D20000023009602F0D0FBECE707F11800FFF774
:100D300019FE324607F1180107F1080004F090F996
:100D40000028D8D10F2E08D8654B1E70D9F8003076
:100D5000A3F51673C9F80030D0E7FB1DF871014602
:100D6000072200930346284602F0AEFBF97940467D
:100D700002F08AFAC2E7EB8A282B26D010D8012B82
:100D80001ED0052BBAD1BFF34F8F5649564BCA68B8
:100D900002F4E0621343CB60BFF34F8F00BFFDE767
:100DA000302BABD16B7EE946504C0133627BDBB21A
:100DB000934203D1EA7E237B9A420BD0CD469DE736
:100DC00029464046FFF7DEFD98E729464046FFF7F3
:100DD0008FFE93E74FF0000807F118031022284612
:100DE000A7F8188041460093012302F06DFBAE8AFC
:100DF000023EB6B2F31C9B109B000733DB08A9EB45
:100E0000C3039D460DF1080A1FFA88F34FEAC80193
:100E10009E4201F110010AD90AEB08030822284674
:100E200008F101080093002302F04EFBECE794F870
:100E3000D70000F0C3FBD4F8D83005461BB994F8AE
:100E4000D70000F0CBFBD4F8D83033449D4204D215
:100E500094F8D700013000F0C1FB4FEA960B4FF039
:100E600000081FFA88F18B45D4E9003209D90AEB52
:100E70008801012203EB880008F1010800F0ECFB77
:100E8000EFE7F31894F8D70042F10002C4E900320A
:100E9000D4F8D83006EB0308C4F8D88000F08EFBF5
:100EA000804509D394F8D730D4F8D8000133401BDB
:100EB00084F8D730C4F8D800FF2E0D4D09D8002390
:100EC000237300F09DFB00F019FD288108B9FFF79E
:100ED000A9FC23689B0A01332B810023A3606DE7E3
:100EE0009532002000ED00E00400FA05305C00209F
:100EF0008422002098320020F8B50E4C02260E4FB6
:100F0000A4F5805343F8307C237E3BB965692DB14D
:100F1000284600F071FD284604F08AF82046A4F522
:100F2000A55400F069FD012EA4F1100400D1F8BD14
:100F30000126E5E7B0570020E4510008014B187086
:100F4000704700BF90220020334BF0B51C7B85B06A
:100F500034B1324B0E221A810024204605B0F0BD78
:100F60002F4A02AB1068516803C308232D492E484D
:100F70000DEB030204F084F8054630B9274B0A2232
:100F80002A481A8101F03CFEE6E70169B1F5E01F4D
:100F900006D9224B0B2226481A8101F031FEDCE7EC
:100FA000438B40F21342934207D01C490C20088126
:100FB0001946204801F024FECFE71F4A024402F1FF
:100FC0001003994204D2154B10221C481A81E4E701
:100FD000103920468E1A144900F07AFC05F11801E8
:100FE00007463246204600F073FCAB68BB4202D194
:100FF000EB6883420AD0094B0D221A813B460090D0
:101000000F48D5E9021201F0FBFDA5E70D480124C8
:1010100001F0F6FDA1E700BF305C00208422002033
:101020007D510008DCFF1B0000000408EC500008A4
:10103000F85000080A5100080800FCF72851000881
:10104000455100086E51000810B54FF040540C4B4C
:1010500022689A4212D1627D0A4B0B481A70C9224B
:10106000237D0E30094900F8023C00F0DBFAE02253
:101070000021204600F0E8FA012010BD0020FCE726
:101080009AAD44C590220020305C0020160000304C
:1010900037B502231D4C1E4D012220461D496B71A0
:1010A000236804F580545B689847D4F8B034012273
:1010B00018495B6804F596609847002316494FF479
:1010C00080520193154B16480093164B02F0B4F86A
:1010D000154B197811B1124802F0D6F801F0C0FD95
:1010E0000446FFF727FC4FF4C873B0FBF3F202FB92
:1010F000130304F5167010FA83F00C4B186003F01C
:1011000045FB08B10F232B8103B030BDD032002046
:101110008422002040420F0094220020A50B0008EA
:101120009C320020A90C0008902200209832002058
:101130002DE9F041192501224FF400714FF480761A
:1011400045431F4802F0E8FD4FF4807105F1320479
:1011500039351B48012204F0070402F0DDFD25F0BB
:1011600007056520C4F13A041549E4B2013824D0DA
:1011700000231927AB42F9D0B04603F1080E9C4278
:1011800005D94FF0000C4E834FF000720CE01A1B93
:101190004E83B2FBF7FC07FB1C22002A0CBF4FF06A
:1011A000010C4FF0000CEFD1013342EA4C227345A1
:1011B0008A61A1F81880E2D1DCE7BDE8F08100BFC8
:1011C000000402582DE9F04F224D2DED028B93B013
:1011D000DFF88CA0204F284602F02EF903460028A5
:1011E00046D000241D4E0E94A046ADF84440A146C2
:1011F000CDE90F44027B8DF844200FAA996840681E
:1012000003C21B6843F000430E93336804F22C546E
:10121000D3F810B001F026FD10EB0A02CDF80090D3
:10122000304606F5A55641F100030EA9D84740F611
:1012300058230028C8BF48F0010810369C42E4D16A
:10124000B8F1000F0ED0284602F0FAF887F80090A7
:10125000C1E700BF9C3200201F5D0020D03200207B
:1012600040420F003B78072B00F2398101333B707D
:1012700000230DF12C084FF0010A0A93ADF8343029
:101280000B93C8F804309FED9B8B00269F4C37468C
:1012900023684FF0000B0DF11D0207A920468DF8C1
:1012A0001CA08DF81DB08DED008BD3F808905B4627
:1012B000C8479DF81C90B9F1000F1ED01022594666
:1012C0000EA800F0C1F9236808AA0AA95F692046A0
:1012D0000DF11E03B8470FAB4F4698E8030083E8B3
:1012E00003009DF834300EA928468DF844300A9B3F
:1012F0000E93DDE9082302F081FA06F22C5640F63F
:10130000582304F5A5549E4204F11004C0D1002FC7
:10131000BBD1284601F0C0FF002840D17C4E01F02F
:101320009FFC336898423AD301F09AFC0446FFF7D9
:1013300001FB4FF4C87304F516748DF82870B0FBE8
:10134000F3F202FB130314FA83F33360714E377820
:1013500017B901238DF82830C7F110040EA8FFF744
:1013600001FB0EABE4B20DF12900D919062C28BF00
:1013700006242246013400F055F90AABE4B22846AF
:101380000393182304940293634B01930123009366
:101390005AA3D3E9002301F0C5FF0023337001F005
:1013A0005FFC5E4A1368C31AB3F57A7F30D31060CE
:1013B00001F058FC02460B46284602F04BF828463E
:1013C00001F06AFF20B3564B0EAE564C1B7B002B30
:1013D00014BF03230223637101F042FC4FF47A73BC
:1013E00001223146B0FBF3F02060204600F01CFAE9
:1013F000182380B202934C4B019340F25513CDE970
:101400000360009328463FA3D3E9002301F08AFF3D
:10141000FFF70CFC0826C0F307238DF838000022E4
:10142000C0F30740DFF804914FF4807A8DF839302B
:101430008DF83A00A6F10807332F54D9A7F13404E8
:101440001923B4FBF3F103FB1143002B4DD0641AB5
:101450004FF01808B4FBF8F890450BD0FFF7E6FB07
:10146000C0F307238DF83800C0F307408DF83930FA
:101470008DF83A001822B4FBF2F302FB134312AAD0
:1014800004F0070402EBD3034246C4F1080413F846
:10149000103C43FA04F404F00104002C07F10107A6
:1014A000A9F81AA00CBF4FF000730023BE4243EA14
:1014B0004424C9F81840A9F818A0BDD10836A02EB8
:1014C000B8D1174C237B2BB1FFF7C4FA237B002B39
:1014D0007FF47EAE13B0BDEC028BBDE8F08F2846E2
:1014E00001F0AEFFC4E60024D7E70124D5E700BF32
:1014F000AFF300800000000000000000401DA120AC
:1015000026812A0BF1C6A7C1D068080FD03200206F
:10151000983200209532002094320020105D002087
:10152000305C0020842200201E5D00200004025850
:1015300008B5064800F094FE054800F091FE054A03
:1015400005490020BDE8084003F06CBDD032002002
:1015500080470020605D0020F90E000870B5104C37
:101560000025104E02F016FF208030682388834249
:101570000CD800252088013802F008FF2388054494
:10158000013BB5F5802F2380F4D370BD02F0FEFE41
:10159000336805440133B5F5802F3360E5D3E8E7C0
:1015A0004C5D0020205D002002F0D2BF00F1006001
:1015B000920000F5802002F04FBF0000054B1A6832
:1015C000054B1B889B1A834202D9104402F0DEBEF1
:1015D00000207047205D00204C5D002038B5074D8D
:1015E00004462868204402F0D7FE28B92868204421
:1015F000BDE8384002F0E2BE38BD00BF205D0020EB
:10160000064991F8243033B100230822086A81F892
:101610002430FFF7CBBF0120704700BF245D0020BE
:1016200070470000002310B5934203D0CC5CC45433
:101630000133F9E710BD000003460246D01A12F943
:10164000011B0029FAD1704702440346934202D09D
:1016500003F8011BFAE770472DE9F8431F4D1446C4
:101660000746884695F8242052BBDFF870909CB35B
:1016700095F824302BB92022FF2148462F62FFF72E
:10168000E3FF95F824004146C0F1080205EB800015
:10169000A24228BF2246D6B29200FFF7C3FF95F8B8
:1016A0002430A41B17441E449044E4B2F6B2082E22
:1016B00085F82460DBD1FFF7A3FF0028D7D108E02D
:1016C0002B6A03EB82038342CFD0FFF799FF0028F8
:1016D000CBD10020BDE8F8830120FBE7245D00208A
:1016E0002DE9F0470D46044600219046284640F279
:1016F0007912FFF7A9FF234620220021284604F192
:10170000220702F01DF8231D022220212846C026B0
:1017100002F016F8631D03222221284602F010F879
:10172000A31D03222521284602F00AF804F108032C
:1017300010222821284602F003F804F110030822A1
:101740003821284601F0FCFF04F111030822402152
:10175000284601F0F5FF04F112030822482128462B
:1017600001F0EEFF04F1140320225021284601F07D
:10177000E7FF04F1180340227021284601F0E0FF42
:1017800004F120030822B021284601F0D9FF04F11A
:1017900021030822B821284601F0D2FF314608363D
:1017A0003B4608222846013701F0CAFFB6F5A07F64
:1017B000F4D1002704F1330A04F132030822314640
:1017C000284601F0BDFF94F832304FEAC7099F4226
:1017D00009F5A47615D3B8F1000F08D1314609F206
:1017E0004F1604F599730722284601F0A9FF2746F2
:1017F0003B1B94F8322193420CD3F01DC008BDE886
:10180000F0870AEB0703082231462846013701F02A
:1018100097FFD8E707F233133146082228460836E7
:10182000013701F08DFFE3E713B5044608460021B8
:101830002022234601900160C0F8031001F080FFD0
:10184000231D01980222202101F07AFF631D0198D7
:101850000322222101F074FFA31D019803222521F8
:1018600001F06EFF019804F108031022282101F015
:1018700067FF072002B010BDF8B50E4605461446B6
:10188000002181223046FFF7DFFE2B46082200218F
:10189000304601F055FF7CB90F246B1C072208214C
:1018A000304601F04DFF01235F1C6A78013B9342F3
:1018B00004D3E01DC008F8BD0824F4E7EB19214665
:1018C0000822304601F03CFF08343B46ECE70000BC
:1018D00030B50A44084D91420DD011F8013B5840F3
:1018E000082340F30004013B2C4013F0FF0384EA7B
:1018F0005000F6D1EFE730BD2083B8EDF7B5384A98
:101900006B46106851686A4603C308233549364858
:1019100003F0B6FB0446002833D10A25334A6B4650
:10192000106851686A4603C3082331492E4803F002
:10193000A7FB0446002849D00369B3F5E01F45D84A
:10194000B0F8661040F2134291423FD1294A024456
:1019500002F15C018B4239D35C3B234900209E1A83
:10196000FFF7B6FF04F16401074632460020FFF797
:10197000AFFFA3689F4229D1E368984208BF0025C2
:1019800024E00369B3F5E01F27D8418B40F21342EE
:10199000914220D1174A024402F110018B4218D320
:1019A000103B114900209D1AFFF792FF04F1180126
:1019B00006462A460020FFF78BFFA3689E4202D10D
:1019C000E368984201D00D25A8E70025284603B01A
:1019D000F0BD1025A2E70C25A0E70B259EE700BF70
:1019E0007D510008DCFF1B0000000408885100083E
:1019F00090FF1B000800FCF710B5037C044613B9E8
:101A0000006803F025FB204610BD00000023BFF353
:101A10005B8FC360BFF35B8FBFF35B8F8360BFF3EC
:101A20005B8F7047BFF35B8F0068BFF35B8F7047BE
:101A300070B505460C30FFF7F5FF044605F10806C2
:101A40003046FFF7EFFFA04206D96D683046FFF73A
:101A5000E9FF2544281A70BD3046FFF7E3FF201A3E
:101A6000F9E7000070B505464068A0B105F10C0625
:101A700005F10800FFF7D6FF04463046FFF7D2FF16
:101A8000844204F1FF34304694BF6D680025FFF7AF
:101A9000C9FF2C44201A70BD38B50C460546FFF727
:101AA000C7FFA04210D305F10800FFF7BBFF0444B5
:101AB0006868BFF35B8FB4FBF0F100FB11440120B9
:101AC000AC60BFF35B8F38BD0020FCE72DE9F0412F
:101AD000144607460D46FFF7C5FF844228BF04465B
:101AE000D4B1B84658F80C6B4046FFF79BFF304422
:101AF000286040467E68FFF795FF331A9C4203D862
:101B000001206C60BDE8F081A41B6B603B68204441
:101B1000AB60E8600220F5E72046F3E738B50C46F5
:101B20000546FFF79FFFA04210D305F10C00FFF719
:101B300079FF04446868BFF35B8FB4FBF0F100FBEE
:101B400011440120EC60BFF35B8F38BD0020FCE73F
:101B50002DE9FF418846694607466C46FFF7B6FF08
:101B6000002506B204EBC606B4420AD0626808EB50
:101B7000050120680834FFF755FD54F8043C1D4466
:101B8000F2E729463846FFF7C9FF284604B0BDE80A
:101B9000F0810000F8B505460C300F46FFF742FF14
:101BA00005F1080604463046FFF73CFFA0423046E8
:101BB00088BF6C68FFF736FF201A386020B12C68A8
:101BC0003046FFF72FFF2044F8BD000073B51446E0
:101BD00006460D46FFF72CFF8442019028BF0446BD
:101BE000DCB101A93046FFF7D5FF019B33B932685C
:101BF000C5E90233C5E9002401200CE09C422860BD
:101C000038BF0194019884426860F5D93368241A7A
:101C10000220AB60EC6002B070BD2046FBE7000024
:101C20002DE9FF410F4669466C46FFF7CFFF00B232
:101C3000002604EBC005AC4209D0D4F80480B819E2
:101C400054F8081B42464644FFF7ECFCF3E73046E5
:101C500004B0BDE8F081000038B50546FFF7E0FFAD
:101C6000044601462846FFF717FF204638BD00000E
:101C7000302383F3118862B670470000002383F39A
:101C8000118862B67047000001207047704700005D
:101C900010B41346026814680022A4465DF8044B91
:101CA0006047000000F5805090F85904704700002C
:101CB00000F5805090F852047047000000F5805005
:101CC00090F95804704700004E20704700F580528C
:101CD00008B5FFF7CDFFD2F89834D2F89404184431
:101CE000D2F890341844D2F878341844D2F88834B2
:101CF0001844D2F884341844FFF7C0FF08BD000030
:101D00002DE9F04F0C4600F5805185B01F4691F843
:101D1000523405469046BDF838909BB1D1F87434E2
:101D20000133C1F8743423689A0006D4237B082B4E
:101D30000BD9627B0AB10F2B07D9D1F87834013364
:101D4000C1F878344FF0FF300FE0FFF791FFEB6AF6
:101D5000D3F8C42012F4001A0AD0D1F87C34002041
:101D60000133C1F87C34FFF789FF05B0BDE8F08F7F
:101D700022684FF0480BD3F8C460002A6B6AC6F3A0
:101D80000446B4BF42F0804292041BFB063BCBF8F2
:101D9000002023685B004FEA066344BF42F0005214
:101DA000CBF80020227B43EA02437201CBF80430D7
:101DB000607B18B343F44013CBF80430D1F8A4345B
:101DC0000133C1F8A434AB1803F58353197B41F0F8
:101DD00020011973207B039200F0A0FF0330039AC7
:101DE00080105FFA8AF30AF1010A83420DDA04EBEC
:101DF00083010BEB830349689960F2E7AB1803F5A5
:101E00008353197B60F34511E3E70121EB6A04F189
:101E10000C00B140C3F8D010AB18214603F5825333
:101E2000C3E9048705EB461303F58253183351F8D1
:101E300004CB814243F804CBF9D109882A442846CF
:101E4000198041F26803D65002F5805209F003036D
:101E500092F86C1043F0100321F01F010B43214650
:101E600082F86C304246FFF709FF3B46CDF8009000
:101E700000F01AFF012078E72DE9F04700F58056C1
:101E8000044696F85254002D40F00181037C032B48
:101E900040F092802B4628462F465FFA83FC9445FB
:101EA00010DA01EBCC0E51F83CC0BCF1000F04DBA2
:101EB000DEF804C0BCF1000F02DB01370133ECE7B0
:101EC0000130FBE7FFF7D4FEE36AF0B9D3F88000F6
:101ED00040F00200C3F880004E23E06A002F6ED16C
:101EE000D0F8803043F00103C0F88030694B6A4A73
:101EF0001B6803F1805303F52C539B009342A362AC
:101F000040F2AF80654800F0A5FE4D2842D8DFF8CA
:101F100084814FEA004EDFF88891D8F800C04EEA7D
:101F20008C0EC3F884E00CF1805303F52C539B0016
:101F3000636100EB0C03D4F82CC0C8F80030C0F18A
:101F40004E03DCF8800040F03000CCF880004FF009
:101F5000000CD4F81480E6465FFA8CF08242BCDDB7
:101F600001EBC00A51F83000002810DBDAF804A0B9
:101F7000BAF1000F0BDA09EA00400AF07F0A40EAE2
:101F80000A0040F0084048F82E000EF1010E0CF156
:101F9000010CE1E79A6922F001029A6100F060FE0B
:101FA0000646E36A9B69D90704D500F059FE831BF6
:101FB000FA2BF6D9FFF762FE2846BDE8F087B7EBAB
:101FC000530F3DD2DFF8CCE04FEA074CDEF800308B
:101FD0004CEA830CC0F888C003F1805003EB470340
:101FE000002700F52C50CEF80030BC468000A061E0
:101FF000E06AD0F8803043F00C03C0F88030D4F8A9
:1020000018E0FBB29A427FF771AF51F8330001EB51
:10201000C3080028D8F8043001DB002B0EDB20F0C9
:10202000604023F0604340F0005043F000434EF81E
:102030003C000EEBCC000CF1010C43600137E0E7F3
:10204000836923F00103836100F00AFE0646E36A18
:102050009B69DA07AED500F003FE831BFA2BF6D995
:10206000A8E7E26A936923F00103936100F0F8FDA9
:102070000746E36A9B69DB0705D500F0F1FDC31B4A
:10208000FA2BF6D996E7012586F8525492E70025F7
:1020900092E700BF5C5D0020FCB500409451000851
:1020A0000000FF0713B500F580540191606CFFF745
:1020B000D9FC1F280AD920220199606CFFF748FD3E
:1020C000A0F120035842584102B010BD0020FBE7A8
:1020D00000F5805008B5FFF7CBFD406CFFF796FC8C
:1020E000BDE80840FFF7CABD00220260828142605D
:1020F000826070470022002310B5C0E9002300234E
:1021000004460C3020F8043CFFF7EEFF204610BDDB
:102110002DE9F047074688B09A46884607F580546F
:1021200068469146FFF7A4FDFFF7E4FF606CFFF7F8
:102130007FFC1F282DD920226946606CFFF78CFD9B
:10214000202826D194F852341BB303AD444605AB86
:102150002E46083403CE9E4244F8080C44F8041C72
:102160003546F5D13068414620603846B388A380B3
:10217000DDE90023C9E90023BDF808304A46AAF882
:102180000030FFF77BFD534608B0BDE8F04700F094
:1021900079BD0020FFF772FD08B0BDE8F0870000B0
:1021A0002DE9F84F0023064600F581540546884680
:1021B0001034C0E90133274B46F8303B37463846E8
:1021C0002037FFF797FFA742F9D105F580544FF468
:1021D000805305F5A3594FF0000A26630026676473
:1021E00005F5835709F110094FF0000B1037E6632E
:1021F000C4E90D36012384F8403084F84830A7F153
:102200001800203747E910ABFFF76EFF47F8286C3E
:102210004F45F4D1B8F1010F84F85884A4F85A64FA
:10222000A4F85C64A4F85E6484F86064A4F8626452
:10223000A4F86464A4F8666484F8686402D9064863
:1022400000F008FD054B284653F82830EB62BDE846
:10225000F88F00BFE4510008B8510008D4510008BD
:10226000044B10B5197804464A1C1A70FFF798FF02
:10227000204610BD595D00202DE9F04700295FD0B0
:10228000304F3148B7FBF1F581428CBF0A20112055
:10229000431EB5FBF0FC00FB1C50DCB220B1022B4E
:1022A0001846F5D8002037E00CF1FF35B5F5806F02
:1022B00032D2C4EBC4094FF47A7009F103034FEA38
:1022C000E308C3F3C70308F1010AA4EB030E08FBFC
:1022D00000085FFA8EF65AFA8EFEB8FBFEFEBEF5D7
:1022E000617F1BDC1FFA8EF4581C56FA80F00CFB41
:1022F00000FCB7FBFCFC6145D4D1013BDBB20F2BEA
:10230000D0D8711E0020C9B2072905D8107101204C
:102310001480558053719171BDE8F08709F1FF3346
:102320004FEAE30EC3F3C7030EF10108E41A0EFBF4
:102330000000E6B258FA84F4B0FBF4F4A4B2D3E798
:102340000846E9E700B4C4043F420F0038B540F244
:102350007772C36A154CC3F8BC200722C36AC3F85E
:10236000C8202268C16A930043F4C023C1F8A0309A
:1023700002F1805302F16C01C56A03F52C53EA3275
:1023800089009B00226041F0E061094AC361C5F801
:10239000C01003F5D87103F56A73416293428362FA
:1023A00002D9044800F056FC38BD00BF5C5D002037
:1023B000FCB50040945100082DE9F04F00F5805520
:1023C000994689B0044695F858348A469046022BBF
:1023D00004D90027384609B0BDE8F08F9E4A52F86C
:1023E000231009B942F823009C49C4F80CA00B78CB
:1023F00084F81090C3B9FFF73BFC994BD3F8EC205D
:1024000042F48072C3F8EC20D3F8942042F4807236
:10241000C3F89420D3F8942022F48072C3F8942057
:1024200001230B70FFF72AFC95F851346BB9FFF7C5
:102430001FFC8C4A95F85834D35CEBB1012B24D0A7
:10244000012385F85134FFF719FCFFF711FCE26A0C
:10245000936923F01003936100F002FC0746E36ADE
:102460009E6916F0080617D000F0FAFBC31BFA2B82
:10247000F5D9FFF703FCACE70321132001F0BCFC06
:102480000321152001F0B8FCDAE70321142001F044
:10249000B3FC03211620F5E79A6942F001029A6124
:1024A00000F0DEFB0746E36A9A69D00705D400F026
:1024B000D7FBC31BFA2BF6D9DBE79A69002704F593
:1024C000825B42F002020BF1100B9A61E36A5F65D6
:1024D000FFF7D4FB686CFFF799FA202200216846C9
:1024E000FFF7B2F802A8FFF7FFFD6A460BEB060301
:1024F0000DF1180E069794460833BCE80300F44526
:1025000043F8080C43F8041C6246F4D1DCF80000E0
:1025100020361860B6F5806F9CF804201A71DCD163
:10252000002304F5A252514620461A3285F8503451
:1025300085F85334FFF7A0FE074690B9E26A936925
:1025400023F00103936100F08BFB0546E36A9B696E
:10255000D9077FF53EAF00F083FB431BFA2BF5D97B
:1025600037E795F85F6495F85E243602C5F86CA4E9
:10257000E36A46EA426695F860241643B5F85C249F
:1025800046EA0246DE61B8F1000F29D004F5A352F5
:10259000414620460232FFF76FFE90B9E26A936926
:1025A00023F00103936100F05BFB0546E36A9B693E
:1025B000DA077FF50EAF00F053FB431BFA2BF5D97A
:1025C00007E795F8683495F867141B01C5F870841F
:1025D000E26A43EA0123B5F8641443EA0143D36095
:1025E000E36A00262046C3F8BC60FFF7AFFE85F81B
:1025F00059646FF04042E36AB9F1030F1A651A4A51
:10260000E36A5A654FF00222E36A9A654FF0FF329F
:10261000E36AC3F8E0204FF00302E36ADA65E26A96
:10262000936943F4407393613FF4D4AEE26A9369D3
:1026300023F00103936100F013FB0646E36A9B69F4
:10264000DB0705D500F00CFB831BFA2BF6D9C0E69F
:10265000012385F85234BDE6505D0020585D00200E
:1026600000440258CC510008550200022DE9F04FF9
:10267000054689B090469946002741F2680A00F560
:102680008056EB6AD3F8D830FB40D8074AD505EB23
:1026900047124FEA471B52441379190742D4D6F820
:1026A00080340133C6F8803413799A0605EB0B02A7
:1026B00048BFD6F8A834524444BF0133C6F8A83402
:1026C000137943F008031371DB0723D596F85334CD
:1026D00003B305F582546846FFF70CFD03AB1834CD
:1026E0005C4404F1080C2068083454F8041C1A46B1
:1026F000644503C21346F6D1206869461060284637
:10270000A2889A800123ADF808302B68CDE90089B2
:10271000DB6B9847D6F8543423B1D6F89C34013398
:10272000C6F89C340137202FABD109B0BDE8F08F3B
:102730002DE9F04F0F468DB0044600F093FA824623
:102740008946002F5BD1E36AD3F8A02012F4FE0F74
:1027500003D100200DB0BDE8F08FD3F8A420920182
:1027600041BF04F58051D1F894240132C1F894247A
:10277000D3F8A4205606ECD0D3F8A450E669C5F3EC
:1027800005254823E8464FF0000B03FB056640464D
:10279000FFF7AAFC326851004ABF22F06043C2F33F
:1027A0008A4343F00043920048BF43F080430093C4
:1027B000736813F400131BBF012304F580528DF8D6
:1027C0000D308DF80D301EBFD2F8AC340133C2F895
:1027D000AC34F38803F00F038DF80C309DF80C0037
:1027E00000F09CFA5FFA8BF3984225D9F2180CA9F5
:1027F0000BF1010B127A0B4403F82C2CEEE7012F9E
:10280000A7D1E36AD3F8B02012F4FE0FA1D0D3F819
:10281000B420950141BF04F58051D1F894240132D0
:10282000C1F89424D3F8B420500692D0D3F8B45011
:10283000266AC5F30525A4E7EFB9E36AC3F8A850F3
:1028400004A807ADFFF756FC98E80F0007C52B80DA
:102850000023204604A9ADF81830236804F58054FD
:10286000DB6BCDE904A9984758B1D4F88C34013317
:10287000C4F88C346EE7012FE2D1E36AC3F8B85094
:10288000DEE7D4F8903401200133C4F8903461E7D6
:10289000F8B505460F4600F580540126394628460E
:1028A000FFF746FF10B184F85364F7E7D4F85434C7
:1028B00023B1D4F89C340133C4F89C34F8BD000033
:1028C000C36AF0B51A6C12F47F0F2BD01B6C00F5A5
:1028D000805441F268054FF0010CC4F8A034002385
:1028E000471900EB43125E012A44117911F0020FDF
:1028F00015D0490713D4B959C66A0CFA01F1D6F8B4
:10290000CCE011EA0E0F0AD0C6F8D410117941F0CC
:1029100004011171D4F888240132C4F888240133E9
:10292000202BDED1F0BD00002B4B70B51E561B5C7A
:10293000012B30D8294D2A4A55F8233052F8264029
:1029400013B349B3236D9A0510D54FF40073236573
:1029500000F088F950EA01020B4602D0013861F11B
:102960000003024655F82600FFF780FE236D9B0109
:102970002CD54FF0007255F82630226503F58053B0
:10298000012283F8592421E00123236510232365C4
:102990004FF48053236570BD236DDA0702D4236D95
:1029A0005B0706D50523002155F826002365FFF7B0
:1029B0006FFF236DD80602D4236D590606D5502328
:1029C000012155F826002365FFF762FF55F8260020
:1029D000BDE87040FFF774BFD0510008505D002083
:1029E000D451000808B5FFF743F9FFF769FFBDE8C8
:1029F0000840FFF743B90000C36AD3F8C00010F0E5
:102A00007C5005D0D3F8C40080F40010C0F34050CF
:102A10007047000000F5805008B5FFF729F9406CB9
:102A2000FFF706F8FFF72AF943090CBF0120002041
:102A300008BD000000F5805393F8592462B1C16AC3
:102A40008A6922F001028A61D3F898240132C3F81E
:102A50009824002283F85924704700002DE9F74399
:102A600000F5825198460025FFF702F9103141F236
:102A7000680E4FF0010900F5805C00EB45147444CA
:102A800023795E071CD4DB061AD58E69C36A09FA5E
:102A900006F6D3F8CC703E4212D04F6801970F680B
:102AA0009742019F77EB08070AD2C3F8D4602379D5
:102AB00043F004032371DCF884340133CCF884340C
:102AC00001352031202DD8D103B0BDE8F043FFF708
:102AD000D5B80000F8B51E4600230F460546137012
:102AE0001446FFF797FF80F0010038701EB12846AA
:102AF000FFF782FF2070F8BD2DE9F04F85B09946B1
:102B00000D468046164691F800B0DDE90EA302930B
:102B10001378019300F0A6F82B7804460F4613B9FA
:102B20003378002B42D022463B464046FFF796FFC3
:102B3000FFF758FFFFF77EFF4B4632462946FFF767
:102B4000C9FF2B7833B1BBF1000F03D0012005B0D2
:102B5000BDE8F08F337813B1019B002BF6D108F557
:102B6000805303935445029B77EB03031ED2039BD0
:102B7000D3F85404D0B10368AAEB0401DB6889B22E
:102B800098474B46324629464046FFF7A3FF2B782D
:102B900013B1BBF1000FD9D1337813B1019B002BD6
:102BA000D4D100F05FF804460F46DBE70020CEE703
:102BB000002108B50846FFF7B7FEBDE8084001F060
:102BC00073B8000008B501210020FFF7ADFEBDE895
:102BD000084001F069B8000008B500210120FFF7A6
:102BE000A3FEBDE8084001F05FB80000012108B570
:102BF0000846FFF799FEBDE8084001F055B800000F
:102C00000FB4002004B0704700B59BB0EFF309810A
:102C100068226846FEF706FDEFF30583014B9B6BC8
:102C2000FEE700BF00ED00E008B5FFF7EDFF000094
:102C300000B59BB0EFF3098168226846FEF7F2FC0D
:102C4000EFF30583014B5B6BFEE700BF00ED00E097
:102C5000FEE700000FB408B5029801F08DF9FEE719
:102C600001F0C2BC01F09ABC01F098BC13B56C46EF
:102C7000031D84E8060094E8030083E805000120B2
:102C800002B010BD73B58568019155B11B885B0713
:102C900007D4D0E900369B6B9847019AC1B2304601
:102CA000A847012002B070BDF0B5866889B005461E
:102CB0000C465EB1BDF838305B070AD4D0E9003766
:102CC0009B6B98472246C1B23846B047012009B0F5
:102CD000F0BD0022002301F10806CDE90023002306
:102CE0000A46ADF8083003AB1068083252F8041CED
:102CF0001C46B24203C42346F6D110682060928875
:102D0000A280FFF7B1FF0423ADF808302B68CDE9AE
:102D10000001DB6B694628469847D7E7082817D992
:102D200009280CD00A280CD00B280CD00C280CD069
:102D30000D280CD00E2814BF4020302070470C20E6
:102D400070471020704714207047182070472020CB
:102D5000704700002DE9F041456A15B94162BDE8B0
:102D6000F0814B68AC4623F06047C3F38A464FEAD4
:102D7000D37EC3F3807816EA230638BF3E462B463F
:102D80005A68BEEBD27F22F060440AD0002A18DADB
:102D9000A40CB44217D19D420FD10D60DEE713465B
:102DA000EEE7A74207D102F08044C2F380724245A9
:102DB0000BD054B1EFE708D2EDE7CCF800100B6070
:102DC000CDE7B44201D0B442E5D81A689C46002A47
:102DD000E5D11960C3E700002DE9F047089D01F037
:102DE000070400EBD1004FF47F494FEAD508224495
:102DF00005F00705944201D1BDE8F08704F007070C
:102E000005F0070A111B08EBD50E57453E4613F88F
:102E10000EC038BF5646C6F108068E4228BF0E4681
:102E2000E108415C34443544B94029FA06F721FAF7
:102E30000AF1FFB28CEA010147FA0AF739408CEA3D
:102E4000010C03F80EC0D5E780EA0120082341F207
:102E5000210201B2013B4000002980B2B8BF5040BE
:102E600013F0FF03F5D1704738B50C468D18A54215
:102E700000D138BD14F8011BFFF7E6FFF7E70000AB
:102E800042684AB1136881894360438901339BB228
:102E90009942438138BF83811046704770B588B02E
:102EA000044620220D4668460021FEF7CDFB204651
:102EB0000495FFF7E5FF024660B16B46054608AE94
:102EC0001C46083503CCB44245F8080C45F8041CF0
:102ED0002346F5D1104608B070BD0000082817D968
:102EE00009280CD00A280CD00B280CD00C280CD0A8
:102EF0000D280CD00E2814BF4020302070470C2025
:102F00007047102070471420704718207047202009
:102F100070470000082817D90C280CD910280CD9A4
:102F200014280CD918280CD920280CD930288CBF8B
:102F30000F200E207047092070470A2070470B2091
:102F400070470C2070470D20704700002DE9F843B2
:102F5000078C0446072F1ED900254FF6FF73D0E9D2
:102F60000298C5F12006A5F1200029FA05F10835DF
:102F700008FA06F628FA00F0314301431846C9B2B0
:102F8000FFF762FF402D0346EBD13A46E169BDE809
:102F9000F843FFF769BF4FF6FF70BDE8F883000004
:102FA00010B54B6823B9CA8A63F30902CA8210BDFF
:102FB00004691A681C600361C38A013BC3824A60CA
:102FC000EFE700002DE9F84F1D46CB8A0F468146FA
:102FD000C3F30901924605290B4630D00020AAB25E
:102FE00007F11A049EB21FFA80F8042E0FD89045FC
:102FF00003F1010306D30A44FB8A62F309030120AB
:10300000FB821AE01AF800600130E654EAE79045C6
:10301000F1D2A1F1050B1C237C68BBFBF3F203FB8F
:1030200012BB1FFA8BF6002C45D14846FFF728FF4C
:10303000044638B978606FF00200BDE8F88F4FF0B1
:103040000008E6E7002606607860ADB24FF0000B9E
:10305000454510D90AEB0803221D13F8011B08F19E
:1030600001089155B1B21FFA88F81B292BD04545AC
:1030700006F10106F1D8FB8AC3F30902154465F392
:103080000903BCE701321C4692B22368002BF9D138
:103090006B1F0B441C21B3FBF1F301339BB29A422B
:1030A000D3D2BBF1000FD0D14846FFF7E9FE20B9DB
:1030B000C4F800B0BFE70122E7E7C0F800B05E4601
:1030C00020600446C1E74545D5D94846FFF7D8FEFC
:1030D00008B92060AFE7C0F800B0002620600446C1
:1030E000B6E700002DE9F04F1C46074688462DED57
:1030F000028B83B05B690192002B00F09A80238CD5
:103100002BB1E269002A00F09480072B35D807F133
:103110000C00FFF7B5FE054638B96FF002052846EA
:1031200003B0BDEC028BBDE8F08F14220021FEF746
:103130008BFA228CE16905F10800FEF773FA208C06
:1031400048F00041013080B2FFF7E4FEFFF7C6FE11
:10315000013880B220840130287438466369228C9B
:103160001B782A4403F01F0363F03F031372696066
:103170002946FFF7EFFD0125D1E74FF0000900F1E7
:103180000C034FF0800A4E464D4608EE103A18EEFA
:10319000100AFFF775FE83460028BED014220021D6
:1031A000FEF752FA002E3AD1019B0222ABF808300A
:1031B0000BF1080E1FFA82FC218C0CF10100BCF10E
:1031C000060F80B201D88E422BD3FFF7A3FE8E42AA
:1031D00008BF4FF0400AFFF781FE626901380135F0
:1031E00012781BFA80F1013002F01F022DB242EA80
:1031F000491289F001094AEA020A48F0004281F8BE
:1032000008A059468BF810003846CBF804204FF040
:10321000000AFFF79FFD238CB342B8D17FE700225D
:10322000C6E7E169895D01360EF80210B6B20132D7
:10323000C0E76FF0010572E7F8B515460E4630227B
:10324000002104461F46FEF7FFF9069BB5F5001F57
:10325000A760636004F11000079B34BF6A094FF652
:10326000FF72E661A362002397B29A4206D8002358
:103270000360A782E3822383E360F8BD0660013325
:1032800030462036F1E7000003781BB94BB2002B23
:10329000C8BF01707047000000787047F8B50C4651
:1032A000C969074611B9238C002B37D1257E1F2D04
:1032B00034D8387828BB228C072A2CD8268A36F0B6
:1032C00003032BD14FF6FF70FFF7CEFD20F0010076
:1032D00031024FF6FF72400441EA0561400C41EAB9
:1032E0004025234629463846FFF7FCFE002807DD27
:1032F000626913780133DBB21F2B88BF0023137080
:10330000F8BD218A2D0645EA012505432046FFF731
:103310001DFE0246E5E76FF00300F1E76FF00100E4
:10332000EEE7000070B58AB0044616460021282258
:1033300068461D46FEF788F9BDF8383069462046D4
:10334000ADF810300F9B05939DF840308DF8183084
:10335000119B0793BDF84830CDE90265ADF82030E8
:10336000FFF79CFF0AB070BD2DE9F041D369054617
:103370000C4616460BB9138C5BBB377E1F2F28D823
:1033800095F80080B8F1000F26D03046FFF7DEFD3B
:10339000337821020246284641EAC331338A41EAA2
:1033A000080141EA076141EA0341334641F08001E7
:1033B000FFF798FE00280ADD3378012B07D17269E8
:1033C00013780133DBB21F2B88BF00231370BDE8D5
:1033D000F0816FF00100FAE76FF00300F7E70000FB
:1033E000F0B58BB004460D461746002128226846EA
:1033F0001E46FEF729F99DF84C30294620465A1EF4
:10340000534253416A468DF800309DF84030ADF884
:103410001030119B05939DF848308DF81830149B9F
:103420000793BDF85430CDE90276ADF82030FFF7B0
:103430009BFF0BB0F0BD0000406A00B10430704744
:10344000436A1A68426202691A600361C38A013BD7
:10345000C38270472DE9F041D0F8208014461D4604
:10346000184E4146002709B9BDE8F081D1E9022391
:10347000A21A65EB0303964277EB03031ED2036A9D
:103480008B420DD1FFF78CFD036A1B680362036951
:103490000B60C38A0161013B016AC3828846E2E78F
:1034A000FFF77EFD0B68C8F8003003690B60C38A24
:1034B0000161013BC382D8F80010D4E7884609684F
:1034C000D1E700BF80841E002DE9F04F8BB00D4680
:1034D00014469B46DDF850908046002800F0188185
:1034E000B9F1000F00F01481531E3F2B00F2108140
:1034F000012A03D1BBF1000F40F00A810023CDE97E
:103500000833B8F81430B5EBC30F4FEAC30703D341
:1035100000200BB0BDE8F08F2B199F42D8F80C307B
:1035200036BF7F1B2746FFB21BB9D8F81030002BDF
:103530007AD0272D4DD8C5F1280600232946B74259
:10354000009308ABD8F808002CBFF6B23E46A7EBB4
:10355000060A354432465FFA8AFAFFF73DFCB8F8AE
:103560001430282103F10053053BDB000493D8F805
:103570000C300393039B13B1BAF1000F2CD1D8F890
:10358000100040B1BAF1000F05D008AB5246691ADD
:103590000096FFF721FC38B2002FB9D066070AD099
:1035A0000AAB624203EBD40102F0070211F8083CB7
:1035B000134101F8083C082C3DD9102C40F2B5808D
:1035C000202C40F2B780BBF1000F00F09C80082354
:1035D00035E0BA460026C2E7049BE02B28BFE02373
:1035E00006930B44AB42059315D95A1B0398691AED
:1035F0000096924508AB00F1040034BF5246D2B2A7
:103600000792FFF7E9FB079A1644AAEB020A154452
:10361000F6B25FFA8AFA049B069A05999B1A0493FC
:10362000039B1B680393A5E700933A4608AB294622
:10363000D8F80800ADE7BBF1000F13D00123B4EBBD
:10364000C30F6BD0082C12D89DF82030621E23FACD
:1036500002F2D50706D54FF0FF3202FA04F42343F5
:103660008DF820309DF8203089F8003051E7102C7B
:1036700012D8BDF82030621E23FA02F2D10706D517
:103680004FF0FF3202FA04F42343ADF82030BDF8C6
:103690002030A9F800303CE7202C0FD80899631E91
:1036A00021FA03F3DA0705D54FF0FF3202FA04F4EA
:1036B0000C430894089BC9F800302AE7402C2AD014
:1036C000611EC4F12102A4F12103DDE9086526FA97
:1036D00001F105FA02F225FA03F311431943CB076E
:1036E00011D50122A4F12003C4F1200102FA03F351
:1036F00022FA01F1A2400B43524263EB43033243EF
:103700002B43CDE90823DDE90823C9E9002300E7BD
:103710006FF00100FDE66FF00800FAE6082CA1D971
:10372000102CB4D9202CEED8C4E7BBF1000FAED0DA
:10373000022384E7BBF1000FBCD004237FE7000025
:10374000012A30B5144638BF012485B00025402C2D
:1037500028BF4024012ACDE9025518D81B788DF8DE
:10376000083063070AD004AB624203EBD40502F0D1
:10377000070215F8083C934005F8083C0346009101
:103780002246002102A8FFF727FB05B030BD082A1A
:10379000E4D9102A03D81B88ADF80830E1E7202AC5
:1037A00095BF1B68D3E900230293CDE90223D8E734
:1037B00010B5CB681BB98B600B618B8210BD04699F
:1037C0001A681C600361C38A013BC382CA60F0E7C8
:1037D00003064CBFC0F3C0300220704708B5024654
:1037E000FFF7F6FF022806D15306C2F30F2001D1DE
:1037F00000F0030008BDC2F30740FBE72DE9F04FDE
:1038000093B004460D46CDE903230A681046FFF73E
:10381000DFFF0228824614BFC2F306260026002AD4
:1038200080F2F38112F0C04940F0EF81097B00295A
:1038300000F0EB81022803D02378B34240F0E88106
:10384000C2F3046310462944069302F07F030593F4
:10385000FFF7C4FF059B002283464FEA83480023FD
:1038600048EA0A4848EA4668CE78CDE90823F309D1
:1038700048EA0008029368D0059B024608A9204642
:10388000009353466768B847002800F0C481276A50
:103890004FB9414604F10C00FFF700FB074690B911
:1038A0006FF0020055E03B6998450DD03F68002F4E
:1038B000F9D1414604F10C00FFF7F0FA0746002861
:1038C000EED0236A3B60276297F817C006F01F0806
:1038D000CCF3840CACEB0800A8EB0C031FFA80FEC1
:1038E0000028B8BF0EF120001FFA83FEB8BF00B257
:1038F000002B0793B8BF0EF12003D7E90221BCBF0C
:103900001BB2079352EA010338D0039B4FF0000C1F
:10391000DFF820E39A1A049B63EB010196457CEBE8
:1039200001032BD36B7B97F81AE0734519D1029BE7
:10393000002B78D0012821DC7868F8B9DFF8F0C2D4
:10394000944570EB010316D337E0276A27B96FF06F
:103950000C0013B0BDE8F08F3B699845B4D03F68C8
:10396000F4E7B34890427CEB010301D30020F0E779
:10397000029B002BFAD0079B0F2B17DCFA7DB300BC
:103980003946204602F0030203F07C031343FB7523
:10399000FFF706FB6B7BBB76029B3BB9FB7DC3F35A
:1039A0008402013262F38603FB75D0E76A7BBB7E3B
:1039B0009A42DBD1029B002B35D0B309022B32D0C7
:1039C000039B142200210DA8BB60049BFB60FDF744
:1039D0003BFE039B0AA920460A93049BADF83EB028
:1039E0000B932B1D8DF840A00C932B7B8DF8418001
:1039F000013BDBB2ADF83C30069B8DF84230059BB5
:103A00008DF8433094F82C3083F001038DF8443066
:103A1000A3689847FB7DC3F38403013303F01F03BE
:103A20009B02FB82A2E7FB7DC6F34012B2EBD31FE1
:103A300040F0F480C3F38403434540F0F280029ADF
:103A4000B6092B7B002A4DD0F2075DD4032B40F240
:103A5000EB80039BAE1D394604F10C00BB6032467F
:103A6000049BFB602B7B033BDBB2FFF7ABFA002828
:103A70000CDA39462046FFF793FAFB7DC3F3840343
:103A8000013303F01F039B02FB8209E7AB88DDE9EA
:103A900008843B834FF6FF73C9F12000A9F120028F
:103AA00028FA09F109F1080904FA00F024FA02F2EF
:103AB000014318461143C9B2FFF7C6F9B9F1400FE7
:103AC0000346E9D1B88231462A7B033AD2B2FFF7E6
:103AD000CBF9FB7DB882DA43C2F3C01262F3C7139D
:103AE000FB7543E786B92E1D013B394604F10C00F6
:103AF000DBB23246FFF766FA0028BADB2A7B314692
:103B0000B88A013AD2B2E2E7F98A013BC1F309016E
:103B1000DAB204295BD8281D002307F11B069A425C
:103B200008D910F801CB013306F801C00131DBB22E
:103B30000529F4D1039993420A9138BF04330499BB
:103B40002CBF002355FA83F30B9107F11B010C9155
:103B500079680E930D91291DFB8AADF83EB0C3F331
:103B600009038DF840A08DF841801A44069B8DF81A
:103B70004230059BADF83C208DF8433094F82C3052
:103B800083F001038DF844300023B88A7B602A7BE0
:103B9000013AFFF769F93B8BB882834203D1A368EE
:103BA0000AA92046984720460AA9FFF701FEFB7D97
:103BB000BA8AC3F38403013303F01F039B02FB8221
:103BC0003B8B9A420CBF00206FF01000C1E67B686F
:103BD000002BAFD0052001E01C3033461E68002EBC
:103BE000FAD1091A2E1D081D184401EB090C5FFAC1
:103BF00089F3BCF11B0F9DD89A429BD916F8013B63
:103C000009F1010900F8013BEFE76FF00900A0E6B8
:103C10006FF00A009DE66FF00B009AE66FF00D0062
:103C200097E66FF00E0094E66FF00F0091E600BF8C
:103C300040420F0080841E00EFF30983054968337A
:103C40004A6B22F001024A6383F30988002383F35D
:103C50001188704700EF00E0302080F3118862B6D1
:103C60000D4B0E4AD96821F4E0610904090C0A439E
:103C70000B49DA60D3F8FC2042F08072C3F8FC20D4
:103C8000084AC2F8B01F116841F0010111602022FA
:103C9000DA7783F82200704700ED00E00003FA05B0
:103CA00055CEACC5001000E0302310B583F3118869
:103CB0000E4B5B6813F4006314D0F1EE103AEFF38F
:103CC00009844FF08073683CE361094BDB6B23662A
:103CD00084F3098800F00EF910B1064BA36110BD02
:103CE000054BFBE783F31188F9E700BF00ED00E027
:103CF00000EF00E043070008460700080023054ADC
:103D000019460133102BC2E9001102F10802F8D163
:103D1000704700BF645D00202DE9F74F02F0030AF1
:103D2000C2F3C313C2F38009C2F3C108C2F3411E38
:103D3000574600224FF00F0B0193CB0733D502F00B
:103D40000703019C012556009B00BAF1020F05FAFA
:103D500002F504FA03FC44680BFA03F324EA0504B1
:103D60006FEA030344EA090444604FF003048568E2
:103D700004FA06F625EA06056FEA060445EA080590
:103D80008560C56825EA060545EA0E05C5601BD1B4
:103D9000072A13D8056A2B4043EA0C030362036821
:103DA0001C403C430460490822D04FEA49090132D3
:103DB0004FEA88084FEA8E0EBF00BEE7456A2B40E7
:103DC00043EA0C034362EAE70568072A04EA0504AC
:103DD00044EA0704046005D8046A234043EA0C035C
:103DE0000362E0E7446A234043EA0C034362DAE7F4
:103DF00003B0BDE8F08F0000090100F1604301222B
:103E000003F56143C9B283F8001300F01F039A4021
:103E100043099B0003F1604303F56143C3F880212C
:103E20001A60704700238268037503691B689968EC
:103E30009142FBD25A68036042601060586070473C
:103E400000238268037503691B6899689142FBD857
:103E50005A680360426010605860704708B50846B1
:103E6000302383F311880B7D032B05D0042B0DD059
:103E70002BB983F3118808BD8B6900221A604FF0BB
:103E8000FF338361FFF7CEFF0023F2E7D1E9003271
:103E900013605A60F3E70000FFF7C4BF054BD96811
:103EA00008751868026853601A600122D8600275AC
:103EB000FCF732BCE85D00200C4B30B5DD684B1CD4
:103EC00087B004460FD02B46094A684600F050F9E7
:103ED0002046FFF7E3FF009B13B1684600F052F95C
:103EE000A86907B030BDFFF7D9FFF9E7E85D00200A
:103EF0005D3E0008044B1A68DB6890689B68984236
:103F000094BF002001207047E85D0020084B10B5E9
:103F10001C68D868226853601A600122DC60227530
:103F2000FFF78EFF01462046BDE81040FCF7F4BBCA
:103F3000E85D0020044B1A68DB6892689B689A422F
:103F400001D9FFF7E3BF7047E85D002038B5074CA3
:103F500001230025064907482370656000F0CCFC6A
:103F60000223237085F3118838BD00BF5060002004
:103F700028520008E85D002008B572B6044B1865A9
:103F800000F0FAFA00F0CCFB024B03221A70FEE7B5
:103F9000E85D00205060002000F02AB9EFF31180A6
:103FA00020B9EFF30583302282F3118870470000B7
:103FB00010B530B9EFF30584C4F3080414B180F3ED
:103FC000118810BDFFF7B6FF84F31188F9E70000F0
:103FD0008B600223086108468B8270478368A3F1D7
:103FE000840243F8142C026943F8442C426943F8D4
:103FF000402C094A43F8242CC268A3F1200043F85E
:10400000182C022203F80C2C002203F80B2C034A74
:1040100043F8102C704700BF31070008E85D00200E
:1040200008B5FFF7DBFFBDE80840FFF735BF00002C
:10403000024BDB6898610F20FFF730BFE85D00207E
:10404000302383F31188FFF7F3BF000008B5014662
:10405000302383F311880820FFF72EFF002383F31A
:10406000118808BD036810B59C68A2420CD85C6832
:104070008A600B604C602160596099688A1A9A6066
:104080004FF0FF33836010BD121B1B68ECE700008C
:104090000A2938BF0A2170B504460D460A26601960
:1040A00000F022FC00F00AFC041BA54203D8751C9A
:1040B00004462E46F3E70A2E04D90120BDE87040DD
:1040C00000F05ABC70BD0000F8B5144B0D460A2A2A
:1040D0004FF00A07D96103F11001826038BF0A224C
:1040E000416019691446016048601861A81800F021
:1040F000EBFB00F0E3FB431B0646A34206D37C1C0C
:1041000028192746354600F0EFFBF2E70A2F04D9BD
:104110000120BDE8F84000F02FBCF8BDE85D0020AC
:10412000F8B506460D4600F0C9FB0F4A134653F892
:10413000107F9F4206D12A4601463046BDE8F8402E
:10414000FFF7C2BFD169BB68441A2C1928BF2C469F
:10415000A34202D92946FFF79BFF22463146034876
:10416000BDE8F840FFF77EBFE85D0020F85D002065
:10417000C0E90323002310B45DF8044B4361FFF74B
:10418000CFBF000010B5194C236998420DD081684B
:10419000D0E9003213605A609A680A449A6000239A
:1041A00003604FF0FF33A36110BD0268234643F85C
:1041B000102F53600022026022699A4203D1BDE8A9
:1041C000104000F08BBB936881680B44936000F053
:1041D00075FB2269E1699268441AA242E4D911444C
:1041E000BDE81040091AFFF753BF00BFE85D00208B
:1041F0002DE9F047DFF8BC8008F110072C4ED8F805
:10420000105000F05BFBD8F81C40AA68031B9A42D0
:104210003ED814444FF00009D5E90032C8F81C40DC
:1042200013605A60C5F80090D8F81030B34201D13D
:1042300000F054FB89F31188D5E9033128469847EB
:10424000302383F311886B69002BD8D000F036FB44
:104250006A69A0EB040982464A450DD2022000F0AB
:104260008BFB0022D8F81030B34208D151462846C3
:10427000BDE8F047FFF728BF121A2244F2E712EB1D
:1042800009092946384638BF4A46FFF7EBFEB5E72D
:10429000D8F81030B34208D01444C8F81C00211AD2
:1042A000A960BDE8F047FFF7F3BEBDE8F08700BFA7
:1042B000F85D0020E85D002000207047FEE7000068
:1042C000704700004FF0FF3070470000BFF34F8F82
:1042D000044B1A695107FCD1D3F810215207F8D1C9
:1042E000704700BF0020005208B50D4B1B78ABB9DA
:1042F000FFF7ECFF0B4BDA68D10704D50A4A5A6086
:1043000002F188325A60D3F80C21D20706D5064A4A
:10431000C3F8042102F18832C3F8042108BD00BFAC
:1043200058600020002000522301674508B5114B5A
:104330001B78F3B9104B1A69510703D5DA6842F0BC
:104340004002DA60D3F81021520705D5D3F80C21CA
:1043500042F04002C3F80C21FFF7B8FF064BDA68C1
:1043600042F00102DA60D3F80C2142F00102C3F8F6
:104370000C2108BD58600020002000520F289ABF71
:1043800000F5806040040020704700004FF40030CA
:1043900070470000102070470F2808B50BD8FFF7B2
:1043A000EDFF00F500330268013204D1043083428E
:1043B000F9D1012008BD0020FCE700000F2870B5EE
:1043C000054645D8FFF7EAFD224CFFF77FFF06467A
:1043D000FFF78AFF4FF0FF33072D6361C4F81431F4
:1043E00020D82361FFF772FF2B0243F02403E36020
:1043F000E36843F08003E36023695A07FCD428464E
:10440000FFF764FF4FF40031FFF7B8FF00F064F9E5
:104410003046FFF78BFFFFF7CBFD2846BDE8704025
:10442000FFF7BABFC4F81031FFF750FFA5F108033A
:104430001B0243F02403C4F80C31D4F80C3143F0D0
:104440008003C4F80C31D4F810315B07FBD4D6E7F5
:10445000002070BD002000522DE9F84F40EA020311
:1044600005460C461746D80602D00020BDE8F88F56
:1044700027F01F07DFF8D4B0FFF736FF2744BC4210
:1044800003D10120FFF752FFF0E720222946204602
:1044900000F0E6FD10B920352034F0E72B4605F199
:1044A00020021E68711CE0D104339A42F9D1FFF753
:1044B00075FD05F17843234AB3F5801F224B28BFD1
:1044C0009A4603F1040338BF9046A2F1080228BFC0
:1044D0009846A3F108033ABF9146DA469946FFF79A
:1044E000F5FEC8F80060A5EB040CD9F8002004F133
:1044F0001C0142F00202C9F80020221FDAF8006015
:1045000016F00506FAD152F8043F8A424CF8023000
:10451000F4D1BFF34F8FFFF7D9FE4FF0FF32C8F849
:104520000020D9F8002022F00202C9F80020FFF78D
:104530003FFD20222146284600F092FD0028AAD007
:1045400030469FE7142000521021005210200052E4
:1045500010B5084C237828B11BB9FFF7C5FE01231D
:10456000237010BD002BFCD02070BDE81040FFF779
:10457000DDBE00BF5860002038B5054D002403346F
:10458000696855F80C0B00F0B9F8122CF7D138BD5A
:1045900034520008084600F05BBD000070B5104EB4
:1045A00082B0FFF7FBFC054600F088F9326803464D
:1045B0009042336037BF0B4A0A495168146836BFCE
:1045C0000131D1E9004151600419284641F100014F
:1045D0000191FFF7EDFC2046019902B070BD00BFCC
:1045E0005C6000206060002070B5124E82B0FFF762
:1045F000D5FC054600F062F932680346904233600C
:1046000037BF0D4A0C495168146836BF0131D1E9F2
:10461000004151600419284641F100010191FFF762
:10462000C7FC4FF47A72002320460199FBF760FE25
:1046300002B070BD5C600020606000200244074B47
:10464000D2B210B5904200D110BD441C00B253F854
:10465000200041F8040BE0B2F4E700BF50400058DE
:104660000E4B30B51C6F240405D41C6F1C671C6FE7
:1046700044F400441C670A4C02442368D2B243F459
:1046800080732360074B904200D130BD441C51F829
:10469000045B00B243F82050E0B2F4E70044025853
:1046A000004802585040005807B5012201A90020D7
:1046B000FFF7C4FF019803B05DF804FB13B504468F
:1046C000FFF7F2FFA04205D0012201A900200194CA
:1046D000FFF7C6FF02B010BD0144BFF34F8F064B7A
:1046E000884204D3BFF34F8FBFF36F8F7047C3F877
:1046F0005C022030F4E700BF00ED00E00144BFF3AE
:104700004F8F064B884204D3BFF34F8FBFF36F8F99
:104710007047C3F870022030F4E700BF00ED00E0FE
:1047200070470000074B45F255521A6002225A604A
:1047300040F6FF729A604CF6CC421A600122024B9E
:104740001A707047004800586C600020034B1B78BB
:104750001BB1034B4AF6AA221A6070476C60002016
:1047600000480058034B1A681AB9034AD2F8D024FB
:104770001A6070476860002000400258024B4FF4F6
:104780008032C3F8D02470470040025808B5FFF7C4
:10479000E9FF024B1868C0F3806008BD6860002024
:1047A00070B5BFF34F8FBFF36F8F1A4A0021C2F865
:1047B0005012BFF34F8FBFF36F8F536943F4003331
:1047C0005361BFF34F8FBFF36F8FC2F88410BFF3F5
:1047D0004F8FD2F8803043F6E074C3F3C900C3F3BF
:1047E0004E335B0103EA0406014646EA817501394E
:1047F000C2F86052F9D2203B13F1200FF2D1BFF37F
:104800004F8F536943F480335361BFF34F8FBFF32E
:104810006F8F70BD00ED00E0FEE70000214B2248E5
:10482000224A70B5904237D3214BC11EDA1C121AAE
:1048300022F003028B4238BF00220021FCF704FF64
:104840001C4A0023C2F88430BFF34F8FD2F8803067
:1048500043F6E074C3F3C900C3F34E335B0103EACC
:104860000406014646EA81750139C2F86C52F9D254
:10487000203B13F1200FF2D1BFF34F8FBFF36F8FA7
:10488000BFF34F8FBFF36F8F0023C2F85032BFF3D7
:104890004F8FBFF36F8F70BD53F8041B40F8041B9C
:1048A000C0E700BF4854000870600020706000201E
:1048B0007060002000ED00E000F01AB9014B586A6A
:1048C000704700BF000C0040034B002258631A6180
:1048D0000222DA60704700BF000C0040014B00224A
:1048E000DA607047000C0040014B5863704700BF0E
:1048F000000C0040FEE7000070B51B4B002504468D
:1049000086B058600E4685620163FFF7A5F904F191
:104910001003A560E562C4E904334FF0FF33C4E936
:104920000044C4E90635FFF7C9FF2B46024604F1EF
:1049300034012046C4E9082380230C4A2565FFF78B
:1049400047FB01230A4AE0600092037568467268DB
:104950000192B268CDE90223064BCDE90435FFF799
:104960005FFB06B070BD00BF506000207C520008A5
:1049700081520008F5480008024AD36A1843D06201
:10498000704700BFE85D00204B6843608B68836020
:10499000CB68C3600B6943614B6903628B694362F7
:1049A0000B6803607047000008B53A4B40F2FF7196
:1049B0003948D3F888200A43C3F88820D3F88820E0
:1049C00022F4FF6222F00702C3F88820D3F888306F
:1049D000324B1A6C0A431A649A6E0A439A66304A3A
:1049E0009B6E1146FFF7D0FF00F5806002F11C01BD
:1049F000FFF7CAFF00F5806002F13801FFF7C4FF3E
:104A000000F5806002F15401FFF7BEFF00F5806001
:104A100002F17001FFF7B8FF00F5806002F18C0130
:104A2000FFF7B2FF00F5806002F1A801FFF7ACFFCD
:104A300000F5806002F1C401FFF7A6FF00F5806079
:104A400002F1E001FFF7A0FF00F5806002F1FC0138
:104A5000FFF79AFF02F58C7100F58060FFF794FF75
:104A600000F004F90F4BD3F8902242F00102C3F892
:104A70009022D3F8942242F00102C3F89422052236
:104A8000C3F898204FF06052C3F89C20064AC3F840
:104A9000A02008BD004402580000025800450258FA
:104AA0008852000800ED00E01F00080308B500F080
:104AB000ADFAFFF74BFA0B4BDA6B42F04002DA63C8
:104AC0005A6E22F040025A665B6E074B1A6842F03B
:104AD00008021A601A6842F004021A60BDE8084031
:104AE000FFF740BE0045025800180248704700001A
:104AF0000E4B9A6C42F008029A641A6F42F0080258
:104B00001A670B4A1B6FD36B43F00803D363C722AA
:104B1000084B9A624FF0FF32DA6200229A615A63C0
:104B2000DA605A6001225A611A60704700450258E3
:104B30000010005C000C0040094A08B51169D368F8
:104B40000B40D9B29B076FEA0101116107D53023F1
:104B500083F31188FFF720FA002383F3118808BD3F
:104B6000000C0040044BDA6B0243DA635A6E1043C8
:104B700058665B6E704700BF004502583A4B4FF0D5
:104B8000FF31D3F8802062F00042C3F88020D3F8D0
:104B9000802002F00042C3F88020D3F88020D3F8B0
:104BA0008420C3F88410D3F884200022C3F8842022
:104BB000D3F88400D86F40F0FF4040F4FF0040F489
:104BC000DF4040F07F00D867D86F20F0FF4020F42E
:104BD000FF0020F4DF4020F07F00D867D86FD3F8C3
:104BE00088006FEA40506FEA5050C3F88800D3F84D
:104BF0008800C0F30A00C3F88800D3F88800D3F80F
:104C00009000C3F89010D3F89000C3F89020D3F828
:104C10009000D3F89400C3F89410D3F89400C3F82C
:104C20009420D3F89400D3F89800C3F89810D3F8E0
:104C30009800C3F89820D3F89800D3F88C00C3F8F4
:104C40008C10D3F88C00C3F88C20D3F88C00D3F8E8
:104C50009C00C3F89C10D3F89C10C3F89C20D3F898
:104C60009C3000F0ABB900BF0044025808B50122E7
:104C7000504BC3F80821504B5A6D42F002025A655E
:104C8000DA6F42F00202DA670422DB6F4B4BDA6024
:104C90005A689104FCD54A4A1A6001229A60494A2E
:104CA000DA6000221A614FF440429A61434B9A69DC
:104CB0009204FCD51A6842F480721A60424B1A6F53
:104CC00012F4407F04D04FF480321A6700221A6732
:104CD0001A6842F001021A603B4B1A685007FCD573
:104CE00000221A611A6912F03802FBD10121196001
:104CF0004FF0804159605A67344ADA62344A1A6187
:104D00001A6842F480321A602F4B1A689103FCD55E
:104D10001A6842F480521A601A689204FCD52D4A2F
:104D20002D499A6200225A63196301F57C01DA6306
:104D300001F5E77199635A64284A1A64284ADA62CD
:104D40001A6842F0A8521A601F4B1A6802F02852E3
:104D5000B2F1285FF9D148229A614FF48862DA6192
:104D600040221A621F4ADA641F4A1A651F4A5A65AE
:104D70001F4A9A6532231F4A1360136803F00F031A
:104D8000022BFAD1104A136943F00303136113692C
:104D900003F03803182BFAD14FF00050FFF7E2FE72
:104DA0004FF08040FFF7DEFE4FF00040BDE80840C6
:104DB000FFF7D8BE00800051004502580048025855
:104DC00000C000F004000001004402580000FF0190
:104DD000008890083220600063020901470E050830
:104DE000DD0BBF0120000020000001100910E000D1
:104DF00000010110002000524FF0B04208B5D2F877
:104E0000883003F00103C2F8883023B1044A1368E4
:104E10000BB150689847BDE80840FEF745BF00BF9A
:104E2000645D00204FF0B04208B5D2F8883003F03E
:104E30000203C2F8883023B1044A93680BB1D068EA
:104E40009847BDE80840FEF72FBF00BF645D002013
:104E50004FF0B04208B5D2F8883003F00403C2F82E
:104E6000883023B1044A13690BB150699847BDE8F3
:104E70000840FEF719BF00BF645D00204FF0B0424C
:104E800008B5D2F8883003F00803C2F8883023B19F
:104E9000044A93690BB1D0699847BDE80840FEF712
:104EA00003BF00BF645D00204FF0B04208B5D2F8E8
:104EB000883003F01003C2F8883023B1044A136A23
:104EC0000BB1506A9847BDE80840FEF7EDBE00BF41
:104ED000645D00204FF0B04310B5D3F8884004F46F
:104EE0007872C3F88820A30604D5124A936A0BB1DE
:104EF000D06A9847600604D50E4A136B0BB1506B0D
:104F00009847210604D50B4A936B0BB1D06B984799
:104F1000E20504D5074A136C0BB1506C9847A30502
:104F200004D5044A936C0BB1D06C9847BDE810408F
:104F3000FEF7BABE645D00204FF0B04310B5D3F861
:104F4000884004F47C42C3F88820620504D5164AE0
:104F5000136D0BB1506D9847230504D5124A936D1C
:104F60000BB1D06D9847E00404D50F4A136E0BB116
:104F7000506E9847A10404D50B4A936E0BB1D06EC6
:104F80009847620404D5084A136F0BB1506F9847D5
:104F9000230404D5044A936F0BB1D06F9847BDE842
:104FA0001040FEF781BE00BF645D002008B5FFF72A
:104FB000C3FDBDE80840FEF777BE0000062108B536
:104FC0000846FEF719FF06210720FEF715FF062108
:104FD0000820FEF711FF06210920FEF70DFF06212C
:104FE0000A20FEF709FF06211720FEF705FF06211C
:104FF0002820FEF701FF09217A20FEF7FDFE072198
:105000003220BDE80840FEF7F7BE000008B5FFF704
:10501000B5FDFEF773FEFFF769FDBDE80840FFF739
:105020004BBC00000B460146184600F003B80000D8
:1050300000F00EB810B5054C13462CB10A460146D7
:105040000220AFF3008010BD2046FCE70000000006
:10505000024B01461868FFF79DBA00BF1C220020D2
:1050600010B501390244904201D1002005E00378D7
:1050700011F8014FA34201D0181B10BD0130F2E717
:105080002DE9F041A3B1C91A17780144044603F190
:10509000FF3C8C42204601D9002009E00578BD4242
:1050A00004F10104F5D10CEB0405D618A54201D199
:1050B000BDE8F08115F8018D16F801EDF045F5D049
:1050C000E7E70000034611F8012B03F8012B002A43
:1050D000F9D17047636F6D2E6375626570696C6F8F
:1050E000742E68657265332B000000004E6F2061DE
:1050F0007070207369670A00426164206677206CD3
:10510000656E6774682025750A0042616420626FCD
:105110006172645F69642025752073686F756C64C3
:105120002062652025750A0042616420667720644C
:10513000657363726970746F72206C656E677468F2
:105140002025750A0042616420617070204352433B
:10515000203078253038783A30782530387820304B
:1051600078253038783A3078253038780A00476F1B
:105170006F64206669726D776172650A0040A2E40F
:10518000F16468910600000041A3E5F265699207A9
:105190000000000043414E464449666163653A2081
:1051A0004D6573736167652052414D204F7665727E
:1051B000666C6F77210000004261642043414E49D4
:1051C0006661636520696E6465782E0000010000E9
:1051D0000001FF0000A0004000A40040000000000B
:1051E00000000000B9230008911C0008F92A0008FB
:1051F000891C0008011D000811210008791E000803
:10520000C91C0008CD1C0008A51C00088D1C000846
:10521000D1200008B11C00086D2C0008BD1C00083E
:10522000A52000086330000024520008405E0020E2
:10523000506000200000002000000200020000007A
:105240000001003000000000000000000000002409
:1052500000000800040000000004000000FC000042
:105260000200000000000430008000000000000088
:105270000000003800000100010000006D61696E4F
:105280000069646C65000000000000280000000058
:10529000AAAAAAAA00000024FFFF00000000000044
:1052A000000000000000550A00000000AAAA9AAA07
:1052B00000000000FFF20000000000000000990064
:1052C0000000000000000000AAAAAAAA0000000036
:1052D000FFFF000000000000000000005A00000076
:1052E000000000009AAAAAAA00000000F3FF000034
:1052F0009900000000000000000000000000000015
:10530000AAAAAAAA00000000FFFF000000000000F7
:10531000000000000000000000000000AAAAAAAAE5
:1053200000000000FFFF000000000000000000007F
:105330000000000000000000AAAAAAAA00000000C5
:10534000FFFF00000000000000000000000000005F
:1053500000000000AAAAAAAA00000000FFFF0000A7
:10536000000000000000000000000000000000003D
:10537000AAAAAAAA00000000FFFF00000000000087
:10538000000000000000000000000000AAAAAAAA75
:1053900000000000FFFF000000000000000000000F
:1053A0000000000000000000AAAAAAAA0000000055
:1053B000FFFF0000000000000000000064AFFF7F5E
:1053C00001000000000000001304000000000000C5
:1053D000000018000000000001000000FE2A01008B
:1053E000D204000020220020000000000000000085
:1053F00000000000000000000000000000000000AD
:10540000000000000000000000000000000000009C
:10541000000000000000000000000000000000008C
:10542000000000000000000000000000000000007C
:10543000000000000000000000000000000000006C
:08544000000000000000000064
:00000001FF
